:020000022000DC
:1060000000000420756302005D6302005F6302000C
:106010006163020063630200656302000000000028
:1060200000000000000000000000000067630200A4
:1060300069630200000000006B6302006D630200F0
:10604000298102006F6302008983020039A70200E0
:10605000019B02006F63020091810200498F0200E0
:106060006F6302006F6302006F6302006F630200E0
:106070006F6302006F6302006F6302006F630200D0
:106080006F630200096502006F6302006F63020024
:10609000C96502006F6302001DDE02006F6302002B
:1060A0006F6302006F6302002D9602006F630200AF
:1060B0006F6302006F630200000000000000000038
:1060C0006F6302006F6302006F6302008996020033
:1060D000797902006F6302006F6302006F63020050
:1060E0006F6302006F6302006F6302000000000034
:1060F000000000006F630200000000006F630200F8
:10610000000000000000000000000000000000008F
:10611000000000000000000000000000000000007F
:10612000000000000000000000000000000000006F
:10613000000000000000000000000000000000005F
:10614000000000000000000000000000000000004F
:10615000000000000000000000000000000000003F
:10616000000000000000000000000000000000002F
:10617000000000000000000000000000000000001F
:10618000000000000000000000000000000000000F
:1061900000000000000000000000000000000000FF
:1061A00000000000000000000000000000000000EF
:1061B00000000000000000000000000000000000DF
:1061C00000000000000000000000000000000000CF
:1061D00000000000000000000000000000000000BF
:1061E00000000000000000000000000000000000AF
:1061F000000000000000000000000000000000009F
:10620000354936480A1A02D0072291438D4634494F
:1062100034480A1A06D00722914381F309880222E2
:1062200082F3148830483149314A00F044F831484B
:106230003149324A00F03FF831483249324A00F0E1
:106240003AF832483249334A00F035F83248334997
:10625000334A00F030F833483349344A00F02BF821
:1062600033483449344A00F026F83448344900228F
:1062700000F02CF833483449002200F027F8334866
:106280003349091A082902DB002202604160314AC1
:1062900090471F481F49884205D00268043003B464
:1062A000904703BCF7E700208646EC46002000211B
:1062B000294A9047FEE7884207D0521A05D0037852
:1062C00001300B700131013AF9D17047884202D098
:1062D00002700130FAE770470000042000E003205C
:1062E000000004200000042030120300607300202E
:1062F000B4840020D4630200D463020054FF02007F
:106300003012030060730020607300202800030037
:1063100028000300280003002800030028000300D1
:1063200028000300280003002800030030120300A7
:1063300084230300B4840020B4840020B4840020AB
:10634000CC950020CC950020D0950020D095002041
:10635000C49700209D6302002DC10200FEE7FEE706
:10636000FEE7FEE7FEE7FEE7FEE7FEE7FEE7FEE705
:10637000704700BF1048804710484FF0070188431E
:1063800085460F4880470F48016841F4700101605D
:10639000BFF34F8FBFF36F8FFFF732BF0A480B4930
:1063A0000B4A884207D0521A05D0037801300B708F
:1063B0000131013AF9D170477163020000000420F5
:1063C0008575020088ED00E028000300607300205E
:0463D00060730020D6
:1063D40000487047C495002000B585B000210191A4
:1063E4000291039001AA44F2010000F003F805B001
:1063F4005DF804FB72B6094B1B6813F0010F00D063
:1064040000BEBFF34F8F0649CA6802F4E062054B31
:106414001343CB60BFF34F8F00BFFDE7F0ED00E007
:1064240000ED00E00400FA0570B50E4B4FF40032A5
:10643400C3F880200C4D4FF48033C5F84833C5F8B9
:10644400083301266E60094C34434FF43C60A04786
:10645400AE600025064B1D604FF43C60A047054B21
:106464001D7070BD00E100E0001001403000030029
:10647400D0850020C18500200B4A53780133DBB25C
:1064840092789A4208BF0023074A12789A4208D0A9
:1064940003700548437803EB430300EBC300043067
:1064A40070470020704700BFB484002030B583B02B
:1064B40004460D4600238DF806300DF1060000F069
:1064C400CDFA0DF10700FFF7D7FF88B105704460DE
:1064D4009DF80720094B5A709DF8060000F0EAFA6F
:1064E400074B4FF48012C3F80021002003B030BDE5
:1064F4009DF8060000F0DEFA0420F7E7B4840020DB
:1065040000E100E0F8B5284B0022C3F84021C3F8AD
:106514004421C3F84821C3F84C21C3F80021C3F82F
:106524000421224B1B68002B31D002F1804202F57A
:106534008832D2F804451E4A1268A41A24F07F4413
:106544001A68944212D30026374608E01F745A6929
:10655400986990475DB12A682B46A24207D8A41ACD
:106564001644DD691A7C002AF4D0EFE70026114BAB
:106574001B78114A12789A420AD00E4B1A780F4BA4
:1065840043F822600E4B4FF48012C3F80021F8BD8B
:106594000133DBB2022B02D0064A1370EDE7054B40
:1065A40000221A70E9E700BF00100140D4850020E2
:1065B400D0850020CD850020CC850020C485002016
:1065C40000E100E02DE9F04F83B07F4B1B787F4A58
:1065D40012789A4243D07E4A16680133DBB2022B0A
:1065E40014D0794A1370784B1A787A4B53F82210E6
:1065F400731823F07F43764A1360774B1B6800249B
:1066040025462046A6464FF0010C0DE06E4B0022B5
:106614001A70E8E70CB170480360521A1A6001233B
:1066240001931EE064463B4693B11A688A42F1D84E
:10663400891A1044C3F800E0DF69DC68002CF1D04B
:10664400321822F07F425A609C60DD611D46E9E702
:1066540014B1614B00221A600123019301E000256B
:1066640001955D4BD3F800B04FF000095B4B43F04C
:10667400010A51E05A4A002111707DE0564B1D6811
:10668400002D49D000232B74ED69002DFBD1524B12
:1066940000221A6040E0504B1F68002F00F01F8159
:1066A400BC420AD0B846D8F81C60002E00F017810E
:1066B400B44200F00381B046F5E73E46B846FB69B4
:1066C400454A1360002B40F0FC800123454A936047
:1066D4003F4A00211160444A13704FF43C60D04794
:1066E400EFE05B1A23F07F43A268934234BFD31ACE
:1066F400002323601FE01C600EE001461A46374663
:10670400BE1AC86928B10368B342F6D3DB1B13442D
:1067140003602660E061CC610DB32C46ED696168CD
:106724002B4B1B68CA1A22F07F4230488242D8D8C9
:10673400A3681A44226000236360A36001222274C8
:10674400E361254B19680029D5D027680A68974268
:10675400D6D8D21B0A60E1611F4B1C60DCE7204ADB
:10676400137852789A4243D05A1CD2B21C490A7008
:10677400897891423FF47EAF03EB4302184901EB61
:10678400C20294681279022A85D0032A3FF476AFB4
:10679400012AC1D1227C002ABED111495E00F2181F
:1067A40001EBC202D06860601069A0605269E260C7
:1067B400334401EBC3018B69A3610B4B1B78002BA2
:1067C400ADD000236360AAE7CC850020CD850020EE
:1067D400D0850020C4850020D4850020300003002B
:1067E400B484002000100140C0850020FEFF7F001B
:1067F400B9F1000F06D13B4B1B689B4502D1019BAD
:10680400002B34D0374B1B68002B54D01F68364BF9
:10681400D3F80455354B1C682E1B26F07F460336EF
:10682400334B1B784BB3B7422CBFE419A41924F0A3
:106834007F442D4BC3F84045D3F804355B1B23F04C
:106844007F430333641B24F07F44A3420FD9264BB8
:10685400D3F80425C3F84025264B4FF43C6043F09D
:1068640001039847244B4FF40032C3F80021234B13
:1068740000221A7003B0BDE8F08F03F1804303F5E2
:1068840088334FF48032C3F84423C3F804231A4AEC
:106894004FF40031C2F8801111604FF00108C3F8C1
:1068A4000080144B4FF43C6043EA08039847104BB4
:1068B40083F80080B7E7FFF7B7FDD8E7B0453FF4AA
:1068C400FEAE3168F369C8F81C3013B11A680A4483
:1068D4001A60044B1B689F4218BF4FF00109002344
:1068E400237419E7D485002000100140D0850020CE
:1068F400C18500203000030000E100E0C0850020D5
:1069040008B5FFF791FD114B0020187058700B2249
:106914009A700F4B18600F4B18700F4B18700F4B79
:106924004FF48012C3F88021C02183F814131A6035
:1069340002F18042A2F56F22C2F8080583F8111310
:10694400D2F80425064B1A6008BD00BFB4840020A9
:10695400D4850020CC850020CD85002000E100E016
:10696400D0850020094B9B783BB142B148B1036804
:10697400187C40B959745A61704708207047072041
:106984007047072070470820704700BFB484002078
:10699400244B9B78002B36D0002836D0042936D9D6
:1069A4004369002B35D0F0B583B016460D46044636
:1069B400437C012B0CBF0F46002700238DF80730C2
:1069C4000DF1070000F04AF80DF10600FFF754FD41
:1069D40008B3012202704460134AD2F8042582608D
:1069E400C560076146619DF806200E4B5A709DF8FC
:1069F400070000F05FF80D4B4FF48012C3F800213C
:106A0400002003B0F0BD082070470820704707201D
:106A14007047082070479DF8070000F04BF80420E9
:106A2400EFE700BFB48400200010014000E100E063
:106A340008B5094B9B7843B148B143694BB1002376
:106A440003740221FFF732FD08BD0820FCE708208B
:106A5400FAE70820F8E700BFB4840020EFF31082BF
:106A640072B6114B9B68C3B930B40F4901238B60D4
:106A74000E4BD3F880400E4D2C400C60C3F8805070
:106A8400D3F884404C604FF0FF31C3F884100023E6
:106A9400037002B962B630BC7047012303700AB9AF
:106AA40062B67047704700BFD885002000E100E05F
:106AB400FC06FFBD084B9B686BB160B9EFF3108116
:106AC40072B6054B1868054A106058685060002279
:106AD4009A6001B962B67047D885002000E100E0F1
:106AE40008B501F01F024B090121914000EB83001E
:106AF40003F05CFB08BD08B501F01F0301229A40B6
:106B04004B09D14300EB830003F05BFB08BD4B0949
:106B140050F8230001F01F01C84000F00100704745
:106B2400C8B110B4044643688268D21AD2B201686C
:106B34000B60531EDBB242B121680A68501C086026
:106B44001370013BDBB2FF2BF6D1236800201871D0
:106B54005DF8044B70470E20704730B583B004468F
:106B640000238DF807300DF10700FFF777FF226847
:106B7400136861688B4217D9591E116013F8015CC0
:106B8400228AE36802FB05352268A36811685B1A50
:106B9400DBB21179994200D213719DF80700FFF717
:106BA40089FF284603B030BD0025F6E730B583B031
:106BB40005460C4600238DF807300DF10700FFF75A
:106BC4004DFF2A681368591C1160EA68A41A2A8ABE
:106BD400B4FBF2F41C709DF80700FFF76BFF03B0E1
:106BE40030BD41DF7047000010B50024054B1C7018
:106BF400054B1C60BFF35F8F0449054800F032F871
:106C0400204610BDEC850020F085002038000300EC
:106C1400E485002000B583B000238DF807300DF122
:106C24000700FFF71BFFF1EE103A23F09F03E1EE9C
:106C3400103ABFF35F8F0A4B4022C3F884219DF8BA
:106C44000700FFF737FF07F0CBF828B920BF40BF94
:106C540020BF03B05DF804FBFFF7C3FFF9E700BFF3
:106C640000E100E001600B6843604A68934204BF9E
:106C7400002343607047436843B1026891680B4442
:106C840043605268934204BF0023436070470B463D
:106C940051B15AB1511E11420AD1036081800023BF
:106CA4008360C360184670470E2070470920704700
:106CB4000920704710B48468C36882881B1B9A42F9
:106CC40003D204205DF8044B7047C3681A4003687C
:106CD4009954C3680133C3600020F3E78268C36832
:106CE4009A420AD08268838813400268D35C0B708E
:106CF4008368013383600020704705207047036870
:106D04001A685B6881688B4234BF581C0020824239
:106D140014BF002001207047F0B583B004460E462E
:106D240000238DF807300DF10700FFF797FE20468A
:106D3400FFF7E5FF002852D0237CCBB923685868BD
:106D44005A68A1688A4253D300225A6022681368A1
:106D5400A1688B4234BF013300231360E5686B1EC6
:106D6400072B31D8DFE803F0061E302330303028FB
:106D7400042410E0327863681A5422681368516856
:106D84008B4282BFA06801300918CB1A91689942DE
:106D940038BF936000249DF80700FFF78BFE204660
:106DA40003B0F0BD3288636823F81020E5E7326849
:106DB400636843F82020E0E7D6E90067636803EBE3
:106DC400C000C0E90067D8E763682A46314600FB83
:106DD400053008F08DFCD0E700225A60BEE7236836
:106DE40058685A68A1688A42F6D201325A60B5E7F7
:106DF40001325A60AAE7036818685B68984214BFB6
:106E040000200120704770B582B004460D46164636
:106E140000238DF807300DF10700FFF71FFE204611
:106E2400FFF7E9FF002836D12368196836B91A68D4
:106E3400A068824234BF013200221A60E068431E17
:106E4400072B1FD8DFE803F004091E0F1E1E1E15B2
:106E540063685B5C2B7000241EE0636833F81130B8
:106E64002B80002418E0636853F821302B60002441
:106E740012E0636803EBC101D1E90023C5E90023F3
:106E8400002409E06368024601FB0031284608F04B
:106E94002FFC002400E005249DF80700FFF70AFEFC
:106EA400204602B070BD000000B583B00378012B0A
:106EB40007D05AB2002A55D0022B39D003B05DF85E
:106EC40004FB436819783648FFF7F4FE90B10122B9
:106ED4008DF800200190334B1B6868469847304A70
:106EE4009168D36892885B1A9A4210D22E4B012281
:106EF4001A70E3E72A4B9A68DB689A42EFD00023C2
:106F04008DF80030274B1B6868469847E7E7274B06
:106F14001B78274AD35C2BB101222649264801F06D
:106F240061FFCBE701222349244801F0C9FCC5E7EE
:106F340002238DF80030C36801931C4B1B781C4A54
:106F4400D35C4BB101221B491B4801F04BFF154B8D
:106F54001B6868469847B1E701221649174801F0B3
:106F6400AFFCF4E716491748FFF7B8FE38B103231E
:106F74008DF800300B4B1B68684698479EE70B4B17
:106F84001B780B4AD35C2BB101220D490A4801F04E
:106F9400CBFE93E701220A49084801F029FC8DE75A
:106FA400F8850020F4850020088600206073002006
:106FB400B88600201C860020647300206C730020B7
:106FC400208600200C860020F0B589B02E4C22606B
:106FD400002957D00C461F4605468A8809682B4865
:106FE400FFF755FE024610B1104609B0F0BDA28964
:106FF400A1682748FFF74BFE02460028F4D16C46EF
:10700400244E0FCE0FC496E80F0084E80F006B697E
:1070140006932B7C003318BF01238DF814308DF8B0
:107024001C706B7C002B14BF0E2300238DF81530CD
:10703400EB680293AB6803932B6801936B6800932E
:10704400154A6946154800F0FFFF02460028CBD1D7
:10705400134B002119702B68B3F1FF3FC4D00F4BC1
:107064001B78104AD35C33B101220F490F4801F059
:10707400B9FE0246B8E701220B490D4801F020FC95
:107084000246B1E70722AFE7F4850020F885002027
:107094000C86002044000300AD6E020060730020E3
:1070A40008860020B88600201C8600206473002017
:1070B4006C73002038B5114B1D7801461048FFF75A
:1070C4000DFE04460DB9204638BD0C4B00221A7043
:1070D4000C4B1B780C4AD35C4BB101220B490C4876
:1070E40001F080FE0028EED0FFF776F9EBE70122ED
:1070F4000649084801F0E4FBF4E700BF08860020D5
:10710400F885002060730020B88600201C860020CB
:10711400647300206C73002010B501461648FFF715
:10712400C9FD044608B1204610BD144B1B78144A0F
:10713400D35CB3B1134801F047FE0028F3D11249E0
:107144000D48FFF7CBFD0028EDD10C4B1B780C4A02
:10715400D35C53B101220C490A4801F0E5FD044611
:10716400E1E70A4801F0A0FBE7E7012206490748E6
:1071740001F03EFB0446D6E70C8600206073002035
:10718400B886002064730020208600206C730020E1
:1071940008B503681A6812682AB108461A681B6899
:1071A4001B685168984708BDF0B587B00468237E12
:1071B400DBB222684FEAC30C956805EB0C025179E7
:1071C4004E0855F833501779927912F0010F12D006
:1071D40011F0010F0FD1D4F800E001339EF80CE058
:1071E400734508DA23680CF1080C9B6863445B79E7
:1071F400B6EB530F16D001F0010C520102F020023D
:1072040000231946047D64B38DF804C08DF805602D
:10721400029703910495059301A90C3002F054FEE2
:1072240007B0F0BD23689B6803EB0C0253F80C30E5
:10723400117992F805C00CF0010CBCF1000F14BFD9
:107244004FF0020C4FF0030C9279520102F020022D
:1072540094F818E00EF1010E5FFA8EFE84F818E03F
:10726400D0E78DF804C08DF805600297039104956A
:10727400059301A90C3003F0D3FBD1E72DE9F043CA
:1072840083B004460F4605680026DFF8B88045E061
:10729400324629466068FFF7B6FD20B300232B6011
:1072A40048E02F1D29E004F10809237D8BB104F186
:1072B4000C0002F0B9FD234642463946484602F026
:1072C400D3FF237D53B104F10C0002F081FD6F6103
:1072D4001AE004F10C0003F051FBECE704F10C009C
:1072E40003F020FBF3E79DF80700FFF7E3FB2B68AF
:1072F4001B69002BD5D02B681F6910223946686999
:1073040007F0CAFE0028CED12E762046FFF74CFFA8
:10731400014698B12046FFF73BFF01278DF807602F
:107324000DF10700FFF79AFB002FB1D123681B680A
:10733400002BADD09DF80700FFF7BCFB03B0BDE800
:10734400F08300BF4D73020010B50C460378C3B937
:107354000A68137E0133DBB21168097B994208D8AD
:1073640000212046FFF714FF01212046FFF786FF86
:1073740010BD13762046FFF717FF01460028F0D111
:10738400F6E70321EDE70000F8B504460E46034690
:107394000F4A083002F068FF074608B13846F8BDC6
:1073A400237D83B104F10C0002F012FD2368002256
:1073B4001A602568043596E80F0085E80F002368F5
:1073C4001A1D5A61EAE704F10C0003F0ABFAEDE789
:1073D4004D73020010B50446037D33B10C3002F046
:1073E40023FD236800221A6010BD0C3003F0C6FA96
:1073F400F7E730B583B00446019101A94068FFF76F
:107404008BFC054610B1284603B030BD0021204650
:10741400FFF734FFF7E710B50C468B6A0BB1C96868
:107424009847E36A21465868FFF7C0FB10BD08B5CA
:10743400CB6A5868FFF7BAFB08BD08B54068FFF788
:107444006FFB08BD2DE9F04106460D4617469846E8
:107454004068FFF782FB68B30446C662C0F8288020
:10746400077060600123037205FA03F141728372AD
:10747400069AC2609DF81C200274194341748374F7
:1074840000F114010023CB600B610B4B4361A0613D
:10749400031DC361022380F820303068FFF7A9FF81
:1074A400054610B92846BDE8F08121467068FFF70B
:1074B4007DFBF7E70425F5E71B7402002DE9F8438B
:1074C40005460E4690461F469DF820904068FFF7FB
:1074D40044FB98B30446C562C0F810800775760073
:1074E400467500238375B9F1000F06D0102F1AD802
:1074F4003A46414608F0FCF8246104F118010023DF
:10750400CB600B610E4BA361E46104F110032362B1
:10751400012384F824302868FFF76BFF064640B93E
:107524003046BDE8F88301466868FFF73FFB09264B
:10753400F6E721466868FFF739FBF1E70426EFE731
:107544003374020070B586B09DF828400F2C14D80F
:107554000E4605468DF80820224619460DF109000D
:1075640008F0C6F8631C01220092DBB202AA31467D
:107574002846FFF7A3FF06B070BD0920FBE7000013
:107584004FF080430022C3F80C21C3F81021C3F844
:1075940038254FF08052D2F8041403F54043C3F861
:1075A4002015D2F80814C3F82415D2F80C14C3F823
:1075B4002815D2F81014C3F82C15D2F81414C3F8F3
:1075C4003015D2F81814C3F83415D2F81C14C3F8C3
:1075D4004015D2F82014C3F84415D2F82414C3F883
:1075E4004815D2F82814C3F84C15D2F82C14C3F853
:1075F4005015D2F83014C3F85415D2F83414C3F823
:107604006015D2F83814C3F86415D2F83C14C3F8E2
:107614006815D2F84014C3F86C15D2F84424C3F8A2
:107624007025474B1B68082B27D04FF08043D3F8B5
:10763400003413F0010F05D04FF080436FF00102C6
:10764400C3F800243F4AD2F8883043F47003C2F8E8
:107654008830BFF34F8FBFF36F8F4FF01023D3F8F1
:107664000032002B39DB4FF01023D3F80432002B07
:1076740033DB354B354A1A607047354B1B6833B9D9
:10768400344B354A1A602E4B1B68082BCDD1304B36
:107694001B683BB9314BFB22C3F81825284B1B68E8
:1076A400082BC2D12A4B1B68002BBED12C490A6877
:1076B4002C4B1B6803F00F0322F00F0213430B60E3
:1076C4001F4B1B68082BB0D1214B1B68002BACD17E
:1076D400254B4FF400721A60A7E7244B0122C3F82C
:1076E40004251A46D2F80034002BFBD04FF01023A7
:1076F4001222C3F800221D4AD2F80034002BFBD01A
:107704004FF010231222C3F80422184AD2F800348E
:10771400002BFBD0154B0022C3F804251A46D2F8DF
:107724000034002BFBD0BFF34F8F0649CA6802F424
:10773400E0620F4B1343CB60BFF34F8F00BFFDE7F5
:107744003001001000ED00E0747300200090D003BD
:10775400340100108C5600404881030000F00040C2
:10776400E40E0040580200104096024000E0014040
:107774000400FA0501EB410100EB4101885C003093
:1077840018BF0120704701EB410100EB41010123C7
:107794008B54704700F11802002303704370837008
:1077A400C3700371437106309042F6D170470000F4
:1077B4004FF080430122C3F818250021C3F80411B7
:1077C4009A601A46D2F80431002BFBD00C4B40F6D9
:1077D400FF72C3F808254FF48032C3F84423C3F87A
:1077E4000423084A1268D200C3F84C2501221A6007
:1077F400054BC02283F8242310225A60704700BF2F
:10780400004002407873002000E100E010B40A4B0D
:1078140018600A4B19600A4BD3F8044509480268FA
:1078240002EBD402026001229A60C900C3F8401539
:107834005DF8044B704700BF3C860020787300203D
:10784400004002404886002010B5154CA0F26C7030
:1078540060612161E260A360029B6360039B23601B
:10786400204607F07DFE0F4B01229A600E4B1A68EA
:1078740082B1831A07EE103AB8EEC77A0B4B1B6835
:107884009B1A07EE903AF8EEE77AC7EE276A084BA0
:10789400C3ED006A044B1860044B186010BD00BFB0
:1078A4007086002000400240448600204886002064
:1078B4004086002070B582B00B4BD3F804250B4BE7
:1078C4001B6803EBD203019301A807F007FF084EDE
:1078D400344605460FCD0FC40FCD0FC42B6823606B
:1078E400304602B070BD00BF004002404886002010
:1078F4004C86002070B582B0194B93ED007AB5EE3A
:10790400407AF1EE10FA28D0164BD3F80415164B32
:107914001B68164A126802EBD102D21A07EE902AAB
:10792400F8EEE77A67EE877AB6EE007A77EE877A32
:10793400FDEEE77A17EE902A1A44019201A807F0A7
:10794400CDFE0B4E344605460FCD0FC40FCD0FC4EC
:107954002B682360304602B070BDFFF7ABFFFAE737
:1079640040860020004002404486002048860020D3
:107974004C86002008B50A4BD3F840317BB1084B44
:107984000022C3F8402101229A60064A136806497E
:1079940009680B441360054B1B6803B1984708BD85
:1079A4000040024048860020787300203C86002076
:1079B400F0B583B0044607F0F7FE8000374B83FB35
:1079C4000023A3EBE070043007F0C4FA2378002509
:1079D400002B55D08DF8043000250122304E2F465F
:1079E40000E01A4614F8011F61B3531CDBB20DF119
:1079F400080C624402F8041C032BF2D19DF8042005
:107A04009308F35C43559DF80530120102F03002EF
:107A140006EB13118A5C00EB050C8CF801209DF831
:107A24000620E91C9B0003F03C0306EB921E1EF8A3
:107A340003308CF8023002F03F02B25C4254043549
:107A44003B46CEE7E2B19DF804306E1C9908144C15
:107A5400615C4155012A17D09DF8052010491B018E
:107A640003F0300301EB1214E35C8355EB1C92002A
:107A740002F03C028A5C0544AA705D1C3D22C2549B
:107A84000023435503B0F0BD1B0103F03003E35C56
:107A94008355EB1C05443D22AA70EEE75655555517
:107AA4007C73002010B544688068A04710BD10B5F1
:107AB40004688068A04710BD07EE900AB8EEE70A94
:107AC400DFED027A20EE270A704700BF23DB793D01
:107AD40030B583B005460C46012301AA2021FFF7E7
:107AE400E1FF034610B1184603B030BDA2089DF86B
:107AF400043062F3830364F301038DF8043001233B
:107B040001AA20212846FFF7D2FF03460028EAD124
:107B140001236A4625212846FFF7C4FF03460028AF
:107B2400E1D124099DF8003064F382038DF800301C
:107B340001236A4625212846FFF7B9FF0346D2E709
:107B440030B583B005460C46012301AA2021FFF776
:107B5400A9FF034610B1184603B030BD9DF80430A8
:107B640064F307138DF80430012301AA2021284669
:107B7400FFF79DFF03460028EDD101236A46222129
:107B84002846FFF78FFF03460028E4D124099DF817
:107B9400003064F301038DF8003001236A4622218A
:107BA4002846FFF784FF0346D5E730B583B0044683
:107BB4000D46012301AA2121FFF774FF034610B1EA
:107BC400184603B030BD9DF8043065F3C3038DF847
:107BD4000430012301AA21212046FFF768FF034650
:107BE400EEE730B583B004460D46012301AA2521F2
:107BF400FFF758FF034610B1184603B030BD9DF897
:107C0400043065F305138DF80430012301AA2521FE
:107C14002046FFF74CFF0346EEE710B582B00C4652
:107C2400012301AA2721FFF73DFF9DF80430C3F388
:107C34000003237002B010BD08B506230A462821AC
:107C4400FFF730FF08BD08B501230A460F21FFF7EF
:107C540029FF08BD30B583B004460D46012301AAAF
:107C64002121FFF71FFF034610B1184603B030BDB2
:107C74009DF8043065F386138DF80430012301AABE
:107C840021212046FFF713FF0346EEE710B582B02B
:107C94000C46012301AA2121FFF704FF9DF80430BB
:107CA400C3F38013237002B010BD30B583B0044613
:107CB4000D46012301AA2521FFF7F4FE034610B166
:107CC400184603B030BD2B099DF8042063F3C302AA
:107CD4008DF80420012301AA25212046FFF7E7FEA1
:107CE40003460028ECD101236A463F212046FFF7D2
:107CF400D9FE03460028E3D19DF8003065F3041350
:107D04008DF8003001236A463F212046FFF7CFFE5D
:107D14000346D5E730B583B004460D46012301AAD6
:107D24002521FFF7BFFE034610B1184603B030BD4E
:107D34009DF8043065F387138DF80430012301AAFC
:107D440025212046FFF7B3FE0346EEE7084B1B5CF4
:107D54001A461F2B86BF03F01F02064B4FF0A043A9
:107D6400D3F80405D04080F0010000F00100704712
:107D74006800030000030050074B1A5C11461F2AD9
:107D840086BF02F01F01054A4FF0A04201238B4039
:107D9400C2F80C35704700BF6800030000030050B0
:107DA400074B1A5C11461F2A86BF02F01F01054AC1
:107DB4004FF0A04201238B40C2F80835704700BF42
:107DC400680003000003005008B50020FFF7E8FF37
:107DD4000120FFF7E5FF0220FFF7E2FF0320FFF792
:107DE400DFFF08BD08B50020FFF7C6FF0120FFF73D
:107DF400C3FF0220FFF7C0FF0320FFF7BDFF08BD4C
:107E04000A4B195C08461F2986BF01F01F00084968
:107E14004FF0A041D1F804350122824022EA030048
:107E2400C1F808051340C1F80C3570476800030019
:107E340000030050014B185C704700BF640003004E
:107E440010B5044610F0010F03D114F0020F0ED147
:107E540010BD4FF0A0430322C3F83427C3F83827DA
:107E6400C3F83C27C3F84027FFF7AEFFEDE74FF018
:107E7400A0430C22C3F82C27C3F83027C3F860278B
:107E8400C3F86427E4E7000038B538B1012813D1FA
:107E94000E4B01229A701C46154613E00B4B01222F
:107EA4005A701C46002504E01A68A2605B682846E4
:107EB4009847A368002BF7D138BD1A6822615B6824
:107EC400284698472369002BF7D1F5E794860020CC
:107ED40000B1704738B5074B01225A701C46002583
:107EE40004E01A68A2605B6828469847A368002BE0
:107EF400F7D138BD9486002010B50D4B1B7813B113
:107F04008524204610BD0A4B00229A605A601A61EB
:107F1400DA60084800F0D6F8044605F061FF18B1AD
:107F2400034B01221A70ECE700F0DAF8F8E700BF1F
:107F3400948600208D7E020000B583B000238DF866
:107F440007300DF10700FEF789FD094BDA68013AA5
:107F5400DA60DB6833B19DF80700FEF7ABFD03B0D0
:107F64005DF804FB00F0D0F8014B00229A70F2E7B0
:107F74009486002000B583B001280BD043B223B10E
:107F840003281FD003B05DF804FB114B0122C3F892
:107F94008020F7E700238DF807300DF10700FEF786
:107FA4005DFD0C4B1B7853B10A4BDA680132DA6081
:107FB40001229A709DF80700FEF77CFDE2E7FFF7C7
:107FC4009BFFF1E700F08CF8FFF7B6FFDAE700BF9C
:107FD40000E100E09486002000B585B003788DF8B8
:107FE40000304368019383688DF80830C3680393B5
:107FF400054B53F82130054A52F82110684698473A
:1080040005B05DF804FB00BFB0860020A886002000
:1080140000B585B003788DF8003043680193836818
:108024008DF80830C3680393054B53F82130054A93
:1080340052F821106846984705B05DF804FB00BF6C
:10804400B0860020A8860020F0B589B00746944683
:108054000678174B43F826200A69164B43F8262066
:10806400DFF85CE04B7F0EF806306D460C460FCC13
:108074000FC594E80F0085E80F0004963B781EF8BE
:10808400033053B1BCF1000F0B4A08BF6246694686
:10809400381D00F04BFD09B0F0BDBCF1000F074ADC
:1080A40008BF6246694607F10C0000F0B3FAF2E734
:1080B400B0860020A8860020DD7F02001580020023
:1080C400B8860020054B1B7933B9044B1860012294
:1080D4001A7100205871704785207047BC860020B3
:1080E400084B1B6813F0010F05D1064BC02283F81F
:1080F400002301221A604FF080430122C3F818259F
:10810400704700BF00E100E0054B01221A604FF008
:108114008042D2F8183413F4803FFAD1704700BF7C
:108124000C00004000B583B0154B1B6893B1144B91
:1081340000221A601B680093009B4FF080430122C9
:10814400C3F808230F4B5B7923B90E4B5A711B6894
:10815400002098470C4B1B6873B10B4B00221A602C
:108164001B680193019B4FF080430222C3F808234C
:10817400044B1B680120984703B05DF804FB00BF63
:1081840000010040BC860020040100402DE9F04FAE
:108194008DB000250A950B95744B0122744E2F4621
:1081A400744C03E052000433A3420CD01968012933
:1081B400F8D1D6F804131142F4D01F601968029163
:1081C40002991543EEE76C4B1B68012B07D015F0A1
:1081D400FF0F18D1002D33DB0DB0BDE8F08F664BD7
:1081E40000221A601B680393039B4FF0A043D3F84B
:1081F40010350A93614BD3F810350B9315F0FF0F2C
:108204001ED045F00045012600245D4F03E07600B2
:108214000134082CDED03542F9D0A30003F18043A9
:1082240003F5C043D3F81005D3F8101557F82430DC
:10823400002BECD0C1F30141C0F305209847E6E7D9
:108244000023049305934FF0FF33069307934C4D9B
:1082540005F16406DFF82491CDF8049005F160047B
:108264004FF0000801270FE003290BD10DF1100B8B
:108274001BF80CE04EEA020E0BF80CE024E0BEF111
:10828400030F5ED0A64242D014F9013BB3F1FF3F85
:10829400F8D0DBB223F0C0004FEAD00C03F00702A1
:1082A40007FA02F20CA9614411F8181C1142E9D032
:1082B400990905EB000E9EF930E055F82EA0BAF1AD
:1082C400000FD1D00329D1D01F2887BF03F01F038B
:1082D400DDF804E003464FF0A04E0EEB8303D3F821
:1082E40000E7CEF3014E0DF1300BDC441CF808CC52
:1082F4001CEA020FC3D0BEF1020FC3D1032904D07C
:10830400BAF1000FBED0D047BCE78C461DE0B8F1EF
:10831400000F3FF461AF4FF0A043D3F8102508924B
:10832400D9F8103509930A99914203D10B999942CE
:108334003FF452AF0A92049A06920B93059B07935B
:108344008CE70329DCD14FF0020CD3F8002722F488
:108354004032C3F80027D3F8002742EA0C42C3F89E
:10836400002708F101085FFA88F8C9E700610040B6
:1083740000600040206100407C6100400003005028
:10838400C486002008B5024B1B68984708BD00BF8F
:1083940030870020114B984217D110B582B00C469B
:1083A40000238DF807300DF10700FEF757FB0C4B47
:1083B4001B7963B90A4B1C6001221A719DF80700EE
:1083C400FEF778FB002002B010BD002070479DF836
:1083D4000700FEF76FFB1120F5E700BF0020004007
:1083E40030870020034B984203D1034B00221A60CC
:1083F4001A717047002000403087002082B00023AB
:10840400C0F81C31D0F81C310193019B0B6A8A68B7
:10841400D25C0B6A01330B62C0F81C2502B07047B2
:1084240082B003680022C3F82421D3F824310193D5
:10843400019B0368C3F80821D3F808310093009B1B
:10844400036801221A6002B0704782B08B6983B15D
:108454000023C0F80831D0F808310193019B4B6A1E
:10846400D0F81805CA68D0544B6A01334B6202B085
:108474007047C0F80831D0F808310093009BD0F859
:108484001835F4E700B585B001238DF8003002916A
:108494000192436801686846984705B05DF804FB9B
:1084A40010B586B0594BD3F8043313F4007F2CD0A5
:1084B400564BD3F8243143B3544B0022C3F8242140
:1084C400D3F824210192019A4FF40172C3F80823CE
:1084D4004F4B93F8293013B94C4B01225A600223B5
:1084E4008DF80830494AD2F88034C2F880340593B4
:1084F400474B9A690492DA68039200229A61DA611E
:108504005A68196802A890470AE0404BD3F804332C
:1085140013F0040F04D03D4BD3F80831002B30D1B5
:108524003A4BD3F81C319BB1394B1A6A5B699A42B6
:1085340004D2374A92F82820002A4DD0334A002129
:10854400C2F81C11D2F81C210092009A002B48D1C9
:108554002E4BD3F8443193B12C4B0022C3F8442161
:10856400D3F844310293029B294B93F8293013B179
:10857400264B01221A60264B9B69002B3ED106B084
:1085840010BD234C21462148FFF75FFF636AA269AF
:108594009A42C5D1E3699BB91D4B93F8293013B9AD
:1085A4001A4B01225A60194B4FF40172C3F8082385
:1085B400174800238361416AC268FFF763FFAFE78E
:1085C4002046E268616AA3612369E3600023E361F2
:1085D4006362FFF757FFA3E70D490C48FFF70EFF4F
:1085E400B6E70A468DF808100493094B996803917D
:1085F4005A615A68196802A89047A9E704480023F9
:108604008361416AC268FFF73DFFB8E7002000407C
:1086140038870020F0B583B006796F4D2C2303FB17
:10862400065393F82A30002B40F0D28017460C46AC
:1086340005466A490068FFF7ADFE0246002840F08F
:10864400C9802368B3F1FF3F18D01F2B86BF03F006
:108654001F0363484FF0A040012101FA03F3C0F85F
:10866400083523681F2B86BF03F01F035C494FF0B6
:10867400A04103F5E073032041F823006368B3F1DC
:10868400FF3F0BD01F2B86BF03F01F0354494FF04D
:10869400A04103F5E073002041F823002B68A16991
:1086A400C3F824152968637D207D0343C1F86C3524
:1086B4002B6821686068C3F81405C3F80C15237D82
:1086C400012B49D044492C2303FB06F3C818476007
:1086D4002069C85067B3237F29680020C1F81C01B2
:1086E400D1F81C11009100992968C1F84401D1F80E
:1086F40044110191019929683A48C1F80403296891
:10870400090B48B200285CDB5B01DBB200F160407E
:1087140000F5614080F800332B681B0B59B24909FE
:1087240003F01F03012000FA03F32F4840F821301F
:108734002B680421C3F80015274B2C2101FB0633B9
:1087440000219961D96183F829105961012183F8C5
:108754002A10104603B0F0BDA368B3F1FF3F0BD05D
:108764001F2B86BF03F01F031D484FF0A04003F5E5
:10877400E073002140F82310E368B3F1FF3F18D001
:108784001F2B86BF03F01F0315484FF0A0400121A3
:1087940001FA03F3C0F80835E3681F2B86BF03F022
:1087A4001F030F484FF0A04003F5E073032140F886
:1087B40023102B68E068A168C3F80805C3F81015F6
:1087C40080E701F00F015B01DBB208484354A3E7E3
:1087D4000822BEE71122BCE738870020A5840200E6
:1087E400000300508000020000E100E014ED00E00E
:1087F4002DE9F04383B006792A4C2C2303FB06436E
:108804005F69002F4BD1054623462C2404FB06390F
:10881400C9F81420C9F808100023C9F8203089F8D1
:1088240028300268C2F81C31D2F81C310193019B34
:10883400036801229A6049460068FFF7DFFDD9F812
:1088440004301BB1384603B0BDE8F0832C68D9F876
:108854002020D9F814309A4219D2C846D4F81C31D1
:108864005BB998F82830002BF8D00F270D4A2C2339
:1088740003FB062600237361E4E749462046FFF71D
:10888400BDFDD8F82020D8F814309A42E6D32A68DF
:10889400D2F81C31002BFBD00123D360E6E711276B
:1088A400D0E700BF388700200379044A2C2101FB5C
:1088B40003235869003018BF01207047388700200F
:1088C4002DE9F04182B0064605792F4647482C230E
:1088D40003FB0503586820B133684FF40174C3F8EF
:1088E4000843424C2C2303FB05439B691BB32C23F5
:1088F40003FB0543DB69ABB93C482C2303FB0503AD
:108904001961DA61394A2C2303FB05235B681BB325
:1089140033684FF40172C3F804230024204602B0E4
:10892400BDE8F081002848D033684FF40172C3F8E1
:1089340004231124F2E72D482C2303FB05039A6139
:10894400D96000225A62DA6193F82930002BD9D118
:108954003046FFF765FDD5E733680022C3F84421AC
:10896400D3F844310193019B204B4FF02C0808FBB2
:1089740005382C2202FB073708E093B96CBB41464B
:10898400FFF763FD7B6ABA699A4218D93068D0F858
:108994002431D0F80821D0F844412243EDD1002BF2
:1089A400F4D0124A2C2303FB05250023AB610324D6
:1089B400B4E7336801221A60B0E71124AEE70B4A2A
:1089C4002C2303FB05250023AB6195F82930002BEC
:1089D400EFD1336801225A60A0E7044B2C2202FB3A
:1089E40005350023AB610F2498E700BF38870020CA
:1089F40000B585B001238DF80030029101924368DF
:108A040001686846984705B05DF804FB30B589B045
:108A1400444BD3F82431002B3DD0424B0022C3F801
:108A24002421D3F824110291029902218DF8101007
:108A3400D3F88014C3F880140791D3F83C35069317
:108A4400394BD96805919A61DA615A68196804A8A2
:108A54009047344BD3F844315BB1324B0022C3F816
:108A64004421D3F844310193019B2F4B9B69002B84
:108A74003FD12C4BD3F820315BB12A4B0022C3F8F1
:108A84002021D3F820310093009B274B5B69002BF6
:108A940039D109B030BD234BD3F81031002BD8D0D5
:108AA400204B0022C3F81021D3F810210392039A1B
:108AB400D3F83C151C4B9B699942CAD11A4BDB690C
:108AC40083B11948C268174DD5F8004224F0200438
:108AD400C5F8004283610369C3600023C361FFF7E3
:108AE40087FFB6E7104800238361C268FFF780FF61
:108AF400AFE70D488261C2610A4BD3F83C15C268E6
:108B0400FFF776FFB5E7074BD3F84C358DF8102007
:108B14000693054B996805915A615A68196804A827
:108B24009047B6E70020004064870020F0B585B088
:108B3400067906EBC604764B03EB840393F82030E6
:108B4400002B40F0E18017460D4604467149006849
:108B5400FFF720FC0246002840F0D8802B68B3F1D0
:108B6400FF3F18D01F2B86BF03F01F036A484FF046
:108B7400A040012101FA03F3C0F808352B681F2B2C
:108B840086BF03F01F0364494FF0A04103F5E0736F
:108B9400032041F823006B68B3F1FF3F0BD01F2B78
:108BA40086BF03F01F035C494FF0A04103F5E07357
:108BB400002041F823002368A969C3F8241521681B
:108BC4006B7D287D0343C1F86C3523682868696888
:108BD400C3F80C05C3F814152B7D012B58D04C4950
:108BE40006EBC6039B00C81847602869C850002FCD
:108BF4003AD02B7F20680021C0F81011D0F8100162
:108C0400009000982068C0F82011D0F8200101904D
:108C140001982068C0F82411D0F824010290029829
:108C24002068C0F84411D0F84411039103992168D5
:108C34003A48C1F804032168090B48B200285CDBF8
:108C44005B01DBB200F1604000F5614080F8003365
:108C540023681B0B59B2490903F01F03012000FAD2
:108C640003F32F4840F8213023680821C3F8001586
:108C74002749F000831901EB830300249C61DC6124
:108C84005C611946012381F82030104605B0F0BD1F
:108C9400AB68B3F1FF3F0BD01F2B86BF03F01F035C
:108CA4001D484FF0A04003F5E073002140F8231065
:108CB400EB68B3F1FF3F18D01F2B86BF03F01F03EF
:108CC40015484FF0A040012101FA03F3C0F808351C
:108CD400EB681F2B86BF03F01F030F484FF0A04023
:108CE40003F5E073032140F823102368E868A968BA
:108CF400C3F80805C3F8101571E701F00F015B0113
:108D0400DBB208484354A3E70822BEE71122BCE7BC
:108D140064870020118A020000030050100302003F
:108D240000E100E014ED00E001F06043B3F1005F06
:108D340002D010231846704770B483B0047904EB52
:108D4400C405204B03EB85035B69002B37D11D4E13
:108D540006EB85056A61A96002680026C2F82061F5
:108D6400D2F820210192019A0268C2F85861D2F81F
:108D740058210092009A02686E69C2F84415C2F83C
:108D840048650268012191606A681AB1184603B007
:108D940070BC70470268D2F82011D2F8583119B962
:108DA400002BF8D00F2302E0002B18BF0F2304EB95
:108DB400C404044A02EB840400226261E6E711233E
:108DC400E4E700BF64870020037903EBC303044A8C
:108DD40002EB83035869003018BF0120704700BFBD
:108DE4006487002001F06043B3F1005F40F09B8092
:108DF40070B483B0037903EBC305514C04EB8504D1
:108E0400666826B104684FF40475C4F8085303EB8C
:108E1400C3044B4D05EB8404A469002C31D003EB4F
:108E2400C30405EB8404E46914BB454CDD00EE186F
:108E340004EB86063161F26103680024C3F8104133
:108E4400D3F810310193019B0368C3F84441D3F86C
:108E540044310093009B0368C3F83415C3F83825E4
:108E64000268D2F8003243F02003C2F8003227E04F
:108E7400002E5AD003684FF40472C3F8042311205F
:108E84002CE02F4CDD00EE1804EB8606B261F16095
:108E94000023F3610468C4F81031D4F8104101943C
:108EA400019C0468C4F84431D4F844310093009B15
:108EB4000368C3F83415C3F83825036801221A601F
:108EC400047904EBC4021E4B03EB82035B6843B1D9
:108ED40003684FF40472C3F80423002003B070BC89
:108EE40070470368D3F81021D3F84411D3F8240150
:108EF4005AB9E1B90028F5D004EBC404104B03EBD4
:108F040084040023A3610320E8E704EBC4040C4BAE
:108F140003EB84040023A361984218BF0320994201
:108F240018BF0F20DAE7102070471120D6E704EBB2
:108F3400C404034B03EB84040023A3610F20CDE797
:108F440064870020F0B589B0714B1B68002B00F0DA
:108F5400A4806F4B00221A601B680093009B6D4B2A
:108F640093F82E30002B7BD06A4B93F82F30002BD4
:108F740040F0B880684B1B68002B00F09480664B6F
:108F840000221A601B680193019B624A538B92F87A
:108F94002D108AB293421BD99B1A9BB25D4843831E
:108FA4000289D21A436803EB42035C4AC2F82C36A6
:108FB400C2F83016564B00221A601B680293029BBB
:108FC400574B01221A606EE0524B00221A745DE086
:108FD4009342EFD14F4BDB685BB14E4A012082F8DC
:108FE4002F00002050834D4AC2F82C36C2F83016A8
:108FF400E0E7484B012283F82F2000225A83D9E767
:10900400444B5C69002C6BD04FF0004500271E4692
:1090140001E0002C64D0B4FA84F325FA03F224EAC4
:10902400020446339B0003F1804202F5E0421168DA
:109034000029EED0176012680492049A01228DF878
:109044001420A3F58C73DA088DF8182083F0040338
:10905400C3F380038DF81930336805A89847D8E71F
:1090640000238DF814302B4B5A6806921A89ADF8F8
:109074001C20DA68002AA7D0264B198B59835A6022
:1090840019810022DA60254B01221A60214C2368E1
:1090940005A89847002384F82F301E4B93F82E30F0
:1090A400002B7FF467AF1F4B1B686BB11D4B002275
:1090B4001A601B680393039B164B1A7402228DF8E3
:1090C40014201B6805A89847174B1B68002B97D0E2
:1090D400154A0023136012680592059A0D4A137409
:1090E40009B0F0BD00238DF814300A4B5A6806927B
:1090F4001A89ADF81C20DA68002A3FF465AF054BE5
:10910400198B59835A6019810022DA60BEE700BFC7
:109114000471004088870020007100400070004006
:10912400047000401071004014710040254B93F806
:109134002C30002B44D110B485B0224B1960027836
:109144002149C1F8F0254278C1F8F425C27883F8A2
:109154002E20012283F82C2000221A7483F82D205B
:109164005A6183F82F206FF00044C1F80843174C6C
:10917400226024680394039C154C226024680294A2
:10918400029C144C226022680192019A8278520156
:10919400D2B2114880F80723802202600222C1F86B
:1091A400042393F82E3013B10122C1F80423064B93
:1091B4000122C3F80025002005B05DF8044B704778
:1091C4000820704788870020007000400471004028
:1091D400007100401471004000E100E0274B1B7C4B
:1091E400002B48D1254B03EB40031B7F2BB9234AAB
:1091F40092F82D30013382F82D3000F10C021F4B10
:1092040003EB4203CA791A710A7A5A714B781B012B
:1092140003F030038A78120202F4E06213430A78FE
:1092240002F003021343CA78120302F48052134378
:109234000A79120402F4E02213434A79120502F473
:10924400801213438A79120602F0807213430201DA
:1092540002F1804202F5E042C2F81835CB790A7A6D
:10926400000100F1804000F5E040C0F81425C0F88A
:109274001035002070471120704700BF88870020F8
:10928400054B93F82E30002B14BF0020042000F16E
:10929400804000F5E040704788870020304B122260
:1092A400C3F808232F4B1B7CDBB2022B20D082B0E7
:1092B4002C4B1B7CDBB2012B1FD0294B0222C3F8A1
:1092C4000423284B01221A74586019810022DA60A1
:1092D40093F82E30002B34D0224B598393F82D2051
:1092E4001F4BC3F82C06C3F83026002002B0704789
:1092F4001B4BC3F80423112070471A4BDB682BB1B6
:10930400174B0222C3F804231120EFE7154BD86052
:10931400198393F82E3073B9134A1368002BFCD0C9
:10932400114B00221A601B680093009B0C4BC3F87E
:109334002C06C3F830160A4B0222C3F8042300207B
:10934400D4E7074BC3F82C06C3F83016064A0020AE
:10935400106012680192019A01221A60C6E700BFE8
:10936400007000408887002000710040044B1B7887
:1093740023B9034B01221A700020704785207047DF
:10938400B88700202DE9F04F83B082460026164DA1
:10939400B046DFF858B006E09DF80700FDF78AFBF9
:1093A4000136A5431CD0F7B28DF807800DF10700F4
:1093B400FDF754FB0124BC402C42EDD0DBF8003017
:1093C40014EA0309E8D11C43084B1C608AF80070B6
:1093D4009DF80700FDF76EFB484603B0BDE8F08F2B
:1093E4004FF00409F8E700BFFFFF0100BC8700202D
:1093F400C1B110B40C46BAB101238340C3F31001C8
:10940400A1B10C4909680B4212D0C00000F18040A0
:1094140000F5F830C0F81045C0F8142500205DF8B8
:10942400044B70470E2070470E20F8E70720F6E73C
:109434000820F4E7BC87002001238340580C400433
:1094440050B9C3F310021AB1054A1268134205D089
:10945400044AC2F804357047072070470820704753
:10946400BC87002000F0014001238340580C4004D5
:1094740050B9C3F310021AB1054A1268134205D059
:10948400044AC2F80835704707207047082070471F
:10949400BC87002000F0014070B483B0057905EB6F
:1094A4004504364B03EB84031B7A002B64D1334C05
:1094B40005EB45039B00E618E2504B687360437963
:1094C40073B100221646D3B250339B000468E650B1
:1094D400E3580193019B01324479D3B29C42F2D800
:1094E4000268120B54B2CB78002C3EDB5B01DBB27A
:1094F40004F1604404F5614484F8003303681B0BF1
:109504005CB2640903F01F03012202FA03F31C4E48
:1095140046F824300668D6F804454B7803F0030374
:1095240024F003042343C6F804350668D6F8084536
:109534008B7803F0030324F003042343C6F80835AF
:109544000468D4F810050B7803F00F0320F00F0023
:109554000343C4F8103505EB4505084B03EB8505BB
:109564002A72002003B070BC704702F00F025B0146
:10957400DBB2044CA354C1E70820F3E7C087002002
:1095840000E100E014ED00E0036801221A600379B1
:1095940003EB4303024A02EB830302221A7270476D
:1095A400C0870020036801211961037903EB430399
:1095B400024A02EB83031972704700BFC087002080
:1095C40070B483B04FF480348C409BB101F15003EC
:1095D4009B0005680026EE50EB580193019B03683D
:1095E400C3F80443036801F5A87143F8212003B0CC
:1095F40070BC70470368C3F80843F3E7F8B507681D
:10960400D7F8004240F201158D4024EA0504C7F85A
:1096140000420568D5F800422343C5F800329DF89E
:109624001830FFF7CDFFF8BD2DE9F04182B0124CA0
:109634000025DFF84C804FF48037104E0BE00022F9
:10964400226023680193019B336871689847013550
:109654000434062D0CD004F5C04080B22268002AE0
:10966400F5D0D8F8042307FA05F11142EFD0E6E764
:1096740002B0BDE8F08100BF40A10140C0870020D6
:1096840000A001401D4BD3F8183103B9704700B551
:1096940083B01A4B0022C3F81821D3F81831019370
:1096A400019B174BDB7FFF2B0ED0154A927FBAB17B
:1096B4001A461F2B86BF03F01F0212494FF0A04128
:1096C40001239340C1F80C350D4B00225A771A72CE
:1096D400184650F8082B5968904703B05DF804FB0E
:1096E4001A461F2B86BF03F01F0206494FF0A04104
:1096F40001239340C1F80835E6E700BF003002407B
:10970400CC870020000300502DE9F843057905EBD0
:10971400C5078E4E06EB8706367F002E40F00E817D
:10972400994690460C460746066889493046FEF736
:1097340031FE0246002840F00381844905EBC5034D
:109744009B00C81841F80380C0F80490237B012BC8
:1097540040F2C280217808461F2986BF01F01F000D
:109764007C494FF0A04101238340C1F8083521789A
:109774000B461F2986BF01F01F0376494FF0A04115
:1097840003F5E073012041F823006378FF2B00F018
:10979400B18019461F2B86BF03F01F03DFF8B4C145
:1097A4004FF0A04C01209840CCF80C0503F5E07371
:1097B40003204CF82300A378FF2B00F09E809C46E6
:1097C4001F2B86BF03F01F0362484FF0A04003F530
:1097D400E0734FF0040E40F823E094F802E005EB48
:1097E400C5035A4800EB830383F820E0E078D87778
:1097F400FF2828D02379002B00F0828086461F287A
:1098040086BF00F01F0E53484FF0A040012303FA17
:109814000EF3C0F80C35E07803461F2886BF00F02D
:109824001F034C484FF0A04003F5E0734FF0030EC4
:1098340040F823E094F804E005EBC503434800EB4B
:10984400830383F81EE02378C6F80835C6F80C15A0
:10985400C6F810C5A368C6F82435217B637B0033A2
:1098640018BF012302295CD003295DD0012955D0FA
:10987400C6F85435A379C6F8C035B8F1000F61D0E5
:109884004023C6F804330723C6F800353968090BAA
:1098940048B2637900284ADB5B01DBB200F1604027
:1098A40000F5614080F800333B681B0B59B249094D
:1098B40003F01F03012000FA03F3274840F8213086
:1098C400224BE900481903EB80000024447701216E
:1098D40001771046BDE8F883217808461F2986BF22
:1098E40001F01F001B494FF0A04101238340C1F840
:1098F4000C353CE74FF0FF315DE74FF0FF3C6CE780
:1099040086461F2886BF00F01F0E12484FF0A04065
:10991400012303FA0EF3C0F808357CE743F0020391
:10992400A6E743F00403A3E743F00603A0E701F02E
:109934000F015B01DBB209484354B5E70822C8E7CD
:109944001122C6E70723C6F80035B9E7CC87002003
:10995400899602000003005000E100E014ED00E0ED
:10996400F0B583B01646047904EBC402614B03EBF3
:1099740082035B7F002B40F0B98086460D46134678
:109984005C4A52F8233043B116F0140F05D104EBAE
:10999400C40302EB830301225A7704EBC407554B3B
:1099A40003EB870707F10C0C95E80F008CE80F0018
:1099B400FB7FFF2B0FD04F49BA7F002A51D01A46A4
:1099C4001F2B86BF03F01F024B494FF0A041012318
:1099D4009340C1F808352A6822B102F06043B3F11C
:1099E400005F4BD1AB6823B103F06043B3F1005F78
:1099F40044D1DEF800306968C3F84425C3F848153B
:109A0400EA68A968C3F83415C3F838250022C3F8F6
:109A14001821D3F818210192019A16F0010F14BFEE
:109A240001220022C3F8502516F0020F14BF0122B0
:109A34000022C3F8402516F0080F04BF01221A6162
:109A440004EBC4022B4951F822200AB316F0040097
:109A54004FF040021ABFC3F808230020C3F80423C0
:109A640014E01A461F2B86BF03F01F0222494FF051
:109A7400A04101239340C1F80C35ACE704EBC404C6
:109A84001C4B03EB840400236377102003B0F0BD68
:109A9400D3F81821002AFBD004EBC403154A02EBC7
:109AA4008303DB7FFF2B23D004EBC40402EB840489
:109AB400A27F6AB11A461F2B86BF03F01F020E490C
:109AC4004FF0A04101239340C1F80C350020DDE79D
:109AD4001A461F2B86BF03F01F0207494FF0A0410F
:109AE40001239340C1F808350020CFE71120CDE7CA
:109AF4000020CBE7CC8700200003005070B58CB069
:109B04004FF04023D3F824315BB14FF040230022BF
:109B1400C3F82421D3F824210592059AD3F80431FB
:109B24004BB34FF04023D3F80431002B4CD04FF00B
:109B340040230022C3F80421D3F804310493049B86
:109B44005D4E07AC06F10C050FCD0FC42B682360E6
:109B540096F82E30002B76D0337B012B1AD04FF0A1
:109B64004022D2F84C250892022B18D14FF0402302
:109B7400D3F83C3517E0504A91684FF04023C3F8BE
:109B84000813022191609268C3F8042301221A6227
:109B94005A618EE04FF04023D3F83C3508934FF0E0
:109BA4004023D3F84C3509934FF040230022C3F8E7
:109BB4006021D3F8601102910299C3F85C21D3F8B3
:109BC4005C310393039B51E04FF040230022C3F820
:109BD4004821D3F848310193019B374B1B7BABB928
:109BE400354E07AC06F10C050FCD0FC42B6823606E
:109BF40096F83030002B43D14FF040230022C3F8B5
:109C04000022B2602D4AC3F8082339E04FF0402304
:109C14004FF40072C3F80022274A40F202219160F7
:109C240001F1CE71C3F808139268C3F8042301222A
:109C34009A601A623DE013F0040F14BF022300235C
:109C44008DF8183028E04FF040230022C3F860213B
:109C5400D3F8601102910299C3F85C21D3F85C3106
:109C64000393039B144B93F830304BB94FF04023CC
:109C74000022C3F8002210498A60104AC3F808235E
:109C84004FF04022D2F8C434C2F8C43413F0020FA7
:109C9400D1D001238DF81830074B93F830301BB91D
:109CA400054B002283F82F20034B1A68596806A835
:109CB40090470CB070BD00BFF087002002029C01E9
:109CC4002DE9F04106793D4D342707FB065797F8F7
:109CD4002D50002D6DD1984617460C46054638493F
:109CE4000068FEF757FB0146002864D1334834234B
:109CF40003FB06F3C218C750C2F804800023936024
:109D040082F8303082F82F30637B82F83230236857
:109D14001F2B86BF03F01F032A4A4FF0A04203F50E
:109D2400E07340F20C6042F8230063681F2B86BF87
:109D340003F01F03234A4FF0A04203F5E07340F2FF
:109D44000C6042F823002B6820686268C3F8080599
:109D5400C3F80C25A268C3F82425CFB12A68120BD6
:109D640050B2237B00281DDB5B01DBB200F16040B5
:109D740000F5614080F800332B681B0B5AB252097E
:109D840003F01F03012000FA03F30F4840F82230C8
:109D94000A4B342202FB0636012386F82D3008468E
:109DA400BDE8F08102F00F025B01DBB20748835487
:109DB400E2E70821F3E71121F1E700BFF087002073
:109DC400019B02000003005000E100E014ED00E0FC
:109DD400037902680621C2F80015044A342101FB04
:109DE4000323022283F82D20704700BFF087002050
:109DF400037902680A49342000FB031300209860A9
:109E04000849C2F80813D2F8001221F4BC51C2F870
:109E14000012C2F80005012283F82D20704700BF0C
:109E2400F087002002029C0138B5054604793423EA
:109E340003FB04F3214AD35863B103681B0B5AB2E2
:109E4400520903F01F03012101FA03F320321C49D4
:109E540041F822302846FFF7CBFF2868FEF7C2FA04
:109E6400164A342303FB042393F83230EBB92B68EE
:109E7400D3F808351F2B86BF03F01F03114A4FF098
:109E8400A04203F5E073022142F823102B68D3F8B3
:109E94000C351F2B86BF03F01F030A4A4FF0A04264
:109EA40003F5E073022142F82310044B342202FB31
:109EB4000434002384F82D3038BD00BFF08700201F
:109EC40000E100E000030050CB6803F06043B3F10D
:109ED400005F40F05F812DE9F04188B00D46944663
:109EE40090F804E00468AE4BC4F80833AD4A342358
:109EF40003FB0E2393F82F30002B3CD11CF0140FDE
:109F04000CBF01230023A74A4FF0340808FB0E2896
:109F140088F82F3008F10C060F460FCF0FC63B68A8
:109F24003360CCF3001388F830306B78C4F888358C
:109F34000023C4F80431D4F804210592059AC4F826
:109F44002431D4F824310693069B1CF0010F14BF6E
:109F540001230023C4F850351CF0020F14BF012361
:109F64000023C4F840352B78032B00F2DD80DFE8B2
:109F740003F071C34D0B342303FB0E2EDEF80830BF
:109F8400C4F804331120A6E02B6903F06043B3F155
:109F9400005F40F001814FF48073C4F800326B68B5
:109FA400EA68C4F84425C4F848350023C4F850319D
:109FB400D4F850210292029AC4F86031D4F8602196
:109FC4000392039AC4F84831D4F848310493049BAB
:109FD40001232362A360D4F85031002BFBD000206E
:109FE400C4F85001D4F850310193019BAB682A693D
:109FF400C4F84425C4F848356A4A342303FB0E23C5
:10A00400694A9A604FF48272082343E06B68EA68F5
:10A01400C4F84425C4F848352B6903F06042B2F112
:10A02400005F40F0BB80AA68C4F83435C4F8382512
:10A034004FF48453C4F800325A4A342303FB0E23EA
:10A0440040F202229A60012323624FF482720823B1
:10A0540000201FE06B68EA68C4F84425C4F848355A
:10A064001CF0200F3AD04FF48073C4F800324D4AEC
:10A07400342303FB0E234C4A9A600023C4F848316E
:10A08400D4F848310093009B4FF4A4720123236257
:10A09400082300201CF0080F04D1297803291CBFD1
:10A0A4000121E150342303FB0EF33E49CB58002B2E
:10A0B4003FD01CF0040F06D03A4A342303FB0E238E
:10A0C4004FF400729A60374A342303FB0E2EDEF8F5
:10A0D4000830C4F8043308B0BDE8F0814FF40073CD
:10A0E400C4F800322F4A342303FB0E2340F2022229
:10A0F4009A604FF48272C9E76B68EA68C4F8342541
:10A10400C4F838354FF48053C4F80032254A342358
:10A1140003FB0E2340F202229A60012323624FF4D0
:10A12400827200231846B5E74FF482720823072091
:10A13400B0E7002601214FF48275224413686BB9FD
:10A14400D4F82431002BF9D0C4F82461D4F8243194
:10A154000793079B216261612A46EEE7D4F8C43471
:10A16400C4F8C4340F4A342101FB0E2E00228EF8A9
:10A174002F20002BAFD003F00202002A48F2012066
:10A1840008BF032003F0040348F20222002B18BF87
:10A194001046A0E71020704710209CE710209AE793
:10A1A40002029C01F08700200002040050E8003FF6
:10A1B40043EA010240E8002C9CF0000FF6D110465F
:10A1C400704750E8003F03EA010240E8002C9CF08D
:10A1D400000FF6D11046704700B585B003788DF8AE
:10A1E400003003798DF8043043798DF805308368A5
:10A1F4008DF80630C3688DF807300369029343690C
:10A204000393054B53F82130044A52F82110684651
:10A21400984705B05DF804FB2C88002024880020B2
:10A2240000B585B003788DF8003003798DF80430DB
:10A2340043798DF8053083688DF80630C3688DF84E
:10A2440007300369029343690393054B53F82130A4
:10A25400044A52F821106846984705B05DF804FB9B
:10A264002C880020248800202DE9F84F05460C4650
:10A2740016460778574A42F82760574A42F827306B
:10A284004B7B73B92B7B002B00F09A80002E3B464E
:10A29400524A08BF32462146281DFFF711FDBDE88A
:10A2A400F88F0B684FF0A04203F5E07340F20C61A5
:10A2B40042F82310636803F5E07342F82310226820
:10A2C4001F2A86BF02F01F0245494FF0A041012317
:10A2D4009340C1F8083562681F2A86BF02F01F0246
:10A2E4003F494FF0A04101239340C1F8083523684A
:10A2F4004FF0A04203F5E07340F20D6142F82310E1
:10A30400636803F5E07342F82310364B43F0010809
:10A314004FF48070C0474FF000094FF0A04A4FF04F
:10A32400010B63681F2B86BF03F01F032C4A5246A0
:10A33400D2F8102522FA03F313F0010F3CD123685D
:10A344001F2B86BF03F01F03254A52460BFA03F363
:10A35400C2F80C354FF48070C04723681F2B86BFAA
:10A3640003F01F031E4A52460BFA03F3C2F80835E2
:10A374004FF48070C04709F10109B9F1090FD0D138
:10A3840062681F2A86BF02F01F0215494FF0A041E0
:10A3940001239340C1F80C354FF48070C0476268C4
:10A3A4001F2A86BF02F01F020D494FF0A04101236E
:10A3B4009340C1F8083565E7B9F1000FE0D161E7D2
:10A3C400002E3B46084A08BF32462146281D00F0AD
:10A3D4001FFA64E72C88002024880020DDA10200F5
:10A3E400000300507000030025A20200F0B48AB0FC
:10A3F40004469DF83C500878002878D11768D4F8B2
:10A4040024618EB10023C4F82431D4F82431049398
:10A41400049B012363610B700E9B9F4218BF0120B4
:10A4240078D00AB0F0BC7047D4F81C6136B300266B
:10A43400C4F81C61D4F81C610596059ED4F8246107
:10A4440056B10023C4F82431D4F824310693069B72
:10A45400012363610B70DFE711680E9E8E4206D9FB
:10A464005B5CC4F81C35136801331360D4E715B979
:10A4740001236361D0E70123E361D2E7D4F8080143
:10A484000028C9D00020C4F80801D4F808010790B6
:10A494000798D4F8240150B10023C4F82431D4F827
:10A4A40024310893089B012363610B70B4E711689E
:10A4B4000E988842B0D9D4F818055854136801335B
:10A4C40013600E9A013A934205D00E9A9A42A3D091
:10A4D40001232362A0E70223C4F80032F8E7002036
:10A4E400C4F80401D4F804310993099B99E70023C3
:10A4F400C4F82431D4F824210392039AC4F81C31FB
:10A50400D4F81C210292029AC4F80831D4F8083114
:10A514000193019BD4F80431002BE0D1012080E7A2
:10A524002DE9F04788B09DF84070424C0794002410
:10A53400C1F80441D1F804510695069DC1F824419F
:10A54400D1F824510595059DC1F81C41D1F81C5141
:10A554000495049DC1F80841D1F808510395039D61
:10A56400C1F80042446380F82E4001240C628C60E0
:10A57400446BA34211D9145DC1F81C45446B0134EA
:10A584004463046884B140F2862383608368C1F81D
:10A594000433002008B0BDE8F08717B901244C61EA
:10A5A400EFE70124CC61ECE71E4690460C460546D5
:10A5B400079B002B12DD00F1340A00F12E090197EC
:10A5C40000964346524649462046FFF70FFF28B1FE
:10A5D400079901390791079B002BF0DC95F82E3081
:10A5E400DBB1D4F8C404C4F8C404B8B100F0010366
:10A5F400002B0CBF03234FF4024300F0020148F286
:10A604000122002918BF134600F0040048F2022278
:10A6140000280CBF1846104600E00020079B002BC2
:10A62400B8DC0023C4F800350523C4F80035032042
:10A63400B0E700BFA08601002DE9F04788B03C4C8C
:10A6440007940024C1F80441D1F804510695069DED
:10A65400C1F82441D1F824510595059DC1F81C4148
:10A66400D1F81C510495049DC1F80841D1F8085152
:10A674000395039D446380F82E40012B0CBF0224F4
:10A684000124C1F8004201240C620C6004684CB13E
:10A6940040F2862383608368C1F80433002008B045
:10A6A400BDE8F0871E4690460C460546079B002BE6
:10A6B40013DD00F1340A00F12E09002701970096FA
:10A6C4004346524649462046FFF790FE28B1079973
:10A6D40001390791079B002BF0DC95F82E30DBB194
:10A6E400D4F8C404C4F8C404B8B100F00103002BC6
:10A6F4000CBF03234FF4024300F0020148F201228D
:10A70400002918BF134600F0040048F20222002872
:10A714000CBF1846104600E00020079B002BBEDC4F
:10A724000023C4F800350523C4F800350320B6E738
:10A73400A086010030B589B0324991F82C300193DC
:10A744008B6A00934B6A01F134022E312E48FFF7D5
:10A754004DFE00BB2B4B93F82E30002B3CD1294BE4
:10A76400197B8B1EDBB2012B17D903AC274D0FCD00
:10A774000FC42B68236000238DF80830214B00227E
:10A7840083F82F201B6A13F0040F04D11D4B1A68A1
:10A79400596802A8904709B030BD1A4B5A6A9B69A0
:10A7A4009A42E2D11748C269426243698362046AE9
:10A7B400C4F3401480F82C40032904D012491148F2
:10A7C400FFF73AFFE7E700940F49FFF7A9FEE2E736
:10A7D40001238DF80830D1E703AC0C4D0FCD0FC425
:10A7E4002B682360084AD2F8C434C2F8C43413F086
:10A7F400020FEDD113F0040F1CBF02238DF80830B3
:10A80400BCE700BF348800200030004040880020AE
:10A814002DE9F0410479C4EB04163D4F07EB86079C
:10A8240097F82D60002E6ED1984617460D460646C1
:10A8340038490068FDF7AEFD0146002865D134486B
:10A84400C4EB04139B00C218C750C2F80480002351
:10A85400936082F8303082F82F306B7B82F8383086
:10A864002B681F2B86BF03F01F032B4A4FF0A04217
:10A8740003F5E07340F20C6042F823006B681F2B71
:10A8840086BF03F01F03244A4FF0A04203F5E07390
:10A8940040F20C6042F82300336828686A68C3F801
:10A8A4000805C3F80C25AA68C3F82425CFB132687B
:10A8B400120B50B22B7B00281EDB5B01DBB200F1D4
:10A8C400604000F5614080F8003333681B0B5AB2D6
:10A8D400520903F01F03012000FA03F30F4840F864
:10A8E4002230C4EB04140A4B03EB8404012384F8E0
:10A8F4002D300846BDE8F08102F00F025B01DBB2A7
:10A9040007488354E1E70821F3E71121F1E700BF89
:10A914003488002039A702000003005000E100E061
:10A9240014ED00E0037902680521C2F80015C3EBB9
:10A934000313034A02EB8303022283F82D2070479A
:10A9440034880020037902680A49C2F80813D2F84F
:10A95400001221F00301C2F800120021C2F8001510
:10A96400C3EB0313044A02EB8303012283F82D2073
:10A97400704700BF864204003488002038B505467D
:10A984000479C4EB0412234B53F8223063B10368F7
:10A994001B0B5AB2520903F01F03012101FA03F3FE
:10A9A40020321D4941F822302846FFF7CBFF2868A2
:10A9B400FDF718FDC4EB0413164A02EB830393F866
:10A9C4003830EBB92B68D3F808351F2B86BF03F05A
:10A9D4001F03124A4FF0A04203F5E073022142F82C
:10A9E40023102B68D3F80C351F2B86BF03F01F03ED
:10A9F4000A4A4FF0A04203F5E073022142F8231003
:10AA0400C4EB0414034B03EB8404002384F82D30BB
:10AA140038BD00BF3488002000E100E0000300508E
:10AA24002DE9F04383B00479354B2701A7EB0408E3
:10AA340003EB8808D0F800903248C9F8080398F866
:10AA44002F30002B3CD116460D4682F00403C3F38D
:10AA54008003C4EB04172A4A02EB870787F82F30D8
:10AA64003E6207F10C0C8E46BEE80F00ACE80F0006
:10AA7400DEF80030CCF800306B68BB62EB687B62B8
:10AA84006B78C9F888352B78012B21D0F3B9C6F33C
:10AA94004016C4EB04131A4A02EB830383F82C60B8
:10AAA40000966B68EA6849464046FFF739FDC4EBF7
:10AAB4000413134A52F82330CBB103B0BDE8F0833A
:10AAC400D8F80830C9F804331120F6E70126E0E786
:10AAD400C4EB04130A4A02EB8303002283F82C20FC
:10AAE4006B68EA6849464046FFF7A6FDDFE7C4EB1A
:10AAF400041402EB8404002384F82F30DDE700BF44
:10AB0400348800208642040008B5084B1B784BB1FA
:10AB14000020FDF745F90120FDF742F90320FDF778
:10AB24003FF908BDFDF750F9FBE700BF708800202E
:10AB340038B50446B44B1B78E3B9172C00F2628194
:10AB4400DFE814F01E0029002900530076009A0063
:10AB5400B000BE00C600D300E000ED00FA00010121
:10AB640001010101010101013201390143014D01DA
:10AB74005A015A01A44B00221A70FFF7C5FFDCE703
:10AB8400FFF7C2FFA148FBF753FF0546A04B002285
:10AB94001A70284638BD0020FDF7D8F8E0B100202F
:10ABA400FDF7FEF8022C0CBF4FF4E1634FF47A6317
:10ABB400974A14700024590CD8034FF47A72002376
:10ABC40010F5FA70614103F0FBFF224601468F48FD
:10ABD400FBF7DEFE0546DCE70020FDF7CDF8022C8E
:10ABE4000CBFC8234FF4C873E2E70020FDF7AEF8AA
:10ABF400C8B10020FDF7D4F84FF44873844A032108
:10AC040011700024590CD8034FF47A72002310F504
:10AC1400FA70614103F0D4FF224601467B48FBF7FA
:10AC2400B7FE0546B5E70020FDF7A6F8C823E5E71B
:10AC34000020FDF78BF8C8B10020FDF7B1F84FF400
:10AC44007A63734A042111700024590CD8034FF419
:10AC54007A72002310F5FA70614103F0B1FF2246C5
:10AC640001466A48FBF794FE054692E70020FDF78B
:10AC740083F84FF4C873E4E70020FDF767F868B180
:10AC84000020FDF78DF8624B05221A70002241F670
:10AC94009A115E48FBF77CFE05467AE70020FDF733
:10ACA4006BF8F0E70020FDF7ABF8594B06221A7059
:10ACB400002240F6CD415548FBF76AFE054668E799
:10ACC4000020FDF759F8524B07221A70002560E75F
:10ACD40001204D4B1870FDF793F8002240F6CD414A
:10ACE4004A48FBF755FE054653E70120464B1870CA
:10ACF400FDF786F800224FF480414448FBF748FEF4
:10AD0400054646E70120404B1870FDF779F800220C
:10AD140040F6CD413D48FBF73BFE054639E70120AF
:10AD2400394B1870FDF76CF800224FF48041374816
:10AD3400FBF72EFE05462CE7FDF754F8344B0C22A6
:10AD44001A70002525E73348FBF772FE0546D4F157
:10AD5400110422D008BB012C06D80220FDF70CF800
:10AD64002D4B01221A7014E7A4B2C82303FB04F488
:10AD7400E317D90341EA5441E0034FF47A72002304
:10AD840010F5FA7041F1000103F01AFF00220146A8
:10AD94002048FBF7FDFD0546DFE70220FDF700F83C
:10ADA4001D4B00221A70F4E6FFF7AEFE184B122278
:10ADB4001A700025EDE6FFF7A7FE0020FCF7DCFF84
:10ADC400134B13221A700025E3E6FFF79DFE0120C2
:10ADD400FCF7D2FF0E4B14221A700025D9E6FFF7B8
:10ADE40093FE0020FCF7C8FF0120FCF7C5FF084BC9
:10ADF40015221A700025CCE6FCF7F4FF044B1C70F6
:10AE04000025C6E60025C4E6C488002094880020F6
:10AE1400C5880020748800207088002008B5024688
:10AE2400044B186810F0010000D108BD1046FFF76C
:10AE34007FFEFAE7C0880020032824D8012A07D01F
:10AE440001290CD04BB2BBB102290ED007207047A8
:10AE5400012901D00022F3E700F10E02D2B200EB87
:10AE640040000A4B1A540020704700EB4000074B87
:10AE7400184442700020704700EB4000034B184414
:10AE84008270002070470720704700BFB4880020FC
:10AE9400032801D90620704708B5FCF7CBFF1F280B
:10AEA40086BF00F01F00094B4FF0A04303EB800066
:10AEB400D0F8003723F44033C0F80037D0F8003717
:10AEC40043F44033C0F80037002008BD00030050AD
:10AED40008B5012202210020FFF7AEFF10B103469E
:10AEE400072813D1072202210120FFF7A5FF0346FB
:10AEF40008B107280AD10A2200210846FFF79CFF5F
:10AF0400034618B1072814BF03460023184608BD9A
:10AF140008B50388102B02D0112B2BD008BD1D4B74
:10AF24001B6823B11B4A136801331360F6E701223F
:10AF340000210846FFF780FF034608B1072812D115
:10AF4400072202210120FFF777FF034608B10728F3
:10AF540009D1042202210020FFF76EFF03460028D6
:10AF6400E0D00728DED00C4A1268002ADAD018464E
:10AF74009047D7E7074A1368013B1360002BCDD1F4
:10AF8400FFF7A6FF0028C9D0034B1B68002BC5D0D0
:10AF94009847C3E7CC880020C888002008B5002063
:10AFA400FFF776FF10B10346062808D10120FFF70A
:10AFB4006FFF034618B1062814BF03460023184642
:10AFC40008BD3FDF704775DF704776DF70478BDF62
:10AFD40070478FDF704770470A8840F677239A429C
:10AFE40000D070478B88033B014A1380F9E700BF08
:10AFF400C673002070B569B10D4604460544207837
:10B00400FCF78AF818B11128F9D0FBF7E5F90134F7
:10B01400AC42F4D14FF47A74054D45F001054FF478
:10B024007A463046A847013CFBD1012070BD00BFE1
:10B03400B000030008B50378062B00D008BD4068B3
:10B044000028FBD0FBF7C8F9F8E7000038B503780F
:10B05400012B33D05AB212B1022B2BD038BD194C6C
:10B06400194D28782044FCF725F82B780133DBB2FE
:10B074002B701C4414F8012C0A2A03D0134A12889A
:10B084009A42EBD8002BE9D0114B1B7843B9F42238
:10B0940000210C4804F055FB0B4B00221A70DDE72D
:10B0A4000C4C084A0C49206804F031F82368184411
:10B0B4002060ECE74068FBF78FF9CFE74068FBF7C7
:10B0C4008BF9CBE7E0880020E8890020C6730020D4
:10B0D400C28E0020988400200C03030010B504469F
:10B0E4000020FFF79BFE10B924B1012010BDFBF72F
:10B0F40073F9F9E7FFF752FF0028F6D0FBF76CF974
:10B10400F3E7000008B500224FF470210348FBF771
:10B114003FFC00B908BDFBF75FF9FBE7448E002054
:10B1240008B54FF0A0434FF48052C3F80825064BEE
:10B134000122C3F800251A600448FEF725FA044BDF
:10B144001878FEF779F908BD007000408402030006
:10B15400208E002008B54FF0A0434FF48052C3F86E
:10B164000825064B0122C3F800251A600448FEF79F
:10B174000BFA044B1878FEF75FF908BD0070004025
:10B1840084020300208E002000B583B0DBB201935B
:10B19400009200230A4619210648FCF753F9064B8E
:10B1A4004FF47A4043F001039847002003B05DF860
:10B1B40004FB00BF90840020B000030000B583B0FE
:10B1C400DBB2009313460A4619210648FCF7BAF984
:10B1D400054B4FF47A4043F001039847002003B035
:10B1E4005DF804FB90840020B000030008B501461C
:10B1F4004088034B03EB001002F038FC08BD00BF8D
:10B20400EC89002008B5FFF7E2FE054802F030FBA8
:10B2140018B90020FCF7B0FD08BDFBF7DDF8F8E72E
:10B22400648E002010B582B004460388103B462B80
:10B2340068D8DFE803F0245B676767676767676759
:10B24400676D67676773677D676767676767676762
:10B25400676767676767676767676767676767677A
:10B26400678B676767676767676767676767676746
:10B2740067676767676767676767676794003C4ADC
:10B284001368013313608388022B21D8A38800221A
:10B294001946384800EB031002F0F6FCE0B9A38825
:10B2A40019464FF43370344A00FB032001F05CFF6D
:10B2B400112800D098B90120FCF75EFD01F070FD63
:10B2C40003280FD00020FCF757FDFFF79BFF19E080
:10B2D4000020FBF781F8D9E7FBF77EF8DFE7FBF7FF
:10B2E4007BF8E8E70020FCF75BFD0BE0204A1368DD
:10B2F400013B136001F054FD30B1FFF783FF0020E0
:10B30400FCF73AFD02B010BD0120FCF749FDF4E75B
:10B31400037A022BF6D1FFF775FFF3E700F108017A
:10B324008088FFF750FE0028ECD0FBF755F8E9E7DA
:10B3340000238DF804308DF8053001A98088FFF7CB
:10B3440048FE0028DED0FBF747F8DBE713218088AE
:10B35400FFF73BFE0028D5D0FBF73EF8D2E71321D8
:10B364008088FFF732FE0028CCD0FBF735F8C9E718
:10B37400C88F0020EC890020C873002070B588B005
:10B38400064601AC0E4D0FCD0FC495E8070003C46B
:10B3940024F8022B120C22701B2101A8FFF72AFEAD
:10B3A400304604F001FAC1B23046FFF723FE1A20FA
:10B3B400FBF7B2FE0D20FBF7AFFE08B070BD00BF77
:10B3C400CC02030070B54FF0A0450326C5F83067E2
:10B3D4004FF48053C5F80835074C44F001044FF48A
:10B3E4007A40A047C5F82C674FF40063C5F80835C8
:10B3F4004FF47A40A04770BDB00003000246836852
:10B404000F2B2DD8DFE803F0082C2C112C2C2C2C1E
:10B414002C1A2C2C2C2C2C23174B187820BB53685B
:10B424004BBB0120144B18707047134B1878E8B9C4
:10B43400536803BB0120104B187070470E4B1878EB
:10B44400B0B95368BBB901200B4B187070470A4B55
:10B45400187878B9536873B90120074B187070478E
:10B464000020054B1870704700207047002070477B
:10B474000020704700207047C08E002070B582B055
:10B4840098B131220D4901A803F041FE0C4D00246E
:10B49400032601F085FCA0420DD9324601A92846B5
:10B4A40002F0CDFB01341035F3E73222034901A841
:10B4B40003F02DFEEAE702B070BD00BFB800030040
:10B4C400EC89002070B58AB0FCF714FA036942696C
:10B4D400016803914168029181680191C1680091FA
:10B4E4000A4904A803F013FE094D0024172601F0AD
:10B4F40057FCA04207D9324604A9284602F09FFB14
:10B5040001341035F3E70AB070BD00BFE802030050
:10B51400EC890020F8B500AF054604F045F904466F
:10B52400C31D23F00703ADEB030D0246002168465B
:10B5340004F007F922462946684604F0D9F868461B
:10B54400FFF71CFF4FF4FA74054D45F001054FF465
:10B554007A463046A847013CFBD1BD46F8BD00BF42
:10B56400B00003002DE9F04F93B080460022224939
:10B5740003A803F0CCFD03AB1D18204B1B68002B64
:10B5840034DB00260196DFF87C90DFF870B01CE015
:10B594003A464946284603F0BAFD0544019701346A
:10B5A400062C0DD0224631464046FCF7E3F800282D
:10B5B400EED152464946284603F0A9FD0544EEE77C
:10B5C4000136DBF80030B34203DB00240127A24636
:10B5D400E8E70B49284603F09AFD019B13B913B021
:10B5E400BDE8F08F03A8FFF7C9FEF8E70449284631
:10B5F40003F08DFDF3E700BFAC020300C88F002009
:10B60400C8020300C4020300084B1B7803B170474F
:10B6140010B5FFF757FF064C2046FFF7A3FF20465F
:10B62400FCF7B8F8034B00221A7010BDDE88002026
:10B6340024860020DD88002008B50849084801F068
:10B6440068FF28B9F721064801F081FF18B908BD41
:10B65400FAF7C2FEF6E7FAF7BFFEF8E7DDAF02003D
:10B664006C8A002000B585B0054A01AB07CA03C344
:10B674001A800A2101A8FFF7BDFC05B05DF804FBA0
:10B684000003030070B5D4B0774B50AC0FCB07C4A4
:10B694002380764B4CAC0FCB07C424F8023B1B0C25
:10B6A400237046AC724D0FCD0FC495E8030044F8E7
:10B6B400040B24F8021B090C21703FAC6D4D0FCD17
:10B6C4000FC495E8070003C4227035AC6A4D0FCD52
:10B6D4000FC40FCD0FC495E8030044F8040B218078
:10B6E4002AAC664D0FCD0FC40FCD0FC495E80700EB
:10B6F40003C4228020AC624D0FCD0FC40FCD0FC404
:10B7040095E8030084E8030019AC5E4D0FCD0FC427
:10B7140095E8070003C424F8022B120C227011AC24
:10B72400594D0FCD0FC495E80F0007C4237008AC22
:10B73400564D0FCD0FC40FCD0FC42B6824F8023B18
:10B744001B0C23706C46524D0FCD0FC495E80F00AF
:10B7540084E80F000E2150A8FFF74CFC4FF47A75D3
:10B764004C4C44F001044FF47A463046A047013D66
:10B77400FBD10F214CA8FFF73DFC4FF47A754FF431
:10B784007A463046A047013DFBD1172146A8FFF772
:10B7940031FC4FF47A754FF47A463046A047013DA8
:10B7A400FBD119213FA8FFF725FC4FF47A754FF41C
:10B7B4007A463046A047013DFBD1262135A8FFF744
:10B7C40019FC4FF47A754FF47A463046A047013D90
:10B7D400FBD12A212AA8FFF70DFC4FF47A754FF408
:10B7E4007A463046A047013DFBD1282120A8FFF727
:10B7F40001FC4FF47A754FF47A463046A047013D78
:10B80400FBD11B2119A8FFF7F5FB4FF47A754FF410
:10B814007A463046A047013DFBD11D2111A8FFF710
:10B82400E9FB4FF47A754FF47A463046A047013D60
:10B83400FBD1232108A8FFF7DDFB4FF47A754FF401
:10B844007A463046A047013DFBD120216846FFF7E8
:10B85400D1FB4FF47A754FF47A463046A047013D48
:10B86400FBD154B070BD00BF1C010300A000030055
:10B874002C0103004401030060010300880103005C
:10B88400B4010300DC010300F80103001802030003
:10B894003C020300B000030070B592B04222184984
:10B8A40001A803F025FF41F28835164C44F0010449
:10B8B4004FF47A463046A047013DFBD1422101A80E
:10B8C400FFF798FB42F210754FF47A463046A047D2
:10B8D400013DFBD101AD0C4E0FCE0FC596E807001C
:10B8E40003C52A70192101A8FFF784FB41F28835AA
:10B8F4004FF47A463046A047013DFBD112B070BDEB
:10B90400BC000300B00003000001030010B51C4B91
:10B914001B7803BB222806DD80B227281ED8194BCA
:10B9240001221A701AE00123154A1370154A137084
:10B934001548FBF77DF800224FF470211348FBF7FC
:10B9440027F828B9042200211148FBF71CFF05E061
:10B95400FAF742FDF6E780B2272800D810BD00248C
:10B96400084B1C70064B1C700848FBF761F8FFF786
:10B97400C9FB052221460648FBF705FFEEE700BF99
:10B98400E9890020DC880020448E0020248E0020D9
:10B994002486002030B583B004780CB103B030BDE8
:10B9A40005464A4A13780133137001214068FDF7B4
:10B9B40075FC40BB6B68B3F900204FF4167303FBAE
:10B9C40002F3002BB8BF03F2FF339B1203EB4303D4
:10B9D4005B0003F587739BB240F6B73293424BD8B2
:10B9E40040F65432934211D9C3F53B6308333A22EB
:10B9F40002FB03F3364C84FB0324DB17A3EB641331
:10BA04006433DCB239E0FAF7E7FCD3E740F6B4225A
:10BA140093420ED9C3F53563043303EB4303DB00D0
:10BA24002C4A82FB0312DB17A3EBA2132A33DCB2EA
:10BA340023E040F6881293420BD9C3F52B630433F9
:10BA4400234A82FB0312DB17A3EBE2031233DCB2BB
:10BA540013E040F6340293420FD9C3F51863083358
:10BA640003EB43035B001C4A82FB0312DB17A3EBCB
:10BA7400E2130633DCB200E064242046FFF746FFFD
:10BA8400124B1B780A2B89D1144B1878FDF7ECFC68
:10BA94001348FDF787FD134B01221A60124A002355
:10BAA400136012680192019A104A1360126800929E
:10BAB400009A0F4AC2F800354FF0A0424FF480516B
:10BAC400C2F80C15014A137068E700BFC48F002048
