:020000022000DC
:1060000000000420756302005D6302005F6302000C
:106010006163020063630200656302000000000028
:1060200000000000000000000000000067630200A4
:1060300069630200000000006B6302006D630200F0
:10604000A19402006F630200599902006F6302007D
:10605000158202006F630200AD97020049A402009E
:106060006F6302006F6302006F6302006F630200E0
:106070006F6302006F6302006F6302006F630200D0
:106080006F630200297102006F6302006F630200F8
:10609000C57102006F630200D5C802006F63020081
:1060A0006F6302006F630200F1A802006F630200D9
:1060B0006F6302006F630200000000000000000038
:1060C0006F6302006F6302006F6302006F63020080
:1060D0009D9002006F6302006F6302006F63020015
:1060E0006F6302006F6302006F6302000000000034
:1060F000000000006F630200000000006F630200F8
:10610000000000000000000000000000000000008F
:10611000000000000000000000000000000000007F
:10612000000000000000000000000000000000006F
:10613000000000000000000000000000000000005F
:10614000000000000000000000000000000000004F
:10615000000000000000000000000000000000003F
:10616000000000000000000000000000000000002F
:10617000000000000000000000000000000000001F
:10618000000000000000000000000000000000000F
:1061900000000000000000000000000000000000FF
:1061A00000000000000000000000000000000000EF
:1061B00000000000000000000000000000000000DF
:1061C00000000000000000000000000000000000CF
:1061D00000000000000000000000000000000000BF
:1061E00000000000000000000000000000000000AF
:1061F000000000000000000000000000000000009F
:10620000354936480A1A02D0072291438D4634494F
:1062100034480A1A06D00722914381F309880222E2
:1062200082F3148830483149314A00F044F831484B
:106230003149324A00F03FF831483249324A00F0E1
:106240003AF832483249334A00F035F83248334997
:10625000334A00F030F833483349344A00F02BF821
:1062600033483449344A00F026F83448344900228F
:1062700000F02CF833483449002200F027F8334866
:106280003349091A082902DB002202604160314AC1
:1062900090471F481F49884205D00268043003B464
:1062A000904703BCF7E700208646EC46002000211B
:1062B000294A9047FEE7884207D0521A05D0037852
:1062C00001300B700131013AF9D17047884202D098
:1062D00002700130FAE770470000042000E003205C
:1062E0000000042000000420A8290300982A0020B0
:1062F000142B0020D4630200D463020008170300AB
:10630000A8290300982A0020982A00204C1803008E
:106310004C1803004C1803004C1803004C180300E1
:106320004C1803004C1803004C180300A829030064
:10633000242A0300142B0020142B0020142B0020EF
:10634000C4910020C4910020D4910020D491002059
:10635000D4B100209D630200D5DA0200FEE7FEE71B
:10636000FEE7FEE7FEE7FEE7FEE7FEE7FEE7FEE705
:10637000704700BF1048804710484FF0070188431E
:1063800085460F4880470F48016841F4700101605D
:10639000BFF34F8FBFF36F8FFFF732BF0A480B4930
:1063A0000B4A884207D0521A05D0037801300B708F
:1063B0000131013AF9D170477163020000000420F5
:1063C000AD8A020088ED00E04C180300982A0020F6
:0463D000982A0020E7
:1063D40000487047BC9100207047000007B5044B8B
:1063E4000093044A802300F032F803B05DF804FB04
:1063F400FD630200152B00202DE9F843894614465D
:10640400B2B10F4B0F4E0325002743F0010822467B
:1064140009EB0701002004F081FE0744241A48B95F
:1064240033782BB14FF47A40C047013D02D1357027
:10643400BDE8F88301233370002CE8D1F8E700BFEE
:1064440050180300142B0020704704F0BBBEF0B5B5
:1064540095B01C46164608460D4601F0D0FC1A9B22
:106464000D93CDE9086400242346082205A9284693
:106474000A948DF82C400C9401F0DEFC079B0293E7
:10648400069B03939DF814308DF8114003F003022A
:10649400012A1DD1BDF81440059EC3F3C203C4F301
:1064A40083148DF81030A20008230EA9284601F0A9
:1064B400C3FCC6F3952608AB0093224602AB0EA993
:1064C400304600F05DFB284601F09DFC15B0F0BDA0
:1064D400022AF8D1BDF81640C3F3C203A4098DF80B
:1064E40010300827082C264628BF08263B4632468B
:1064F4000EA9284601F0A0FCA41B08AB02AA314651
:106504000EA8374400F0A0FB002CEBD1DBE7000021
:1065140008B5FFF79AFF0421034800F09FFA034BE4
:1065240001225A7108BD00BF3C180300982A0020BC
:10653400037813F0040216D003F00303012B03D0F5
:10654400022B09D0012070470A6800880232C0F388
:10655400831002440A60F5E70B684288023303EBB8
:1065640092130B60EEE71046704700002DE9F04FE0
:1065740087B000230446851C0DF107000F469046A2
:106584008DF8073001F006F9454806683E60D0E909
:106594000132134401339B1B824600F21C4600F572
:1065A400836900F21447AB421BD30022B8F1000FF9
:1065B40070D0052363F3070264F38912DAF800103C
:1065C400DAF808309DF807000B4003330D444AF80D
:1065D4002320CAF8005001F001F9012007B0BDE8FA
:1065E400F08F0121304601F056F9484601F069F96F
:1065F400384601F066F9DAF80400DAF808B00290D7
:1066040000EA0B0003300AEB800002A9FFF790FFB9
:10661400029B50BB0BEA03020AEB820203F1020C59
:10662400D2680392013303EA0B0B0AEB8B0B02F0E3
:106634000302012ACDF808C0DBF80C1022D0022A8C
:1066440016D08346384601F03FF910B1029BCAF8D0
:1066540004305946304601F01EF9DAE901231344A7
:10666400DAF8002001339B1A9DE70BEA0300C9E71F
:10667400BDF80E309B0903334FEA114B0CEB930327
:106684000293DFE7BDF80C30C3F383134FEA114BD9
:106694006344F5E7062363F3070264F39F528DE72F
:1066A400682C00200B4B0C48FF2210B59A60002286
:1066B400C3F81824C3E90022C3F81424012283F880
:1066C400202401F055FB044610B9044801F0E4FB12
:1066D400204610BD682C00208417030074180300A2
:1066E40030B50A4C71B10A4A0A49121BD208002378
:1066F4009A4201D1002030BD31F82350854202D0A6
:106704000133F5E7034654F83300F4E7AC1703000C
:106714003C180300982A0020094B013903EBC00000
:10672400032909D8DFE801F00A02040604207047AF
:106734000079704740797047002070470220704705
:10674400AC170300034BD3E90030C31A5842584135
:10675400704700BF682C00202DE9F04387B0FFF795
:10676400F1FF0646002840F0FB807E4DC5F8180472
:10677400BFF34F8F6868AC6802902040033005EB8C
:10678400800002A9FFF7D4FE029B18B1D5F81824A3
:10679400002A5FD004EA0302991C013305EB82024C
:1067A400234005EB8303D268DB68049302F0030300
:1067B400022B0392029162D1BDF80E306A484FEA6F
:1067C4009318B8F1500FC14628BF4FF0500969F330
:1067D4008F1309F10801ADF80E3001F0E1FA074614
:1067E400002800F0A88001F00AFB03A90023082276
:1067F400384601F017FB029924EA01060136B60077
:10680400B14535D95FFA89F97EB3F6B2A9EB060929
:10681400214003315FFA89F4B146544E05EB8101FE
:1068240008234A46384601F0FDFA36B109F1080357
:1068340022463146384601F0F5FA029B08F1030876
:1068440003EB98030293D5F81834002B4BD1D5F8F9
:1068540010445BE02A689A4204D86A60304607B064
:10686400BDE8F08304EA030088E740493446D7E7EB
:106874002140033108234A4605EB8101DAE7012B65
:1068840059D1BDF80C303848C3F38311062928BF09
:10689400062161F3891302318900ADF80C3001F04F
:1068A4007FFA0746002846D001F0A9FA00230822FF
:1068B40003A9384601F0B6FA0026BDF80C20C2F34D
:1068C4008312B300964203F10803BCD202994A1C16
:1068D40021400331029205EB81010422384601F084
:1068E400A1FA0136E9E7384601F08DFAFFF72AFFED
:1068F40080F00100C6B2B1E7E3685B7923B1236895
:1069040039461B6820469847E3681C68002CF3D17D
:10691400384601F078FA0DF107008DF8074000F0D1
:1069240039FFD5F818340BB9029B6B609DF807004A
:1069340000F054FFDAE7D5F8104454B90C4B0D4875
:106944000D49C01AC008000440F0020000F06EF8BF
:10695400CCE7236820469B689847E3681C68ECE70B
:1069640000267BE7682C002084170300742C002089
:10697400AC170300F4170300801803002DE9F74F48
:10698400284C80460F46924601A9012218469B4690
:10699400D4F80890FFF7EAFD80B3019D0026A91CF6
:1069A4005E4506EB010233D100211F4800F048FF89
:1069B40080F310006A1C02EA090204EB820200045C
:1069C40005EA0903033340EA1840D06014F8232091
:1069D40068F3C50204F8232034F8232066F38912EF
:1069E40024F8232054F8232067F39F2244F823201B
:1069F40002F0F80242F0010204F8232094F8203453
:106A04001BB1FFF7A9FE0028FBD103B0BDE8F08F4E
:106A140009EA020204EB82025AF82630D3600136F6
:106A2400BEE700BF682C00208430002000231A46F3
:106A3400FFF7A4BF07B50123019201AAFFF79EFF48
:106A440003B05DF804FB07B5CDE9002302236A46D1
:106A5400FFF794FF03B05DF804FB000030B50F4965
:106A6400D1F81024002314463CB9C468237152B9E8
:106A7400C1F810042260184630BDE46825799D42AF
:106A840006D02468F0E7D268116821601060F2E74C
:106A940001330A2BE7D14FF0FF33ECE7682C0020D9
:106AA400094A38B50123D2F8104482F820341D462F
:106AB40004B938BDE3685D71236820465B68984774
:106AC400E3681C68F4E700BF682C0020037A052BF8
:106AD40010B50C460FD0437A23B1084A0849204622
:106AE40000F055FF0749204600F051FF2046BDE85D
:106AF400104000F041BF002AF8D0F3E7CB180300A0
:106B0400D0180300F0180300C38873B504460D467B
:106B140033B1144A00921449144A284600F037FF4E
:106B2400217A05291CD0637A4BB1A088FFF7F4FDC4
:106B34000F4B104953F82020284600F028FF227AF2
:106B44000D4BA08853F822600021FFF7C9FD0B49C3
:106B540003463246284602B0BDE8704000F017BF35
:106B640002B070BDCB180300DB180300D318030078
:106B740098180300D018030000190300F318030049
:106B84002DE9F04385B01F460C9D002306460C46B4
:106B9400904695F80C902B7329463846FFF7B4FFBE
:106BA400B8F1060F09D8DFE808F00412181F2833DB
:106BB40040003146284600F0EAFE002229463846C5
:106BC400FFF784FF85F80C9005B0BDE8F0832268D8
:106BD4003146284600F0DBFEEFE7D4E900233146D6
:106BE400284600F0D4FEE8E7A36800933146D4E9D0
:106BF4000023284600F0CBFEDFE7E3680193A36897
:106C040000933146D4E90023284600F0C0FED4E7BF
:106C140023690293E3680193A36800933146D4E99E
:106C24000023284600F0B3FEC7E763690393236992
:106C34000293E3680193A36800933146D4E90023E7
:106C4400284600F0A4FEB8E708292DE9F84F80464D
:106C54000E4617461C463AD8002593F80C901D732F
:106C640019461046FFF750FFDFF884A0DFF884B020
:106C7400AE422ED918F805205946204600F087FE6A
:106C84000135082DF4D11849DFF86CB0204600F026
:106C94007EFE4FF0000A564520D918F80A507E2D82
:106CA40003D8284608F0B4FD00B92E252A465946D3
:106CB400204600F06CFE0AF1010ABAF1080FEAD18D
:106CC400012221463846FFF701FF84F80C90BDE805
:106CD400F88F5146204600F05AFED1E7034920467A
:106CE40000F055FEE7E700BFC6180300C418030010
:106CF400C2180300BC180300C81803002DE9F04FA4
:106D0400394E87B04FF00009384B1B785FFA89F58C
:106D1400AB4202D807B0BDE8F08F354BD3F800A0E2
:106D24001AF835000124D6E9001EA0F12002C0F1B2
:106D3400200304FA02F224FA03F3134304FA00FCD6
:106D4400009301EA0C030293009B0EEA03030393EE
:106D5400DDE9022313430AEBC50B41D0009B21EA72
:106D64000C012EEA0303C6E9001302F00FFD1AF822
:106D740035502049A5F12002C5F1200304FA02F29E
:106D840024FA03F31343D1E900C2AC40134004EAEC
:106D94000C0105930024C3B2CDE90034009A049198
:106DA400C5F12003A5F1200122FA03F302FA01F848
:106DB40048EA03081346AB401F46DDE90434444562
:106DC40008BFBB420CD1DBF804304BB19BF8011077
:106DD4004A1E51425141081A4142414128469847AE
:106DE40009F1010990E700BF583100202431002047
:106DF40060310020503100202DE9F04180462048C8
:106E040000F0C2FBD0BB0125A8F12004C8F1200387
:106E140025FA03F305FA04F41C431A4BD3E90012D0
:106E240005FA08F501EA050602EA040756EA07002E
:106E34001E461DD1404602F0A9FC134BD3E90012B3
:106E440088B129432243C3E90012D6E900231C4335
:106E54000E4B0B4819681543C6E900540022BDE8DF
:106E6400F04100F04BBB21EA050122EA0402EAE703
:106E740021EA050522EA0404C3E90054BDE8F081CF
:106E84002C310020583100205031002028310020BE
:106E9400042A2DE9F34105460C4616463AD902F078
:106EA400A5FBD8B11C4B1D491D601D4BDFF8848028
:106EB4001C701C4B00221E600023C1E900231A49E8
:106EC400C1E90023013CE4B200260327FF2C0CD1C6
:106ED400164A1748002100F0FFFA03E002F04EFBC7
:106EE4000028DFD002B0BDE8F08123B205EBC30275
:106EF40001A992788DF8052015F833008DF8066005
:106F040042468DF8047002F07BFB013CE4B2002899
:106F1400DCD0E7E70720E5E76031002050310020AE
:106F2400243100202831002058310020016D020056
:106F340060190300FD6D020070B5084D084E002471
:106F44002B789C4201D3002070BD3368012113F8D3
:106F5400340002F0D1FB0134F2E700BF24310020F9
:106F6400603100201FB50021039001AA44F2010002
:106F7400CDE9011100F004F805B05DF804FB000050
:106F840010B572B6FFF78CFDFFF7E6FB0028FBD1C6
:106F9400104B114C1149E41AE408240444F0010094
:106FA400FFF744FD0E4B1B68DB0700D500BE0D49FF
:106FB40044F00200FFF73AFDBFF34F8F0A490B4B31
:106FC400CA6802F4E0621343CB60BFF34F8F00BF83
:106FD400FDE700BFAC170300F417030064190300B6
:106FE400F0ED00E07019030000ED00E00400FA0584
:106FF40049B152B1531E1A4007D1826001608380A7
:10700400C260104670470E2070470920704710B5C3
:107014008468C2688388121B934208D3C2681340F1
:107024000268D154C3680133C360002010BD04203A
:10703400FCE78268C3689A420AD082688388134056
:107044000268D35C0B70836801338360002070474F
:1070540005207047094A537891780133DBB299428D
:1070640008BF0023117899421FBF0370507818237A
:1070740003FB002014BF043000207047643100205B
:1070840073B5054600240DF107000E468DF8074040
:1070940000F080FB0DF10600FFF7DCFF90B10670F5
:1070A400094B9DF8062045605A709DF8070000F0D2
:1070B40095FB24B9054B4FF48012C3F800212046F8
:1070C40002B070BD0424F0E76431002000E100E068
:1070D400024B4FF43C6043F001031847801903004E
:1070E40038B50C4B0C4C4FF40032C3F8802001250A
:1070F4004FF48033C4F84833C4F808336560FFF7AD
:10710400E7FF064BA56000241C60FFF7E1FF044B7A
:107114001C7038BD00E100E0001001408032002006
:1071240071320020F8B51F4B1F491B680025C1F8B8
:107134004051C1F84451C1F84851C1F84C51C1F80B
:107144000051C1F804514BB3D1F8044517490968FB
:10715400641A24F07F442F461A68A24209D8A41A5C
:1071640015441A7CDE691AB11F74D3E905209047CF
:10717400AEB90F4A0F4B11781B788B4205D10133FE
:10718400DBB2022B08BF0023137012780A4B43F8BA
:1071940022500A4B4FF48012C3F80021F8BD334645
:1071A400DAE700BF84320020001001408032002062
:1071B4007D3200207C3200207432002000E100E0A7
:1071C4002DE9F04FA14AA24913780978A14D9942BB
:1071D40085B03CD00133DBB2022B08BF002313700F
:1071E4009D4912789D4B0F6853F822003B1823F0F9
:1071F4007F4300220B602B6816461446944613B94D
:1072040042B12B6006E0196881420ED902B12B60AD
:10721400091A196001272B68DFF848A201934FF07F
:107224000008BEB9DFF844B266E0401A0C44D968DD
:10723400C3F800C0D3F81CE031B13A1922F07F4200
:10724400C3E90121DE611E4601227346D7E7002609
:107254003746E0E73446F6697F4A63681268DFF828
:1072640010C2A068991A21F07F41614500F2A680FE
:1072740001442160012222742A680023C4E90133F5
:10728400E361002A40F0A3802C60CAE75A1C9BF8F3
:107294000210D2B291428BF8002004BF00228BF876
:1072A4000020182202FB03B31A799C68022A1CD01E
:1072B400032A12D0012A1FD1207CE8B9D3E9031292
:1072C400A2605A69E2609A69654BA2611B78002B3F
:1072D4000CBF0B4603466360BEE700222B681146D1
:1072E400002B67D142B12B6006E029680A46894623
:1072F400002A5AD1002323749BF800309BF8012004
:107304009A42C3D12B68B8F1000F04D1019A9A4272
:1073140001D1002F43D0002B73D0D3F800A0514DDE
:107324004D4BD5F804751C68DFF848813E1B98F86E
:10733400003026F07F4603369BB94FF48033C5F8FE
:107344004433C5F80433484B4FF400324FF001097D
:10735400C3F880211A60C5F80090FFF7B9FE88F8D9
:107364000090B2452CBF5444A41924F07F44C5F8BE
:107374004045D5F80435DB1B23F07F43E41B03337E
:1073840024F07F44A3420AD9D5F80435C5F8403522
:10739400FFF79EFE344B4FF40032C3F80021304B0C
:1073A40000221A7005B0BDE8F08F94422CD09146AB
:1073B400D2699DE719740122DB6991E7D31A23F09E
:1073C4007F43834234BFC31A0023236052E72168FA
:1073D4001368994213D8591A1160E26154E7091AE3
:1073E400D8691A4638B1034618688842F7D3401A58
:1073F4001860184613462160E061DC6111E713460A
:10740400F2E7FFF76DFECAE74C4511D1CB692B605B
:1074140073B9DFF844E00120CDE90212CAF808008C
:10742400CEF800300E4B1870FFF752FEDDE9021261
:107434001368D269C9F81C2012B1106803441360A0
:107444002B68994218BF4FF0010853E77C320020A3
:107454007D320020843200208032002074320020EB
:10746400703200200010014000E100E0643100208F
:10747400FEFF7F007132002008B5FFF731FE104B8C
:1074840000200B2218809A700E4B18600E4B187057
:107494000E4B18700E4B4FF48012C021C3F880219C
:1074A40083F814131A6002F18042A2F56F22C2F825
:1074B400080583F81113074BD2F804251A6008BD98
:1074C40064310020843200207C3200207D32002090
:1074D40000E100E080320020074B9B784BB132B1D1
:1074E40028B10368187C20B959745A617047072081
:1074F40070470820704700BF643100202DE9F7432E
:107504001E4FBB7805460E469046A3B398B3042994
:107514002FD943697BB3437C0024012B0DF1070071
:107524000CBF8946A1468DF8074000F033F90DF1F0
:107534000600FFF78FFDD0B101230370104B4560A7
:10754400D3F80435C0E90498C0E902369DF8063042
:107554007B709DF8070000F041F924B9094B4FF402
:107564008012C3F80021204603B0BDE8F083042450
:10757400EFE70724F7E70824F5E700BF64310020AC
:107584000010014000E100E0064A92783AB130B1BF
:10759400426922B1002202740221FFF771BD082062
:1075A400704700BF643100200648074A0378074942
:1075B400D35C012213B1043002F042BE0C3002F05D
:1075C40011BC00BFA02A0020E0330020B03200200C
:1075D4000648074A03780749D35C012213B10430F3
:1075E40002F0E0BD0C3002F0A9BB00BFA02A0020CD
:1075F400E0330020B132002037B50578012D05D0E5
:10760400002D30D0022D23D003B030BD43681C4C74
:1076140019782046FFF7FBFC78B18DF800500190F3
:10762400184B68461B689847A168E368A2885B1AF0
:107634009A4209D3FFF7B8FFE6E7A268E3689A42E3
:10764400F2D08DF80000EBE70F4B01221A70DBE754
:10765400C3688DF800500193FFF7A6FF094B6846F5
:107664001B689847D0E709490948FFF7E2FC10B9BD
:10767400FFF7AEFFC8E703238DF80030EEE700BF45
:107684008C320020883200209C320020B13200204D
:10769400A0320020F0B51F46234B89B006461A607D
:1076A4000C4600293DD08A8820480968FFF7A0FCD1
:1076B400002834D1A289A1681D48FFF799FC00284D
:1076C4002DD11C4D0FCD6C460FC495E80F0084E8F6
:1076D4000F0073690693337C174A18488DF81C70A1
:1076E400003318BF01238DF81430737C002B14BFB2
:1076F4000E2300238DF81530F3680293B3680393C7
:107704003368019369467368009301F061FE30B9F0
:107714000B4B18703368013301D0FFF745FF09B0F4
:10772400F0BD0720FBE700BF883200208C32002028
:10773400A032002088190300FD750200A02A002051
:107744009C32002010B501460E48FFF760FC044649
:10775400A8B90D480D4A0378D35C63B1043002F034
:1077640063FD60B90A490748FFF763FC38B9BDE80F
:107774001040FFF72DBF0C3002F028FBF1E7204644
:1077840010BD00BFA0320020A02A0020E03300205A
:10779400B132002070B5EFF3108672B60C4A9468CB
:1077A40001239CB993600B4B0B4DD3F880102940F7
:1077B4001160C3F88050D3F8841051604FF0FF3249
:1077C400C3F88420047006B962B670BD0370FAE78A
:1077D400B432002000E100E0FC06FFBD084B9A68CB
:1077E40010B55AB150B9EFF3108172B6054A1C684E
:1077F40014605C685460986001B962B610BD00BF43
:10780400B432002000E100E001F01F024B09012125
:10781400914000EB830000F01DB801F01F0301222A
:107824009A404B0900EB8300D14300F029B84B097F
:1078340001F01F0150F82300C84000F00100704718
:1078440050E8002F0B4640E8003C9CF0000FF7D1B5
:107854001046704750E8003F43EA010240E8002C1C
:107864009CF0000FF6D11046704750E8002F02EA52
:10787400010340E8003C9CF0000FF6D1104670472D
:1078840050E8003F03EA010240E8002C9CF0000F9E
:10789400F6D11046704750E8003F03EB010240E880
:1078A400002C9CF0000FF6D11046704750E8003FC2
:1078B400A3EB010240E8002C9CF0000FF6D1104627
:1078C40070470121FFF7C6BF0021FFF7CEBF10B5F7
:1078D40090B1D0E9012301689B1ADBB20A60013B35
:1078E400DBB2FF2B026802D10020107110BD1168B9
:1078F4004C1C14600B70F2E70E20F7E737B5054611
:1079040000240DF107008DF80740FFF743FF2A68B4
:107914006B68116899420ED9481E106011F8014C29
:10792400EB68298A01FB0434AB6811791B1ADBB2BA
:10793400994238BF13719DF80700FFF74FFF2046A7
:1079440003B030BD37B5054600230DF107000C46E2
:107954008DF80730FFF71EFF2A681368591C116061
:10796400E968641A298AB4FBF1F41C709DF80700D5
:10797400FFF734FF03B030BD826810B504462AB166
:1079840043690168006998470023A36010BD0EB4E1
:1079940003B5039921B104AB01AA019300F06CF87B
:1079A40002B05DF804EB03B07047826830B4046839
:1079B400551C8560A154D0E901329A4202D330BCEF
:1079C400FFF7DABF30BC70472DE9F84F9946DDE97F
:1079D4000A431746824688460A460126BA420FD20F
:1079E4004E4538BF4E4613F0010B01D164B9002453
:1079F4000125B9F1010F1AD909F1FF397D43F8E7DF
:107A0400B2FBF7F20136E9E79B070ED5B9F1000F97
:107A14000CBF30252025A642EAD2013C2946504617
:107A2400FFF7C3FF002CF6D1E1E72025F3E7B8FB0D
:107A3400F5F39F42E2D9DFF83C90B8FBF5F35046EA
:107A440019F8031005FB1388FFF7AFFFB5FBF7F335
:107A5400BD4207D2BBF1000F02D00CB1A64203D342
:107A6400BDE8F88F1D46E8E720215046013CFFF7AA
:107A74009CFFF2E7A81903002DE9F74F05461746C6
:107A84008846002900F0308118F8011B49B92B7B86
:107A9400002B00F02981284603B0BDE8F04FFFF722
:107AA4006BBF252940F0C080002698F800302D2BAC
:107AB400424608F1010823D0302B24D02B2B25D0AB
:107AC40000242A2B02F1010123D13B681A1D1B68F3
:107AD4003A601C440A4613782E2B26D101324FF00B
:107AE4000009104610F8011BA1F1300CBCF1090F7C
:107AF4001DD80A2303FB0913A3F130090246F0E75A
:107B040046F00106D1E746F00206CEE746F0040649
:107B1400CBE711F8013CA3F130000928DBD80A2295
:107B240002FB0434303C0A46CBE74FF0000912F85C
:107B3400011B01F0FB0068289046F8D069290ED09B
:107B44004AD8582964D006D825296DD098F8003031
:107B5400002B99D19BE7632962D06429F6D13A6856
:107B6400D2F800A0111D8AEAEA723960A2EBEA7227
:107B74004FF0010B092A5BDCCB4538BFCB462CB157
:107B8400BAF1000F01DB720700D5013CB30702D53F
:107B9400B9F1000F04D0F00702D4002C4ED1002418
:107BA400BAF1000F52DACAF1000A2D212846FFF774
:107BB400FCFE06F00302022A05D1B9F1000F02D13E
:107BC400002C47D10024CDE900464B460A225146F9
:107BD4002846FFF7F9FEB9E773294CD014D8702969
:107BE400B4D13B681A1D3A60302128461C68FFF75F
:107BF400DCFE78212846FFF7D8FE00220823CDE9D1
:107C0400003221461022E3E775292BD078299DD133
:107C140039680A1D3A60CDE900464B46102228E037
:107C24003B681A1D19783A602846FFF7BEFE8DE7B7
:107C34000A230BF1010BB2FBF3F29BE7A345AFD28E
:107C440020212846013CFFF7B0FEA6E77107B0D516
:107C54002B21ABE7A345B6D230212846013CFFF7E0
:107C6400A4FEADE73968CDE900460A1D3A604B46EB
:107C74000A220968ACE73B681A1D3A6016F001064F
:107C8400D3F800A020D1BAF1000F03D0504608F079
:107C9400BFFD0646B44200D9C4B90AF1FF3A1EE05A
:107CA40028460136FFF781FE1AF806100029F7D19D
:107CB400A642BFF44BAF002C3FF448AF2021284626
:107CC400013CFFF772FEF3E70026EDE7202128468A
:107CD400013CFFF76AFEDDE72846FFF766FE1AF867
:107CE400011F0029F8D131E703B0BDE8F08F2DE979
:107CF400F047B0F806904479D2F800A09DF82080AF
:107D040009FB04F4043C06460AEB0300A0420F46B8
:107D140088BFA4EB030A191DC2F800A0B1FBF9F552
:107D240009FB15114DB9A9EB0104544528BF54466C
:107D3400BAF1000F04D1BDE8F0873668013DF1E7E0
:107D440004317B1970182246B8F1000F0ED0014699
:107D54001846AAEB040A08F0DDFCD1452544366830
:107D64004C464FF0000128BF5446E1E71946F0E7BE
:107D7400FFF7ADBDF8B546790146721E05460023EE
:107D840093422D6803D30024A64202D8F8BD0133E0
:107D9400F6E70F682846FFF7D5FD01343946F3E7C7
:107DA4002DE9F843068ACD1C0746FFF7A7FD043EDC
:107DB40035440446B5FBF6F5F0B14FF48073EDB2EB
:107DC4008380C680013D076081464FF00008A845C6
:107DD40012D23846FFF792FD064648B16379013363
:107DE400637108F10108C9F8000007608146EEE7F5
:107DF4002046FFF7BFFF34462046BDE8F883012143
:107E04000430FFF748BD10B5012104460430FFF7E4
:107E14004DFD10F0FF0F04D12046BDE81040FFF7E0
:107E2400A9BF10BD1FB503920022009203AAFFF759
:107E34005EFF05B05DF804FB1FB5039201220092BA
:107E440003AAFFF754FF05B05DF804FB0B4B0C4885
:107E54000C49C01AC008000410B540F00300FEF736
:107E6400E5FD094B00241C70084B1C60BFF35F8FB9
:107E74000749084800F019F8204610BDAC17030064
:107E84002C180300B8190300C8320020CC3200209B
:107E9400C0190300C0320020836800225A609A602F
:107EA400C3E90422DA601A6070470B684A684360C9
:107EB400934208BF0023016008BF436070474368D2
:107EC40043B10268916852680B449342436004BF13
:107ED400002343607047000010B50D49A1F594726A
:107EE400914201D800200FE08B1ADB1003EBD3730F
:107EF4005B1002EBC30452F83330834205D802D23C
:107F040004F10802ECE7606810BD2146E8E700BF11
:107F1400101B030008B5FFF7DFFF024B002808BF62
:107F2400184608BDD51903000023435082B04358B6
:107F34000193019B02B070472DE9F0470D78089E2C
:107F44009DF824A004460F469946002D5ED1D0F832
:107F54002431D2F800803BB14FF49271FFF7E4FF73
:107F6400012363613B7017E0D0F81C3153B34FF425
:107F74008E71FFF7D9FFD0F824311BB14FF4927101
:107F84002046EBE713689E4212D919F80330C0F873
:107F94001C35136801331360B04535D1D4F804316E
:107FA40093B34FF482712046FFF7BEFF002504E02F
:107FB4000123BAF1000F03D0C3612846BDE8F0875E
:107FC4004361E9E7D0F80831002BE5D04FF4847120
:107FD400FFF7AAFFD0F82431002BCFD113689E42BB
:107FE400DAD9D0F8181509F80310136801331360AF
:107FF400721E934205D10223C0F80032012323628A
:10800400CAE79E42FAD1C7E70125D6E74FF4927139
:10801400FFF78AFF4FF48E71FFF786FF4FF48471E8
:10802400FFF782FFBAE700002DE9FF470C4605463B
:108034001F4620463B4B03934FF4827116469DF82E
:108044003080FFF771FF4FF49271FFF76DFF4FF42B
:108054008E71FFF769FF4FF48471FFF765FF00230A
:10806400C4F800326B6385F82E3001232362A360C9
:108074006A6B97421DD9B35CC4F81C356B6B013332
:108084006B632B68E3B905F1340A05F12E09039BF0
:10809400002B1FDC95F82E3053BB0020039B002BD4
:1080A40015DC0023C4F800350523C4F8003503208B
:1080B4000DE0B8F1000F01D0E361E2E76361E0E7AE
:1080C40040F28623AB60AB68C4F80433002004B0EC
:1080D400BDE8F087CDE9007833465246494620464C
:1080E400FFF72AFF0028D5D0039B013B0393CEE77B
:1080F400D4F8C434C4F8C434002BCED013F0010F28
:1081040014BF4FF40240032048F2012213F0020F7F
:1081140018BF104613F0040F48F2022318BF184684
:10812400BCE700BFA08601002DE9FF470C460546C9
:108134001F462046354B03934FF482719246FFF756
:10814400F3FE4FF49271FFF7EFFE4FF48E71FFF7D9
:10815400EBFE4FF48471FFF7E7FE0023012F2E6836
:108164006B6385F82E3008BF02224FF001030CBF69
:10817400C4F80022C4F8003223622360AEB905F1CA
:10818400340905F12E08039B002B18DC95F82E30DA
:108194001BBB0020039B002B0EDC0023C4F800351E
:1081A4000523C4F80035032006E040F28623AB60C3
:1081B400AB68C4F80433002004B0BDE8F087CDE90F
:1081C400007653464A4641462046FFF7B5FE00284E
:1081D400DCD0039B013B0393D5E7D4F8C434C4F843
:1081E400C434002BD5D013F0010F14BF4FF4024058
:1081F400032048F2012213F0020F18BF104613F0B7
:10820400040F48F2022318BF1846C3E7A0860100F2
:10821400F0B52E4C89B094F82C300193A36A0093E6
:10822400636A04F1340204F12E014FF04020FFF799
:1082340083FE2746E8B994F82EC0266ABCF1000FE5
:108244001FD1217B8B1E012B1BD8626AA3699A4222
:1082540017D1E26963696262C6F340160329A36217
:1082640084F82C6007D100964FF040212046FFF798
:10827400DBFE09B0F0BD4FF040212046FFF754FF6C
:10828400F7E7134D0FCD03AC0FC42B682360BCF18B
:10829400000F18D04FF04022D2F8C434C2F8C434CE
:1082A40099070CD501238DF80830002387F82F3067
:1082B4007307DED4D7E9003102A89847D9E75A07F3
:1082C400F3D50223EFE78DF808C0EEE7D0320020A3
:1082D400DC3200202DE9F84F05793C4C4FF03C0A84
:1082E4000AFB05FA04EB0A069B4696F82D308046F5
:1082F4000F469146002B65D13549006801F030FBEB
:10830400002861D13A687B7B86F838301F2A8CBFFD
:1083140002F01F031346B060C6F804B086F82F00BD
:1083240086F8300003F5E07188BF2A4E44F80A90BD
:1083340098BF4FF0A04640F20C6346F821307968AC
:108344001F291E468CBF01F01F030B4603F5E07383
:108354008CBFDFF880C04FF0A04C4CF82360D8F8F5
:108364000030C3F80825BA68C3F80C15C3F82425EF
:10837400B9F1000F1ED01B0B59B200293A7BB4BFD0
:10838400154E01F16046DBB2B8BF03F00F074FEAA8
:108394004212A8BF06F56146D2B2B4BFF25586F8C0
:1083A400002303F01F03012202FA03F349090B4AD5
:1083B40042F821303C2303FB0544012384F82D308B
:1083C400BDE8F88F0820FBE71120F9E7D032002040
:1083D400158202000003005014ED00E000E100E00B
:1083E400026803790521C2F80015044A3C2101FB07
:1083F4000323022283F82D20704700BFD0320020CF
:1084040003680A490279C3F80813D3F8001221F06B
:108414000301C3F800120021C3F80015044B3C21EA
:1084240001FB0232012382F82D307047864204009A
:10843400D032002070B50479204D3C2363430646B6
:10844400EB5863B103681B0B5AB20121520903F0C4
:108454001F0301FA03F32032194941F82230304650
:10846400FFF7CEFF306801F09DFA3C2303FB045371
:1084740093F83830DBB93168D1F808351F2B86BF43
:1084840003F01F030F484FF0A04003F5E0730222EE
:1084940040F82320D1F80C351F2B86BF03F01F03AF
:1084A40008494FF0A04103F5E07341F823203C2331
:1084B40003FB0454002384F82D3070BDD032002017
:1084C40000E100E0000300502DE9F74F2E4E90F834
:1084D4000480D0F800E02D4BCEF808333C2404FB94
:1084E4000864C8EB081994F82F308A46154606EB41
:1084F400890903F0FF0B33B1A368CEF804331120CC
:1085040003B0BDE8F08F82F00403C3F3800384F862
:108514002F3022628C46BCE80F0004F10C070FC711
:10852400DCF800303B60DAF80430A362DAF80C209F
:1085340062629AF80110CEF888159AF800100129A1
:108544001AD0B9B9C5F340153C2101FB086148466E
:1085540081F82C5000957146FFF766FD3C2303FB20
:1085640008F806EB080256F80830002BC8D182F848
:108574002F30C5E70125E7E784F82CB0714648465B
:10858400FFF7D2FDEAE700BFD032002086420400A4
:10859400F0B503681C7E1A68E4B227B296684FEA05
:1085A400C70C06EB0C0256F83760517917799279AB
:1085B40012F0010F4FEA510587B001F0010138D0E4
:1085C400002936D1D3F800E09EF80CE0013474455C
:1085D4002FDAD3F800E00CF10804DEF808C0A44454
:1085E4009CF805C0B5EB5C0F23D11A6891680A1991
:1085F40051F804C01C7E517992F804E09279013458
:1086040011F0010F4FEA4212E4B214BF0221032118
:1086140002F020021C768DF804100C3001A98DF8AC
:108624000550CDE9027ECDE9046CFFF74DFF07B09C
:10863400F0BD52014FF0000C02F02002E646EAE7DA
:10864400034608461A68126822B11A681B68516802
:108654001B681847704700002DE9F74F0568DFF8DD
:1086640098B004460E464FF000080DF107008DF84F
:108674000780FFF78FF816B923681B6843B90022F7
:108684002946606800F0BAF968B3C5F8008000268E
:108694009DF80700FFF7A2F856B32B681B6923BBAC
:1086A4002F1D10223946686907F053F980B104F18F
:1086B4000C0A504604F10809FFF7BCFE23465A464B
:1086C4003946484602F074F95046FFF789FE6F6157
:1086D40085F818802046FFF75BFF014640B120680B
:1086E400FFF7AEFFC1E70126D2E72B681F69D8E781
:1086F40003B0BDE8F08F00BF0187020010B50C463F
:10870400017871B92268137E10680133007BDBB2F3
:10871400984207D913762046FFF73AFF014608B975
:1087240010BD03212068FFF78BFF20460121BDE81F
:108734001040FFF791BF0000F8B50C4A0346044609
:1087440008300D4602F034F9064660B904F10C0015
:10875400FFF746FE276895E80F003C4644F8046B93
:1087640084E80F007C613046F8BD00BF0187020039
:1087740010B504460C30FFF75DFE236800221A6032
:1087840010BD37B505460191406801A900F0D9F83C
:10879400044618B901462846FFF75EFF204603B099
:1087A40030BD8B6A10B50C460BB1C9689847E36AB3
:1087B40021465868BDE81040FFF7C4B8CB6A586832
:1087C400FFF7C0B84068FFF782B800002DE9F04118
:1087D400064640680D4617469846FFF78FF804464C
:1087E40068B3012305FA03F1069A0770C0E90A8603
:1087F4006060037241728372C26019439DF81C2049
:10880400837400F114030274417414220021184685
:1088140007F0A9FF0B4AC4E90524221DE2610222E4
:1088240084F8202001463068FFF7ABFF054618B1F5
:1088340021467068FFF786F82846BDE8F0810425D4
:10884400FAE700BFA78702002DE9F8430546406810
:108854009DF820900F4690461E46FFF74FF80446B9
:10886400A8B37F000023C562C0F810800675477561
:108874008375B9F1000F0ED0102E07D90146686830
:10888400FFF760F809263046BDE8F88332464146D2
:1088940007F040FF246104F1180314220021184654
:1088A40007F061FF0B4AC4E9062404F110022262B6
:1088B400012284F8242001462868FFF762FF064657
:1088C4000028E0D021466868FFF73CF8DBE704267F
:1088D400D9E700BFC187020070B586B005469DF890
:1088E40028400F2C0E4612D819468DF808200DF199
:1088F4000900224607F00EFF0122631C0092DBB23E
:1089040002AA31462846FFF79FFF06B070BD092032
:10891400FBE7026813685268934291BFD01A8068DB
:108924000130801888BFC01A7047036881681A68CC
:108934005B688B4234BF01330023D31A5842584139
:108944007047F7B5002304460DF107000D468DF876
:108954000730FEF71FFF2046FFF7E7FF10B1237C27
:10896400002B3CD12268A66853685168B14234BFD9
:1089740001310021516030B11168A068814234BFD7
:10898400013100211160E2686068511E072920D876
:10899400DFE801F004101F141F1F1F182A78C254A7
:1089A4002046FFF7B6FF23689A68824200D2986097
:1089B400002415E02A8820F81320F1E72A6840F8FB
:1089C4002320EDE7D5E9006700EBC300C0E90067A9
:1089D400E6E7294602FB030007F09CFEE0E70424D7
:1089E4009DF80700FEF7FAFE204603B0F0BD0368C9
:1089F40018685B68C31A58425841704773B500231E
:108A040005460DF107000C4616468DF80730FEF7B3
:108A1400C1FE2846FFF7EBFF002832D129680B6816
:108A24002EB90A68A868824238BF561C0E60EA68EC
:108A34006968501E07281ED8DFE800F0040E1D12D6
:108A44001D1D1D16CB5C237000249DF80700FEF746
:108A5400C5FE204602B070BD31F813302380F3E721
:108A640051F823302360EFE701EBC301D1E9002380
:108A7400C4E90023E8E703FB0211204607F04AFE9D
:108A8400E2E70524E1E70000054B1B68082B01BF62
:108A9400044B1868B0FA80F0400918BF00207047F2
:108AA400300100103401001008B54FF0804300225B
:108AB400C3F80C21C3F81021C3F838254FF08052B5
:108AC40003F54043D2F80414C3F82015D2F808146F
:108AD400C3F82415D2F80C14C3F82815D2F81014CE
:108AE400C3F82C15D2F81414C3F83015D2F818149E
:108AF400C3F83415D2F81C14C3F84015D2F8201466
:108B0400C3F84415D2F82414C3F84815D2F828142D
:108B1400C3F84C15D2F82C14C3F85015D2F83014FD
:108B2400C3F85415D2F83414C3F86015D2F83814C5
:108B3400C3F86415D2F83C14C3F86815D2F840148D
:108B4400C3F86C15D2F84424C3F87025FFF79CFFD2
:108B540010B1384B384A1A60FFF796FF18B1374BFB
:108B6400FB22C3F81825FFF78FFF48B13449354B72
:108B74000A681B6822F00F0203F00F0313430B6013
:108B8400FFF782FF18B1304B4FF400721A604FF0B8
:108B94008043D3F80024D20744BF6FF00102C3F826
:108BA40000242A4AD2F8883043F47003C2F888308B
:108BB400BFF34F8FBFF36F8F4FF01023D3F8002212
:108BC400002A03DBD3F80432002B2FDA204B0122D6
:108BD400C3F80425D3F80024002AFBD04FF0102258
:108BE4001221C2F80012D3F80024002AFBD04FF05F
:108BF40010231222C3F80422154B1A46D3F800148A
:108C04000029FBD00021C3F80415D2F80034002B4E
:108C1400FBD0BFF34F8F0D490E4BCA6802F4E062DC
:108C24001343CB60BFF34F8F00BFFDE70A4B0B4AE2
:108C34001A6008BD8C5600404881030000F00040D3
:108C4400E40E0040580200104096024000ED00E09F
:108C540000E001400400FA05B42A00200090D0038B
:108C6400405C003018BF0120704701234354704713
:108C740000234354704710B4D0E90140A4465DF882
:108C8400044B604710B404688068A4465DF8044B44
:108C94006047000007EE900AB8EEE70ADFED027ABB
:108CA40020EE270A704700BF23DB793D37B5012347
:108CB4000C466A4620210546FFF7DDFF18BB9DF8E8
:108CC4000030A20862F3830364F301038DF80030DB
:108CD4006A46012320212846FFF7D4FF98B90123CF
:108CE40001AA25212846FFF7C6FF60B99DF8043084
:108CF400240964F382038DF8043001AA0123252199
:108D04002846FFF7BFFF03B030BD37B501230C463B
:108D14006A4620210546FFF7AEFF00BB9DF80030F0
:108D240064F307138DF800306A4601232021284696
:108D3400FFF7A8FF98B9012301AA22212846FFF7CB
:108D44009AFF60B99DF80430240964F301038DF897
:108D5400043001AA012322212846FFF793FF03B020
:108D640030BD37B501230D4601AA21210446FFF782
:108D740082FF58B99DF8043065F3C3038DF80430BD
:108D840001AA012321212046FFF77CFF03B030BD57
:108D940037B501230D4601AA25210446FFF76BFFD1
:108DA40058B99DF8043065F305138DF8043001AA11
:108DB400012325212046FFF765FF03B030BD13B51D
:108DC40001230C4601AA2721FFF755FF9DF8043023
:108DD400C3F30003237002B010BD0A460623282102
:108DE400FFF749BF0A4601230F21FFF744BF37B5F8
:108DF40001230D4601AA21210446FFF73CFF58B97F
:108E04009DF8043065F386138DF8043001AA01231C
:108E140021212046FFF736FF03B030BD13B50123EF
:108E24000C4601AA2121FFF726FF9DF80430C3F365
:108E34008013237002B010BD37B501230D466A4676
:108E440025210446FFF717FF00BB9DF800202B09DE
:108E540063F3C3028DF8002001236A4625212046CE
:108E6400FFF710FF90B9012301AA3F212046FFF725
:108E740002FF58B99DF8043065F304138DF80430EB
:108E840001AA01233F212046FFF7FCFE03B030BDB9
:108E940037B501230D4601AA25210446FFF7EBFE51
:108EA40058B99DF8043065F387138DF8043001AA8E
:108EB400012325212046FFF7E5FE03B030BD000065
:108EC4004FF0804301220021C3F81825C3F8041190
:108ED4009A60D3F80421002AFBD00C4B40F6FF72B1
:108EE400C3F808254FF48032C3F84423C3F804239D
:108EF400074A1268D200C3F84C2501221A60054BB8
:108F0400C02283F8242310225A6070470040024094
:108F1400B82A002000E100E0094B10B51860094BA5
:108F240009481960094B0268D3F8044502EBD402DE
:108F34000260C90001229A60C3F8401510BD00BF49
:108F440014330020B82A002070330020004002406F
:108F540010B5144CA0F26C70C4E90232029B636039
:108F6400C4E90410039B2360204606F0B7FF0E4BB0
:108F74000E4C01229A600E4A116879B1431A07EE29
:108F8400103A23685B1A07EE903AB8EEC77AF8EE07
:108F9400E77A084BC7EE276AC3ED006A10602060C9
:108FA40010BD00BF98330020004002407033002001
:108FB4006C330020683300200B4B73B5D3F80425C1
:108FC4000A4B0B4E1B6801A803EBD203019307F075
:108FD40043F805460FCD34460FC40FCD0FC42B689C
:108FE4002360304602B070BD004002407033002060
:108FF40074330020194BD3ED006AF5EE406AF1EEAC
:1090040010FA37B526D0164B164AD3F80415164B6A
:1090140012681B68154C02EBD102D21A07EE902A93
:10902400B8EEE77AF6EE007AE6EE877A01A8FDEE6E
:10903400E77A17EE902A1A44019207F00DF80546D4
:109044000FCD0FC40FCD0FC420462B6840F8203934
:1090540003B030BDFFF7B0FFFAE700BF683300206C
:1090640000400240703300206C3300207433002031
:1090740008B548B1FFF7BEFF0346054A054850212D
:1090840007F03EFB034808BDFFF796FFF4E700BF77
:10909400D91E030018330020094BD3F8402172B1C4
:1090A4000022C3F8402101229A600649064A096851
:1090B40013680B441360054B1B6803B118477047D2
:1090C40000400240B82A00207033002014330020EE
:1090D400074B1B5C1F2B8ABF064A4FF0A04203F0CC
:1090E4001F03D2F80405D840C04300F001007047C4
:1090F400EB1E030000030050074B1B5C1F2B86BFB5
:1091040003F01F0305494FF0A041012202FA03F3C3
:10911400C1F80C35704700BFEB1E0300000300507C
:10912400074B1B5C1F2B86BF03F01F0305494FF041
:10913400A041012202FA03F3C1F80835704700BFC9
:10914400EB1E03000003005008B50020FFF7E8FF02
:109154000120FFF7E5FF0220FFF7E2FF0320BDE84F
:109164000840FFF7DDBF08B50020FFF7C5FF012069
:10917400FFF7C2FF0220FFF7BFFF0320BDE808404E
:10918400FFF7BABF0A4B185C1F288ABF094B4FF080
:10919400A04300F01F00D3F804250121814021EAF7
:1091A40002000A40C3F80805C3F80C25704700BF45
:1091B400EB1E030000030050074B1B5C1F2B8ABFF0
:1091C400064A4FF0A04203F01F03D2F81005D8401E
:1091D400C04300F001007047E71E03000003005085
:1091E4000B2809D00C2809D0182809D019280CBF3D
:1091F40003204FF0FF307047002070470120704774
:1092040002207047014B185C704700BFE71E030043
:10921400C20710B504460CD54FF0A0430322C3F88F
:109224003427C3F83827C3F83C27C3F84027FFF78F
:109234008BFFA3070AD54FF0A0430C22C3F82C27B9
:10924400C3F83027C3F86027C3F8642710BD0000B3
:1092540038B5074C051E04F1080318BF1C462368E3
:109264002BB11A6822605B6828469847F7E738BD37
:10927400C433002020B9054B01225A70FFF7E8BF20
:10928400012802D1014A9070F8E77047BC330020EE
:1092940020B9034B01225A70FFF7DABF704700BFB1
:1092A400BC33002038B50B4C237883B90A4863607B
:1092B400A3602361E36000F0C7F8054603F0EEFA0B
:1092C40008B900F0CDF801232370284638BD852560
:1092D400FBE700BFBC3300207992020037B50B4C8A
:1092E40000230DF107008DF80730FEF753FAE36809
:1092F400013BE360E56815B900F0C4F8A5709DF87A
:109304000700FEF76BFA03B030BD00BFBC3300208A
:10931400012813B509D018B103281CD002B010BD20
:109324000F4B0122C3F88020F8E70E4C00230DF107
:1093340007008DF80730FEF72DFA23780BB9FFF7F5
:10934400B1FFE3689DF807000133E3600123A370D4
:10935400FEF744FAE2E700F083F8FFF7BFFFDDE72A
:1093640000E100E0BC3300201FB503788DF8003025
:109374004368019383688DF80830C3680393054AF2
:10938400054B684653F8213052F82110984705B030
:109394005DF804FBD0330020D83300201FB50378D8
:1093A4008DF800304368019383688DF80830C368F2
:1093B4000393054A054B684653F8213052F82110AF
:1093C400984705B05DF804FBD0330020D833002063
:1093D400F0B5184B0778DFF86CE043F82720164BFC
:1093E40016460A6943F827204B7F0EF807300C46CF
:1093F40084460FCC89B06D460FC594E80F0085E80C
:109404000F001EF80730049753B1002E0B4A69462B
:1094140008BF32460CF1040000F0E8FD09B0F0BDCD
:10942400002E074A694608BF32460CF10C0000F0D2
:10943400B1FBF3E7D8330020D03300206D93020052
:10944400A1930200E0330020044A137923B90121D7
:10945400106091801846704785207047E4330020DF
:10946400074B1A68D2075FBFC02283F8002301228A
:109474001A604FF080430122C3F81825704700BFDB
:1094840000E100E0044B01221A604FF08042D2F860
:109494001834DB03FBD470470C000040154B07B5B0
:1094A4001A687AB100221A601B680093009B4FF07F
:1094B40080430122C3F808230F4B587910B95A711D
:1094C4001B6898470D4B1A6882B100221A601B680A
:1094D4000193019B4FF080430222C3F80823064BFB
:1094E4001B68012003B05DF804EB184703B05DF876
:1094F40004FB00BF00010040E433002004010040ED
:1095040000F1804000F5C040002382B0036003688E
:109514000193019B02B0704703681F2B83BF03F0C4
:109524001F03036001484FF0A04070470003005040
:1095340007B5019001A8FFF7EFFF019B00EB830043
:10954400D0F8002722F44032C0F80027D0F80037C2
:1095540043EA0143C0F8003703B05DF804FB0000A0
:10956400054B4FF0FF32072843F8202084BF1B1817
:1095740083F85820704700BFEC33002010B5174C17
:1095840094F86A3043BB04F130033021FF220139DF
:1095940011F0FF0103F8012BF9D1C8B2FFF7E0FF86
:1095A40001310C29F9D1062200210D4807F0DBF81E
:1095B4000C4BC02283F8062340221A604FF4BE707D
:1095C400FFF79EFF084B4FF00042C3F8042301232A
:1095D40084F86A30002010BD0820FCE7EC3300203A
:1095E4005034002000E100E000600040034B93F899
:1095F4006A00003018BF0120704700BFEC33002020
:10960400F7B53B4E3318054693F93030002B6CDA2E
:109614008B78C3F34003002B0BBF082400240C20D9
:109624000820844202D1042003B0F0BD56F824700F
:10963400013743D1701946F8242080F8304013B91B
:10964400331983F858508B785A0717D4D80737D56D
:1096540001A80195FFF760FF019B00EB8300D0F8A0
:10966400003723F00203C0F800372248EA0805F067
:1096740007070123BB40875C3B43835488780A78FF
:1096840010F0020028D0A40004F1804404F5C04482
:109694002D02D4F8103523F44F3323F44073C4F867
:1096A40010351204D4F8103505F47C5502F4403218
:1096B40015431D43C4F810550020B5E70134B0E745
:1096C40001A84A780195FFF727FF019B03F5E07392
:1096D400920040F82320C8E7083C344494F86050D2
:1096E40045EA821284F860209EE708209CE700BFC8
:1096F400EC3300205034002073B5224C2518064664
:1097040095F93020072A19DD224492F858309B0934
:10971400032B0FD1019001A8FFF7FEFE019AD0F8A8
:109724001035D340DB0707D402213046FFF700FF92
:1097340002B070BD012BF7D00321F6E7D3B2072B9B
:10974400F6D8930003F1804303F5C043D3F8100522
:1097540040F00100C3F8100502F14000800080B21F
:10976400FFF7CEFE0029E3D095F9303054F82330CA
:10977400002BDDD0012303FA02F2034BC3F80423C8
:10978400D6E700BFEC3300200060004007B501902D
:1097940001A8FFF7C1FE019BD0F81005D84000F0E6
:1097A400010003B05DF804FB2DE9F04F002489B0FB
:1097B400CDE90244624D4FF48072012102F18043ED
:1097C40003F5C04390B21B68012B06D1D5F80433CE
:1097D4000B4202D0FFF794FE0C430432B2F5907FA3
:1097E4004FEA4101EAD1574B1B68012B0ED14FF4CC
:1097F400BE70FFF785FE4FF0A04344F00044D3F859
:1098040010350293504BD3F81035039314F0FF0F27
:109814001AD04E4F00250126344210D0AB0003F17C
:10982400804303F5C043D3F81005D3F8101557F857
:10983400253023B1C1F30141C0F305209847013518
:10984400082D4FEA4606E7D1002C75DA0DF1100811
:1098540000230493C8F804304FF0FF33CDE90633F6
:10986400DFF8E8A0DFF8E89000273D4619F9014B3E
:10987400631C48D0E4B2012324F0C00604F00702BC
:1098840003FA02F2F00808AB191811F8083C134265
:1098940039D00AEB0603A40993F930305AF823B0FF
:1098A400BBF1000F08D1032C2DD118F800C04CEAED
:1098B400020C08F800C001E0032CF6D001A80196C0
:1098C400FFF72AFE019B11F8181C03F5E07C1142F6
:1098D40050F82C00C0F3014005D0022813D1032C0A
:1098E4000BD1214604E003280DD1032C05D102211C
:1098F4003046FFF71DFE0135EDB2BBF1000F02D07B
:1099040021463046D8470137042FAFD1A5B14FF0D7
:10991400A0430299D3F8102503F540739142D3F87C
:10992400103502D10399994206D002920393049A06
:10993400059B0692079395E709B0BDE8F08F00BF39
:10994400006000407C61004000030050EC330020C4
:109954004C340020014B1B68184700BF58340020CA
:109964000E4B984237B50D4602D0002003B030BDEF
:1099740000230DF107008DF80730FDF70BFF084BAE
:109984001C7914B901221D601A719DF80700FDF7B6
:1099940025FF002CE9D01120E8E700BF002000409B
:1099A40058340020034B984201BF034B00221A6035
:1099B4001A7170470020004058340020002343509F
:1099C40082B043580193019B02B070470A4610B518
:1099D4004FF48E71FFF7F2FF136A9168C95C136A42
:1099E40001331362C0F81C1510BD024608B54FF4CC
:1099F40092710068FFF7E2FF4FF484711068FFF77B
:109A0400DDFF136801221A6008BD8B690A4610B590
:109A14004FF4847123B9FFF7D1FFD0F8183510BD86
:109A2400FFF7CCFF536AD168D0F81805C854536ABD
:109A340001335362F3E700001FB501238DF80030B2
:109A4400044BCDE90110D3E900126846904705B0F4
:109A54005DF804FB6034002030B54C4AD2F804337E
:109A640013F4007F85B015464FD0D2F82431002B73
:109A74004BD04FF492711046FFF7A0FF4FF40173DF
:109A8400C2F80833424B93F8291009B901215160F7
:109A94003E4902228DF80020D1F88024C1F88024A8
:109AA40003929A690292DA6801920022C3E90622BB
:109AB4006846D3E9001290473448D0F81C315BB1B2
:109AC40033490A6A4B699A420A464BD291F82830C4
:109AD400002B47D1FFF77AFF2C4AD2F8443193B1D7
:109AE4004FF4A2711046FFF769FF294B93F8291030
:109AF40009B1012111609A692AB100229A61586A58
:109B0400D968FFF799FF05B030BDD5F804335B077A
:109B1400D2D5D5F80831002BCED01D4C1B48214698
:109B2400FFF773FF636AA2699A422346C4D1E269CC
:109B3400E1684AB12369E3600023606AA261E361DA
:109B44006362FFF779FFB7E794F829200AB9012285
:109B54006A600E4A4FF40170C2F8080300229A6149
:109B6400586AEEE74FF48E710848FFF727FF5169F2
:109B74000029B1D00023029191688DF80030019141
:109B840053616846D2E900139847A5E700200040D6
:109B9400603400202DE9F843624F047991462C2269
:109BA40002FB0472064692F82A200D46002A40F071
:109BB400B3805D490068FFF7D3FE8046002840F07B
:109BC400AE8029684A1C10D01F2987BF01F01F03EB
:109BD400564A0B464FF0A0420120984003F5E0732B
:109BE400C2F80805032042F823006868431C0DD01E
:109BF4001F288BBF00F01F0303464C4A4FF0A042BE
:109C040003F5E0734FF0000C42F823C03368AA69EF
:109C140095F814C0C3F824256A7DBCF1010F4CEA01
:109C24000202C3F86C25C3F81405C3F80C152BD134
:109C3400A968481C0DD01F298BBF01F01F020A46DA
:109C44003A484FF0A04002F5E0724FF0000C40F8A3
:109C540022C0E868421C13D01F2887BF00F01F0CE5
:109C6400324A84464FF0A0424FF0010E0EFA0CFE29
:109C74000CF5E07CC2F808E54FF0030E42F82CE046
:109C8400C3F80805C3F810152C236343FA18C2F867
:109C940004902A69FA50B9F1000F2AD04FF48E715A
:109CA40030682D7FFFF78AFE30684FF4A271FFF70A
:109CB40085FE32681E4BC2F80433120B51B20029E0
:109CC400A8BF01F160404FEA4513BABF194802F03A
:109CD4000F0500F56140DBB2B4BF435580F8003393
:109CE40002F01F02012303FA02F24909124B43F85E
:109CF400212033680422C3F800252C2303FB0473BA
:109D04000022C3E9062283F829205A61012283F83C
:109D14002A204046BDE8F8834FF00808F9E74FF0E1
:109D24001108F6E7603400205D9A02000003005039
:109D34008000020014ED00E000E100E02DE9F047AE
:109D4400214F06794FF02C0909FB0674804665699A
:109D5400002D37D16261A16025624FF48E710068D5
:109D640084F82850FFF72AFED8F800000123836006
:109D74002146FFF72BFE6368A14693B9D8F800A0EB
:109D8400226A63699A4212D3D8F80030D3F81C21AE
:109D9400002AFBD00122DA602C2303FB0676002381
:109DA40073612846BDE8F08794F8283043B9DAF89F
:109DB4001C31002BF8D049465046FFF707FEDFE779
:109DC4000F25E9E71125ECE7603400200379044A04
:109DD4002C2101FB03235869003018BF0120704770
:109DE400603400202DE9F843394E05792C2303FB18
:109DF400056307465C6824B103684FF40170C3F837
:109E040008032C2303FB0563986950B1D869002823
:109E14003ED024B13B684FF40172C3F804231124EB
:109E240033E09A61D9605862D8612C2303FB05633F
:109E340093F829301BB910B93846FFF7D6FD4FF017
:109E44002C0909FB05683868D8F80430002B34D194
:109E54004FF4A271FFF7B2FDC1463868D0F824313F
:109E6400D0F80821D0F84441B2B90CB9002BF4D091
:109E74002C2202FB05650022AA6123BB2CBB95F8AA
:109E840029103B680122B1B11A602046BDE8F8836D
:109E94001961DA610120C8E7002BE9D1002CE7D170
:109EA4004946FFF7B2FDD8F82430D8F818209A4272
:109EB400D3D82346DCE75A60E7E74FF40173C0F8D0
:109EC40004330024E1E70324DFE70F24DDE700BFC8
:109ED400603400200023435082B043580193019B17
:109EE40002B070471FB501238DF80030044BCDE953
:109EF4000110D3E900126846904705B05DF804FBF1
:109F04008C3400207FB5374AD2F82461002E48D023
:109F140010464FF49271FFF7DDFF02238DF80030F5
:109F2400D2F88034C2F880340393D2F83C350293DB
:109F34002D4BDA6801920022C3E906226846D3E970
:109F440000129047274AD2F844317BB14FF4A271F2
:109F54001046FFF7BFFF244B996939B10021C3E9CB
:109F64000611D968D2F83C05FFF7BCFF1D4AD2F8A8
:109F74002031A3B14FF490711046FFF7ABFF1A4B99
:109F8400596961B1D2F84C150291002299688DF893
:109F9400002001915A616846D3E90012904704B049
:109FA40070BDD2F81031002BCCD04FF4887110461C
:109FB400FFF790FF0C4BD2F83C0599698842C1D158
:109FC400DC69D96864B1D2F8005225F02005C2F8E2
:109FD40000521A699C61DA60DE61FFF783FFB1E722
:109FE4009C61FAE7002000408C3400202DE9F843FE
:109FF400664F06799146242202FB0672044692F8C3
:10A0040020200D46002A40F0BB8061490068FFF71C
:10A01400A7FC8046002840F0B6802868421C10D077
:10A024001F2887BF00F01F035A4A03464FF0A0427F
:10A034000121994003F5E073C2F80815032142F8A1
:10A04400231069684B1C0DD01F298BBF01F01F031F
:10A054000B46504A4FF0A04203F5E0734FF0000C5A
:10A0640042F823C02368AA6995F814C0C3F82425CC
:10A074006A7DBCF1010F4CEA0202C3F86C25C3F8F7
:10A084000C05C3F814152BD1A968481C0DD01F2941
:10A094008BBF01F01F020A463E484FF0A04002F574
:10A0A400E0724FF0000C40F822C0E868421C13D064
:10A0B4001F2887BF00F01F0C364A84464FF0A04289
:10A0C4004FF0010E0EFA0CFE0CF5E07CC2F808E528
:10A0D4004FF0030E42F82CE0C3F80805C3F810153E
:10A0E40024237343FA18C2F804902A69FA50B9F188
:10A0F400000F34D04FF4887120682D7FFFF7EAFEFB
:10A104004FF490712068FFF7E5FE4FF492712068D8
:10A11400FFF7E0FE20684FF4A271FFF7DBFE226830
:10A124001D4BC2F80433120B51B20029A8BF01F130
:10A1340060404FEA4513BABF184802F00F0500F516
:10A144006140DBB2B4BF435580F8003302F01F0214
:10A15400012303FA02F24909114B43F82120236831
:10A164000822C3F80025242303FB06730022C3E955
:10A1740006225A61012283F820204046BDE8F88374
:10A184004FF00808F9E74FF01108F6E78C34002087
:10A19400099F0200000300501003020014ED00E0C8
:10A1A40000E100E001F06043B3F1005F2DE9F0410C
:10A1B400074632D11B4B0679242505FB0635984604
:10A1C4006C6964BB6A61A96000684FF49071FFF721
:10A1D40081FE4FF4AC713868FFF77CFE3B686A6916
:10A1E400A968C3F84415C3F8482501229A606A682F
:10A1F40062B9D3F82021D3F8584152B9002CF8D0D1
:10A204000F24242303FB0686002373612046BDE844
:10A21400F081002C18BF0F24F3E71024F6E7112473
:10A22400F4E700BF8C3400200379044A242101FBA5
:10A2340003235869003018BF012070478C34002074
:10A24400F8B501F06043B3F1005F04460F465ED1F8
:10A254000379304D242101FB0351486820B1216862
:10A264004FF40476C1F80863242101FB03539E696B
:10A2740056B1D969002939D020B123684FF404724A
:10A28400C3F80423112030E09A61DF60DE614FF4EB
:10A2940088712068FFF71EFE4FF4A2712068FFF753
:10A2A40019FE2368C3F83475C3F8382516BB012298
:10A2B4001A602179242202FB015252680ABBD3F8A6
:10A2C4001041D3F84421D3F82401144302D10028C7
:10A2D400F5D02246242303FB01550023984218BFDE
:10A2E40003209A42AB6118BF0F20F8BD1F61DA61E9
:10A2F4000126CCE7D3F8002242F02002C3F8002262
:10A30400D7E74FF40472C3F804230020EDE71020CC
:10A31400EBE700BF8C340020034B187810B90122FE
:10A324001A70704785207047B03400202DE9F74F2C
:10A334004FF00009154D164E07464FF0040AC84663
:10A344005FFA89FB01240DF1070004FA0BF48DF880
:10A354000780FDF71FFA2C4208D0336814EA030281
:10A3640001BF2343336087F800B092469DF807008D
:10A37400FDF734FABAF1000F03D0A54309F101093E
:10A38400DED1504603B0BDE8F08F00BFFFFF0100EF
:10A39400B434002010B5A1B19AB101238340C3F3B2
:10A3A400100484B10A4C246823420ED0C00000F18A
:10A3B400804000F5F830C0F81015C0F814250020CE
:10A3C40010BD0E20FCE70720FAE70820F8E700BFDD
:10A3D400B434002001238340580C400440B91BB11D
:10A3E400054A1268134205D0044AC2F8043570477E
:10A3F4000720704708207047B434002000F0014063
:10A4040001238340580C400440B91BB1054A12682B
:10A41400134205D0044AC2F8083570470720704734
:10A4240008207047B434002000F0014000F180405F
:10A4340000F5E040002382B0036003680193019BB0
:10A4440002B07047F0B5534B534C1B6885B0002BDA
:10A454003DD04FF4827094F82E20FFF7E7FF2AB323
:10A4640094F82F3013BB4D4B1B68002B33D04FF4A3
:10A474008070FFF7DBFF94F82D20638B91B28B4241
:10A484004ED95B1A21899BB26383CB1A616801EBB5
:10A494004301434BC3F82C16C3F830264FF48270A3
:10A4A400FFF7C4FF3F4B01221A6014E06368029374
:10A4B4002389ADF80C30E36800218DF8041023BB28
:10A4C4002374236801A89847002384F82F3094F854
:10A4D4002E30002BC7D1344B1B685BB14FF488700E
:10A4E400FFF7A4FF0023237402238DF8043001A88E
:10A4F400236898472D4B1B6813B34FF48A70FFF7FA
:10A5040095FF0023237405B0F0BD208B6083636046
:10A514002081E160002AD4D1214B01221A60D0E7C6
:10A52400BCD1E368012184F82F103BB10021618381
:10A534001B49C1F82C36C1F83026AFE76383ADE779
:10A5440066694FF000470125002EDCD0B6FA86F28A
:10A5540027FA02F34632920026EA030602F1804308
:10A5640003F5E0431B68002BEED01046FFF75EFFB7
:10A57400A2F58C72D30882F00402C2F380028DF833
:10A5840008308DF804508DF80920236801A89847F5
:10A59400DAE700BF04710040B834002000710040C5
:10A5A40000700040047000401071004014710040BD
:10A5B40038B51E4B044693F82C00A8BB1C4A1960FE
:10A5C4002178C2F8F0156178C2F8F415E5781874AA
:10A5D400012183F82C1083F82D00586183F82F0093
:10A5E40083F82E506FF00043C2F808334FF48270A2
:10A5F400FFF71CFF4FF48070FFF718FF4FF48A70C9
:10A60400FFF714FFA3780B485B01DBB280F8073334
:10A61400802303600223C2F804330DB1C2F804138B
:10A62400C2F80015002038BD0820FCE7B83400202B
:10A634000070004000E100E0224B1A7C30B5002A93
:10A644003ED100F10C0403EB4402127922B993F8D1
:10A654002D20013283F82D2003EB4403CA790C7AB0
:10A664001A715C718D784B782D021B0105F4E0653D
:10A6740003F030032B430D7805F003052B43CD780D
:10A684002D0305F480552B430D792D0405F4E025A5
:10A694002B434D7989792D0505F48015090601F0C0
:10A6A40080712B430B43010101F1804101F5E0412D
:10A6B4000020C1F81835C1F81445C1F8102530BD83
:10A6C4001120FCE7B8340020054B93F82E30002B02
:10A6D40014BF0020042000F1804000F5E0407047E2
:10A6E400B8340020264A274B70B505461220C2F81C
:10A6F40008031C7C022C03D1C2F80403112070BD92
:10A70400187C01281DD1D86818B10223C2F804337B
:10A71400F4E7DD60198393F82E3063B91A4A13689D
:10A72400002BFCD04FF48070FFF780FE144BC3F86D
:10A734002C56C3F83016124B0222C3F8042300200F
:10A74400DDE7022093F82E40C2F80403012600201E
:10A754001E745D601981D8603CB1598393F82D3023
:10A76400C2F82C56C2F83036C9E7C2F82C564FF45A
:10A774008070C2F83016FFF759FE20461660BEE717
:10A7840000700040B834002000710040F7B506792D
:10A794002F4D0C237343EF183C7A002C55D1EA500B
:10A7A4004B687B60477903682246D0B2874243D81E
:10A7B4001A0B54B2C878002CA8BF04F16047D2B277
:10A7C400BABF02F00F0C234F07F561474FEA401060
:10A7D400C0B2B4BF07F80C0087F800036409012075
:10A7E40002F01F021C4F00FA02F247F824204A78B4
:10A7F400D3F8044502F0030224F003042243C3F80F
:10A804000425D3F808458A7824F0030402F00302EF
:10A814002243C3F80825D3F810450A7824F00F041E
:10A8240002F00F022243C3F810250C2303FB065544
:10A834002872002003B0F0BD900000F5A070013232
:10A844001C50185801900198AFE70820F2E700BFA8
:10A85400E834002014ED00E000E100E00368012288
:10A864001A600379034A0C2101FB032302221A72A2
:10A87400704700BFE83400200368044901221A61CC
:10A8840003790C2000FB03131A727047E83400208C
:10A8940037B54FF480348C4000687BB101F150032C
:10A8A4009B000025C550C3580193019BC0F8044385
:10A8B40001F5A87140F8212003B030BDC0F8084369
:10A8C400F6E770B4046840F20116D4F800528E40E2
:10A8D40025EA0605C4F80052D4F800522B43C4F804
:10A8E40000329DF80C3070BCFFF7D2BF2DE9F34164
:10A8F400104C114F114E00254FF48038236804F595
:10A90400C04080B26BB1D7F8043308FA05F21A429A
:10A9140007D00023236023680193019BD6E900310B
:10A9240098470135062D04F10404E7D102B0BDE8CF
:10A93400F08100BF40A1014000A00140E8340020A4
:10A944001FB503788DF800308388ADF80430836830
:10A954008DF80630C3688DF80730036902934369A4
:10A964000393054A054B684653F8213052F82110E9
:10A97400984705B05DF804FBF4340020FC34002053
:10A98400024B4FF4807043F001031847301F03005B
:10A994001F2886BF00F01F00044A4FF0A042012385
:10A9A40003FA00F0C2F80805704700BF0003005026
:10A9B4002DE9F04716460778394A42F82760394AA4
:10A9C40042F827304B7B80460C46A3B30868DFF877
:10A9D400DC904FF0A04100F5E07340F20C6241F8C6
:10A9E4002320636803F5E073002541F82320FFF773
:10A9F400CFFF6068FFF7CCFF236803F5E07340F2F4
:10AA04000D6241F82320636803F5E0734FF0010AF7
:10AA140041F82320FFF7B4FF63681F2B8ABF4A461F
:10AA24004FF0A04203F01F03D2F8102522FA03F3DB
:10AA3400DB070CD50DBB002E3B461B4A214608BF45
:10AA4400324608F10400BDE8F047FDF743BC236833
:10AA54001F2B86BF03F01F034A464FF0A0420AFA99
:10AA640003F3C2F80C35FFF78BFF01352068FFF7BD
:10AA74008FFFFFF785FF092DCED163681F2B86BF9B
:10AA840003F01F0309494FF0A041012202FA03F326
:10AA9400C1F80C35FFF774FF6068FFF779FFCAE768
:10AAA400FC340020F434002045A9020000030050C7
:10AAB4000220FEF767BB00002DE9F04781460D46F2
:10AAC400FEF78EFB0328044604D8012D04D025B3D9
:10AAD400022D2FD0BDE8F087194D47003A18A91868
:10AAE400AE5C4A7852B1DFF86880164842464FF4AB
:10AAF4000041FCF703FD08B988F800903B192B448A
:10AB04009A78114B1A55002EE4D0104B1B68002B79
:10AB1400E0D03046BDE8F04718470A48FCF734FD5A
:10AB2400074B04EB440213449E78074B1B5DB3426E
:10AB3400D0D1E8E7024B00EB40041C446678E2E71E
:10AB44006835002028350020813500207C35002020
:10AB54000435002002210078FFF7AEBF08B5094B89
:10AB64001B7853B10020FEF7DBFA0120FEF7D8FA78
:10AB74000320BDE80840FEF7D3BABDE80840FEF75D
:10AB8400E3BA00BF05350020F8B57B4C23780546B1
:10AB94001BB100232370FFF7E1FF172D00F288801B
:10ABA400DFE805F00C17174354657680888D888D8F
:10ABB400959A9A9A9A9AC4C9D1D9E4E4FFF7CEFF38
:10ABC4006E48FCF7E1FC6E4B002204461A702046E6
:10ABD400F8BD0020FEF77CFAF8B10020FEF7A0FAD9
:10ABE400022D0CBF4FF4E1614FF47A61644B1D7088
:10ABF4004FF400404FF4FA740025E0FB01454FF494
:10AC04007A7200232046294604F016FC00220146ED
:10AC14005A48BDE8F840FCF771BCFEF76DFA022D06
:10AC24000CBFC8214FF4C871E0E70020FEF750FACA
:10AC340040B10020FEF774FA4FF44871504B0322E0
:10AC44001A70D5E7FEF758FAC821F7E70020FEF797
:10AC54003FFA38B10020FEF763FA4FF47A61484BAB
:10AC64000422EDE7FEF748FA4FF4C871F7E7002035
:10AC7400FEF72EFA48B10020FEF752FA404B0522A7
:10AC84001A7041F69A110022C2E7FEF735FAF5E789
:10AC94000020FEF777FA3A4B06221A70002240F69B
:10ACA400CD41B5E70020FEF727FA354B07221A708D
:10ACB40000248CE701202070FEF764FAEEE70120FF
:10ACC4002070FEF75FFA00224FF48041A0E7FEF700
:10ACD4004AFA2B4B0C22EAE72A482B4EFCF754FC89
:10ACE400D5F1110504461CD0D8B9012D13D0C823C1
:10ACF4005D434FF400474FF4FA7000214FF47A7229
:10AD04000023C7FB050104F097FB224601461D48BA
:10AD1400FCF7F4FB04460220FEF7EEF9012333703E
:10AD240055E70220FEF7FCF90023F8E7FFF716FFCA
:10AD3400134B1222BBE7FFF711FF0020FEF7DCF9EB
:10AD44000F4B1322B3E7FFF709FF0120FEF7D4F9F5
:10AD54000B4B1422ABE7FFF701FF0020FEF7CCF901
:10AD64000120FEF7C9F9064B1522A0E7FEF7FBF90F
:10AD7400034B1D709CE700BF783500204835002048
:10AD8400803500200835002005350020044B1B6861
:10AD9400DB0703D5034B1878FFF7F6BE704700BFF7
:10ADA4007435002080350020002910B514BF032419
:10ADB4000024FEF727FA1F288ABF0A4B4FF0A0434E
:10ADC40000F01F0003EB8000D0F8002722F440328B
:10ADD400C0F80027D0F8003743EA0443C0F800372E
:10ADE400002010BD00030050032801D8FEF7E4B989
:10ADF40000207047044B1B6813F0010301D0FFF7D8
:10AE0400C3BE1846704700BF7435002038B51C4BCC
:10AE140018601C4B10F00204054619601AD01A4B36
:10AE24001A480E221A700F22DA7010229A71112217
:10AE34005A72042140F26662FCF72AF8044648B9C3
:10AE4400FCF77AF8044628B90146114A1148FCF780
:10AE540043FB0446EB0711D50120FEF7D9F96CB981
:10AE640021460D4A0D48FCF737FB044630B90C4A1D
:10AE74000C480121BDE83840FCF72EBB204638BD04
:10AE8400743500207C35002068350020381F03000D
:10AE940059AB02005C1F030091AD0200601F030068
:10AEA400B5AA0200581F0300032813D8012A0BD1A6
:10AEB400012908D100F10E02D2B200EB40000C4B84
:10AEC4001A540020704700220129F6D04BB24BB12E
:10AED400022901D007207047054B00EB40001844BD
:10AEE4004270EEE7024900EB400008448270E8E754
:10AEF40068350020032802D80121FFF755BF06203A
:10AF0400704708B5012202210020FFF7CDFF08B1E8
:10AF1400072810D1072202210120FFF7C5FF08B13D
:10AF2400072808D100210A220846FFF7BDFF10B107
:10AF3400072808BF002008BD0388102B10B502D0D5
:10AF4400112B1ED010BD1A4C2168B1B9012208463C
:10AF5400FFF7AAFF08B1072824D107220221012004
:10AF6400FFF7A2FF08B107281CD104220221002008
:10AF7400FFF79AFF08B1072814D12368013323602F
:10AF8400E0E70B4A1368013B1360002BDAD1FFF7AB
:10AF9400B8FF0028D6D0074B1B68002BD2D0BDE8E1
:10AFA40010401847034B1B68002BE6D09847E4E792
:10AFB4008C3500208835002008B50020FFF79AFF63
:10AFC40008B1062806D10120FFF794FF10B1062826
:10AFD40008BF002008BD00000D4B10B518600C46DA
:10AFE40029B10120FFF700FF40B102232370094B70
:10AFF4001B6853B9BDE81040FFF783BFFFF7F4FEA9
:10B0040008B10B23F2E72070F1E7002010BD00BF68
:10B01400883500208C3500200369C1688B429DBFB0
:10B024008268D21802F1FF3203F1FF3394BF501A41
:10B03400581A70472DE9F041D0E9027405463E1BC9
:10B044004068964220448846144404D905F062FBC3
:10B05400EC60BDE8F0813246E41B05F05BFB224660
:10B0640008EB06016868F1E72DE9F843C568064670
:10B07400894617464FF000083469B3687068A542E2
:10B0840028BFE418013C621B5C1BBC4228BF3C4641
:10B09400944228BF144649462844224605F03AFB08
:10B0A400B3682544AB4208BF00253F1BA044A1441C
:10B0B400F560E1D14046BDE8F883000010B5114CBD
:10B0C400114AA2610223C4E90433104BE361A26470
:10B0D4004FF400730E4A2362E264002310220D49E8
:10B0E400A362E01D6362E362A3656365E3652265B1
:10B0F40005F06CFB0849204605F068FB2023A3718A
:10B1040010BD00BF90350020641F030018360020D6
:10B11400083600206D1F0300711F0300F8B5184C9A
:10B12400182300FB033503FB00402544C46A012CAB
:10B134000F46164611D024B1022C1BD00024204601
:10B14400F8BD2846FFF768FFB042F8D332463946C7
:10B154002846FFF76FFF3446F1E72846FFF75CFF08
:10B164008642344628BF0446224639462846FFF71D
:10B1740061FFE4E72846BDE8F840FFF775BF00BF6C
:10B184009035002073B50E4B1B7804460D461646C9
:10B194000BB9FFF793FF00230DF107008DF807307B
:10B1A400FCF7F8FA324629462046FFF7B7FF044673
:10B1B4009DF80700FCF712FB204602B070BD00BFEB
:10B1C40090350020FFF77ABF0FB410B5A2B024ABBE
:10B1D400802153F8042B019302A804F047FF802830
:10B1E40004460ADD802202A90020FFF7CBFF204697
:10B1F40022B0BDE8104004B070470028F7DD0246D5
:10B20400F1E76DDF704779DF70477DDF704764DFFA
:10B2140070472DE9F04F85B000250E9CBDF83CB079
:10B2240027880191804691469A462E46B8F8002018
:10B23400B2420CDC3DB12288013AD21B92B2FF2A01
:10B244003BD80AF80720002005B0BDE8F08FD8F8F5
:10B25400042052F82600039000220DF10B0103A8EC
:10B26400FFF7D5FF0028EFD19DF80B204A4522D1E6
:10B274002288002D14BF0020022002EB09010144A2
:10B2840059451ADC45B9013292B2019B22800AF871
:10B29400023022880132228022880DF10B015244AF
:10B2A40003A8FFF7B4FF0028CED121889DF80B2016
:10B2B4000A44228001250136B8E70C20C4E72DE9B1
:10B2C400F341089CBDF824501746CDE900450222FD
:10B2D40006469846FFF79DFF50B94346102239466B
:10B2E4003046CDE9084502B0BDE8F041FFF791BF13
:10B2F40002B0BDE8F0812DE9F04F002316881380D9
:10B3040090F82D3085B007460D46144653B3082EE9
:10B3140001D80C2027E102A8FFF773FF002840F0B2
:10B32400228123880822EA54238801339BB21B22FA
:10B334002380EA542088013080B2208006220DF157
:10B344000901284405F0E6F923889DF8082006330E
:10B354009BB212F0FE0218BF01222380EA54238814
:10B3640001332380BB78FBB123880433B342D0D8A4
:10B3740002A8FFF748FF002840F0F5802388032245
:10B38400EA54238801339BB219222380EA54238888
:10B39400BDF8082001339BB2E9182380EA54120A4D
:10B3A4004A70238802332380FA789AB12388D91CFF
:10B3B400B142AED80221E954238801339BB2012162
:10B3C4002380E95423880B449BB22380EA542388C6
:10B3D4000B4423807A68AAB12388D91CB14298D837
:10B3E400022192F90020E954238801339BB20A21F7
:10B3F4002380E954238801339BB22380EA542388B1
:10B40400013323803B89002B40F0A1803B8A5BB150
:10B41400CDE900462B460722032107F11000FFF770
:10B424004EFF002840F09F803B8B5BB1CDE9004686
:10B434002B461522142107F11800FFF740FF0028BE
:10B4440040F091803A6A002A40F09080D7F8248036
:10B45400B8F1000F30D0B8F804302188981C8A1C49
:10B464000244B2423FF655AFFE283FF652AF0333D3
:10B474006B54238801339BB2FF222380EA54238830
:10B4840001339BB22380B8F80020EA54E918120A69
:10B494004A702088023080B22080B8F804205AB163
:10B4A400D8F8081000296BD0284405F033F9238814
:10B4B400B8F804201344238097F82C30002B40F074
:10B4C4009A80387800284ED03B88012B58D02288A7
:10B4D40002F1020CB4453FF61CAF012805D17B787C
:10B4E400023313449E42FFF414AF023EB61AB6B2BE
:10B4F40002A905EB0C00ADF80860FFF786FE90BBCF
:10B504003978BDF80820022900F0BA807B7893428C
:10B5140002D3B24240F2B280012940F0B3809BB220
:10B524009E42C0F0AF80ADF808300821BDF8083065
:10B53400FE2B3FF6EEAE22880133AB542288013253
:10B5440092B22280A9542288134423800BE0CDE9CF
:10B5540000462B460622022107F10800FFF7AFFE42
:10B5640000283FF453AF05B0BDE8F08FB4F800C035
:10B574000CF10603B3423FF6CCAE1188052901D87D
:10B584000720F0E76FF4486E01EB0E039BB24FF215
:10B594007D3E7345F4D95388052BF1D96FF4486087
:10B5A400181880B27045EBD94FF6FF70814203D072
:10B5B400834201D09942E3D8052305F80C3023884F
:10B5C40001339BB212212380E954238801339BB2B7
:10B5D40023801188E954E818090A4170238802334A
:10B5E4009BB223805288EA54E918120A4A702388CD
:10B5F400023323802AE7BB6A002BC1D04FF0000935
:10B604004FF00C0A4FF0160B97F82C305FFA89F2C2
:10B6140093427FF656AFB96A0AFB02F201EB0208C5
:10B62400B8F80430981CFE283FF673AE2088033324
:10B634002B54238801339BB2238005F803B023885D
:10B6440001339BB223808A5AEA54E918120A4A70D9
:10B654002088023080B22080B8F804205AB1D8F88B
:10B66400081000298CD0284405F054F82388B8F831
:10B6740004201344238009F10109C5E7092155E792
:10B68400B242FBD9ADF808604FE770B5C0B14AB11A
:10B6940016880024B44203D305196D789D4208D05E
:10B6A400A14201D800200BE0055D01352C44A4B271
:10B6B400F0E7A142F6D9A31C1380005D013880B2E3
:10B6C40070BD13B50023ADF8063013460DF1060224
:10B6D4000446FFF7DAFF10B1BDF80600204402B0BB
:10B6E40010BD72DF704773DF704774DF704738B581
:10B6F400012204460D46B0F83812D0F83402FFF7A0
:10B70400E0FF00B1057004F13C0204F50D7104F191
:10B714005400BDE83840FFF7E4BF80F830107047AC
:10B72400F8B504460F4600296DD000286BD091F877
:10B734007A301BB191F89830002B66D107F1780666
:10B744000FCE4FF0000C251D84F802C00FC50FCE9C
:10B754000FC596E8070085E8070084F830C0D7F8DD
:10B76400A4306363D7F8A830A3634FF6FF7504F5DC
:10B774000D73C4F84432A4F848520722614604F217
:10B784004A2004F0F0FF23780BB984F8545094F85D
:10B794002430002B14BFEE231F2304F15501C4F8F9
:10B7A4003412A4F8383204F50E723846FFF7A3FDBC
:10B7B40040BB94F82430002B14BFEE231F2304F263
:10B7C4004311C4F83C12A4F8403204F5107207F196
:10B7D4003C00FFF790FDA8B9A369A4F848304FF4E2
:10B7E40080730125A4F8503063692064014684F80D
:10B7F4003C50636404F13C0204F15400FFF771FF10
:10B8040000B92570F8BD0E20FCE70720FAE770B5F3
:10B81400044600F24A26A1700D4607220021304654
:10B8240004F0A1FFE38813B1A378012B04D0E379DA
:10B834004BB1A378022B06D1636B9BB1012284F830
:10B84400512208209847324604F5147112F8013F3A
:10B854005BB98A42FAD16A1E032A54D8DFE802F09F
:10B86400070D111484F85132EDE70123F3E7A279AF
:10B874001AB194F8242002B95BB9E2790AB1002B19
:10B8840043D1237A002B42D1637A002B0CBF0025CD
:10B894000425636BA570002B3BD0033D012D38D8E4
:10B8A4006279002A35D094F8522292BB84F854224B
:10B8B400012284F853220720984704F13C051822FA
:10B8C4000021284604F04FFFE26A0123511E9942E9
:10B8D40084F83C3001D9042A1FD1D3B2012194F851
:10B8E400242084F851301AB1C9B1A36A84F85230C3
:10B8F400A178002384F8503004291FD8DFE801F030
:10B904007B1126395D000025C3E70225C1E7032525
:10B91400BFE7002384F85332CFE70021DFE7012398
:10B92400E4E7C4F84432C4E910630223012284F832
:10B934003C30802384F83120A4F84830A378002BCD
:10B944005CD1636B002B6AD1002067E00223002ADC
:10B9540084F8313014BF0723032384F83C3023696F
:10B96400A4F848300023C4F84432E36826646364CE
:10B97400E4E763696364A369A4F8483012B1062359
:10B9840084F83C306379B3B194F852329BB994F89B
:10B99400543283B1022384F8503004212046FFF747
:10B9A400A6FE0028CAD1052384F8313004F50D73AE
:10B9B400C4F84432C2E70323F6E7E3696364236A05
:10B9C400A4F8483012B1062384F83C30637983B17B
:10B9D40094F852326BB994F8543253B1022384F878
:10B9E400503004212046FFF782FE0028A6D106230A
:10B9F400DAE70423D8E784F831309FE72A46D4F8FD
:10BA0400441204F15400FFF76CFE38B994F8301076
:10BA140094F85400FFF767FE002892D070BD94F8A4
:10BA24003100984790E70388112B10B50C460AD0D3
:10BA3400262B1FD0102B05D1C37B012B02D1838869
:10BA4400A1F8483210BD0022838881F85222B1F84F
:10BA540048229A42F6D10B79002BF3D101212046DA
:10BA6400FFF7D5FE0028EDD0A36B002BEAD0BDE88C
:10BA740010401847037A013B012BE3D8897805234A
:10BA84000131B1FBF3F303EB8303C91AC9B2E6E74F
:10BA9400704738B5044690F85400FFF726FE01239A
:10BAA40084F85232002384F8543284F8503006214A
:10BAB4002046FFF71CFE054638B9A1782046FFF75B
:10BAC400A6FE10B1A36B03B19847284638BD75DFB5
