:020000022000DC
:1060000000000420756302005D6302005F6302000C
:106010006163020063630200656302000000000028
:1060200000000000000000000000000067630200A4
:1060300069630200000000006B6302006D630200F0
:1060400071D002006F630200C5DD02006F630200C1
:10605000E1AC02006F630200DDDA020081FD0200A4
:106060006F6302006F6302006F6302006F630200E0
:106070006F6302006F6302006F6302006F630200D0
:106080006F630200FD8602006F6302006F6302000F
:106090003D8702006F630200014F03006F6302003F
:1060A0006F6302006F630200A50903006F630200C3
:1060B0006F6302006F630200000000000000000038
:1060C0006F6302006F6302006F6302006F63020080
:1060D00041C402006F6302006F6302006F6302003D
:1060E0006F6302006F6302006F6302000000000034
:1060F000000000006F630200000000006F630200F8
:10610000000000000000000000000000000000008F
:10611000000000000000000000000000000000007F
:10612000000000000000000000000000000000006F
:10613000000000000000000000000000000000005F
:10614000000000000000000000000000000000004F
:10615000000000000000000000000000000000003F
:10616000000000000000000000000000000000002F
:10617000000000000000000000000000000000001F
:10618000000000000000000000000000000000000F
:1061900000000000000000000000000000000000FF
:1061A00000000000000000000000000000000000EF
:1061B00000000000000000000000000000000000DF
:1061C00000000000000000000000000000000000CF
:1061D00000000000000000000000000000000000BF
:1061E00000000000000000000000000000000000AF
:1061F000000000000000000000000000000000009F
:10620000354936480A1A02D0072291438D4634494F
:1062100034480A1A06D00722914381F309880222E2
:1062200082F3148830483149314A00F044F831484B
:106230003149324A00F03FF831483249324A00F0E1
:106240003AF832483249334A00F035F83248334997
:10625000334A00F030F833483349344A00F02BF821
:1062600033483449344A00F026F83448344900228F
:1062700000F02CF833483449002200F027F8334866
:106280003349091A082902DB002202604160314AC1
:1062900090471F481F49884205D00268043003B464
:1062A000904703BCF7E700208646EC46002000211B
:1062B000294A9047FEE7884207D0521A05D0037852
:1062C00001300B700131013AF9D17047884202D098
:1062D00002700130FAE770470000042000E003205C
:1062E000000004200000042078C50300982A002044
:1062F000542B0020D4630200D4630200149F0300D7
:1063000078C50300982A0020982A002058A003008E
:1063100058A0030058A0030058A0030058A0030091
:1063200058A0030058A0030058A0030078C503003C
:1063300034C60300542B0020542B0020542B002083
:10634000DC410020DC410020E8410020E841002041
:10635000E86100209D630200FD6F0300FEE7FEE799
:10636000FEE7FEE7FEE7FEE7FEE7FEE7FEE7FEE705
:10637000704700BF1048804710484FF0070188431E
:1063800085460F4880470F48016841F4700101605D
:10639000BFF34F8FBFF36F8FFFF732BF0A480B4930
:1063A0000B4A884207D0521A05D0037801300B708F
:1063B0000131013AF9D170477163020000000420F5
:1063C000F1B8020088ED00E058A00300982A0020F0
:0463D000982A0020E7
:1063D40000487047D441002000B585B00190019B6E
:1063E400002B0AD0074B43F001030393019B9B014D
:1063F4000293039B0298984700E000BF05B05DF844
:1064040004FB00BF70A0030000B583B00190019BA2
:10641400002B0AD04FF47A70FFF7DEFF019B013B9B
:106424000193019B002BF5D100E000BF03B05DF8A0
:1064340004FB08B50BF042FB00BF08BD00B589B0F2
:10644400039002910192019B002B33D00023079308
:1064540003230693029A079B1344019A19460020CA
:106464000BF0B8FA0590079A059B13440793019A19
:10647400059BD31A0193059B002B13D10F4B1B785B
:1064840083F00103DBB2002B13D10120FFF7BCFF23
:10649400069B013B0693069B002B03D1074B00226E
:1064A4001A7007E0054B01221A70019B002BD1D111
:1064B40000E000BF00BF09B05DF804FB542B0020CE
:1064C40000B585B003900291054B00938023054AE3
:1064D4000299039800F012F800BF05B05DF804FBC0
:1064E40041640200582B002082B0019000BF02B02A
:1064F400704782B0019000BF02B0704700B5A1B0F0
:106504000590049103920293049803F024FB039BE7
:106514001593029B16930023179300238DF8603084
:1065240000231993229B1A9300231F930FA91F9BE7
:106534000822049803F0E8FB08231F93119B12938D
:10654400BDF84030ADF84C30BDF84230ADF84E30B7
:1065540000238DF851309DF83C3003F00303DBB287
:10656400012B26D10F9BC3F395231D939DF83C303B
:10657400C3F3C203DBB28DF85030BDF83C30C3F333
:106584008313DBB21C931C9B9A0009A91F9B0498DC
:1065940003F0BAFB1C9B9B001F9A13441F9312AA7F
:1065A40009A915AB009313461C9A1D9800F0D2FE5E
:1065B4002FE09DF83C3003F00303DBB2022B28D11B
:1065C400BDF83E30C3F389139BB21E939DF83C3053
:1065D400C3F3C203DBB28DF850301E9B082B28BFD7
:1065E40008231B9307A91F9B1B9A049803F08CFB99
:1065F4001F9A1B9B13441F931E9A1B9BD31A1E9313
:1066040015AB12AA07A81B9900F046FF1E9B002B8E
:10661400E3D1049803F0AEFA00BF21B05DF804FBA7
:1066240082B00190019BDB6801225A7100BF02B065
:106634007047000000B583B04FF0FF330193FFF7BC
:10664400F8FE0421084800F0A1FD0190019B002BF5
:1066540003DA064941200FF0AFF90348FFF7E0FFE2
:1066640000BF03B05DF804FB48A0030088A003004A
:1066740000B583B001900091019B1B681B680099D1
:106684000198984700BF03B05DF804FB00B583B0E0
:106694000190019B1B685B680198984700BF03B099
:1066A4005DF804FB00B583B00190019B1B689B68F7
:1066B4000198984700BF03B05DF804FB82B00190D5
:1066C4000B468DF80330019BDB689DF803201A719B
:1066D40000BF02B0704782B00190019BDB681B7958
:1066E400184602B0704782B00190019BDB6801221A
:1066F4005A7100BF02B0704782B00190019BDB6801
:106704005B79184602B0704700B585B001900091DE
:10671400154BFF229A60144B00221A60124B002280
:106724005A60114B0022C3F818240F4B0022C3F8FF
:1067340014240D4B012283F820240C4803F070F933
:106744000390039B002B01D0039B08E0084803F04F
:1067540039FB084A084BD31ADB0802930023184676
:1067640005B05DF804FB00BF402D0020909F03009E
:106774000CA1030048A00300B89F0300024A034B86
:10678400D31ADB081846704748A00300B89F0300DB
:1067940000B587B001900B468DF803309DF80330A7
:1067A400002B1FD0FFF7EAFF04900023059313E0AA
:1067B400059B9B000E4A13440393039B1B881A46B4
:1067C400019B1B689A4204D1019B059A1A6000231D
:1067D40009E0059B01330593059A049B9A42E7D38C
:1067E400052300E00023184607B05DF804FB00BF52
:1067F400982A002000B585B001900B468DF803302F
:106804009DF8032001AB11461846FFF7C1FF03466C
:10681400002B07D1019BDB00054A13440393039B20
:106824001B6800E00023184605B05DF804FB00BFB8
:10683400B89F030084B001900B468DF80330019B90
:10684400DB00174A134402939DF80330013B032BEA
:106854001CD801A252F823F06D680200756802008A
:106864007D6802008768020002238DF80F3011E072
:1068740004238DF80F300DE0029B1B798DF80F3047
:1068840008E0029B5B798DF80F3003E000238DF85C
:106894000F3000BF9DF80F30184604B0704700BF9A
:1068A400B89F030084B00190009100238DF80F304D
:1068B400019B1B7803F00403DBB2002B24D0019B63
:1068C4001B78C3F30103DBB2012B02D0022B0CD0E3
:1068D40017E0009B1B68019A1288C2F38312D2B29C
:1068E40013449A1C009B1A600BE0009B1B68019ADE
:1068F4005288C2F3891292B213449A1C009B1A6004
:1069040000BF01238DF80F309DF80F30184604B0F6
:106914007047000000B58BB00023ADF826303E4828
:1069240002F037FB3D4802F034FB3D4B5B680493B7
:106934003B4B9B680693049A069B134002339B00CF
:10694400374A13440433089304AB19460898FFF7F5
:10695400A9FF0346002B09D0049A069B1340023377
:106964009B002F4A134404330893EDE700BF002330
:10697400079311E0049B5A1C0492069A1340079A49
:10698400920001A90A44264902339B000B445B6828
:106994001360079B01330793079B012BEAD99DF8EA
:1069A4000430C3F30103DBB2012B10D0022B1CD142
:1069B400BDF80A30ADF82630BDF80630C3F38913AC
:1069C4009BB203339A08049B1344049313E0BDF869
:1069D4000A30ADF82630BDF80430C3F38313DBB2BC
:1069E4001A46049B1344049305E00E494FF4BF7008
:1069F4000EF0E2FF00BF094802F0D7FA0590059BAC
:106A0400002B02D0049B064A5360BDF8263018467A
:106A14000BB05DF804FB00BF583100205431002056
:106A2400402D00201CA1030000B585B000210748BB
:106A340002F020FA0390039B0293029B83F310035A
:106A44000193019B184605B05DF804FB5C310020FE
:106A540000B589B00390029101920093039B1B0C33
:106A64000793FFF7E1FF0690FFF788FE0246079BB6
:106A7400934204D3214940F2A3100EF09DFF069BDC
:106A84001904009B5A1C0A9B1340079A0A431C4989
:106A940002339B000B445A60009A0A9B1340023352
:106AA4009B00174A134404330593039B03F0070325
:106AB400D9B2059A137861F3C5031370019B03F0EF
:106AC4000F03D9B2059A138861F389131380029BCB
:106AD400C3F31501059A136861F39F231360059AA4
:106AE4001378012161F301031370059A13786FF38E
:106AF4008203137000BF09B05DF804FB1CA10300FE
:106B0400402D002000B58DB00390029113468DF8FE
:106B14000730039B02330A9301238DF827300023A7
:106B24008DF81B300DF11B03184602F00FF9404B92
:106B34001A68029B1A603E4B9A683D4B59683C4B5D
:106B44001B68CB1A134401330B9314E00121394819
:106B540002F0EFF9FFF7DEFE08900899354802F0DD
:106B6400E8F9334B9A68324B5968314B1B68CB1A9E
:106B7400134401330B930A9A0B9B9A42E6D89DF86F
:106B84002730002B48D0002305939DF80730002BB5
:106B940017D09DF81430012262F301038DF81430EC
:106BA4009DF8143043F004038DF81430039B03F074
:106BB4000F03DAB2BDF8143062F38913ADF8143060
:106BC40016E09DF81430022262F301038DF81430AC
:106BD4009DF8143043F004038DF81430039BC3F381
:106BE40009039AB2BDF8163062F38F13ADF816306C
:106BF4000F4B1A680E4B9B68134002339B000C4AE0
:106C0400134404330793059A079B1A60084B1A68C8
:106C14000A9B1344064A13609DF81B30184602F081
:106C2400ABF89DF8273018460DB05DF804FB00BFA3
:106C3400402D00205C31002000B58BB005900491FC
:106C4400039202931F4B9B68079306AB01221946DC
:106C54000298FFF757FF0346002B24D0069B02330C
:106C640009930023089311E0089B9B00039A1A449C
:106C7400099B591C099107990B4012681149023369
:106C84009B000B445A60089B01330893089A029BAB
:106C94009A42E9D3069A079B00931346029A0499F1
:106CA4000598FFF7D5FE074B93F82034002B05D049
:106CB40000BF00F065F80346002BFAD100BF0BB00B
:106CC4005DF804FB402D002000B583B001900091D5
:106CD4000023002200990198FFF7AEFF00BF03B024
:106CE4005DF804FB00B587B0039002910192019B0B
:106CF400059305AA012302990398FFF79DFF00BF9E
:106D040007B05DF804FB00B587B0039002910192CF
:106D14000093019B0493009B059304AA0223029908
:106D24000398FFF789FF00BF07B05DF804FB00B5C7
:106D34008BB00390029101920093019B0593009BF9
:106D440006930C9B07930D9B08930E9B099305AA2E
:106D5400052302990398FFF76FFF00BF0BB05DF89E
:106D640004FB0000054B5A68044B1B689A420CBF95
:106D740001230023DBB21846704700BF402D0020DA
:106D840000B599B0FFF7EEFF0346002B01D00023B6
:106D9400BCE19A4B0022C3F81824BFF34F8F974BE2
:106DA4005B680493954B9B681093049A109B134063
:106DB40002339B00914A1344043311930023179325
:106DC4000023169300230F9304AB19461198FFF781
:106DD40069FD0346002B19D0884BD3F81834002BD7
:106DE40014D1864B1A68049B9A4205D8834B1B68BE
:106DF400824A5360002389E1049A109B13400233B2
:106E04009B007E4A134404331193DDE7002315935A
:106E140011E0049B5A1C0492109A1340159A920094
:106E240001A90A44754902339B000B445B68136053
:106E3400159B01331593159B012BEAD99DF804305A
:106E440003F00303DBB2022B40F09C80BDF8063054
:106E5400C3F389139BB20E93BDF80630C3F38913B1
:106E64009BB2502B28BF50239BB20D930D9BC3F3B1
:106E740009039AB2BDF8063062F38F13ADF80630F9
:106E84000D9B08330C939DF80430C3F3C203DBB2AB
:106E94000F930C995A4802F0CEFD1790179B002BC4
:106EA40000F0D080179802F056FE01A9169B082224
:106EB400179802F00BFF169B08331693049BDA43D2
:106EC400109B134001339B000B930D9A0B9B9A422A
:106ED40042D90B9B002B08D0049A109B1340023319
:106EE4009B00464A1344043300E0464B0A930B9B31
:106EF400002B02D00B9BDBB201E00D9BDBB28DF8C3
:106F040027300B9B002B01D03E4B00E0002308935D
:106F14000B9B002B06D00D9BDAB20B9BDBB2D31A72
:106F2400DBB200E000238DF81F309DF82720169B6C
:106F34000A99179802F0CAFE9DF82730169A13444E
:106F44001693089B002B16D09DF81F20169B0899BA
:106F5400179802F0BBFE0EE0049A109B1340023314
:106F64009B00264A134404330693169B0D9A0699F4
:106F7400179802F0ABFE0E9B03339A08049B13444C
:106F840004935FE09DF8043003F00303DBB2012BAC
:106F940058D1BDF80430C3F38313DBB2062B28BFEA
:106FA4000623DAB2BDF8043062F38913ADF8043075
:106FB400BDF80430C3F38313DBB2023305939DF8A9
:106FC4000430C3F3C203DBB20F93059B9B00194645
:106FD4000B4802F030FD1790179B002B32D0179806
:106FE40002F0B9FD01A9169B0822179802F06EFE63
:106FF400169B08331693002315931AE0402D0020A6
:10700400909F03004C2D0020049B5A1C0492109A5C
:10701400134002339B003F4A1344191D169B04225C
:10702400179802F053FE169B04331693159B0133F5
:107034001593BDF80430C3F38313DBB21A46159BD2
:107044009342E1D3179B002B40D0324BD3F810343A
:107054001493304BD3F81834002B1BD0179802F03C
:1070640089FD4DE000238DF84F301498FFF744FB61
:107074000346002B02D001238DF84F309DF84F308A
:10708400002B03D017991498FFF7F2FA149BDB68CE
:107094001B681493149B002BE4D1179802F06AFD2B
:1070A40000238DF803300DF10303184601F04EFE62
:1070B400184BD3F81834002B02D1049B154A5360A3
:1070C4009DF80330184601F057FE19E0114BD3F830
:1070D4001034129306E01298FFF7E4FA129BDB686F
:1070E4001B681293129B002BF5D10B4A0B4BD31A3E
:1070F400DB081B0443F0020309491846FFF7E4FDCB
:10710400FFF730FE034683F00103DBB2184619B0E3
:107114005DF804FB402D002000A00300B89F03008D
:1071240098A1030000B585B00023039323E0164B18
:10713400D3F81034029301238DF807300FE002983E
:10714400FFF7C9FA03461A46039B934203D100236F
:107154008DF8073006E0029BDB681B680293029BF4
:10716400002BECD19DF80730002B01D0039B07E0E6
:10717400039B01330393039B092BD8DD4FF0FF33AB
:10718400184605B05DF804FB402D002000B585B01D
:1071940001900B468DF80330FFF7C4FF0390039B67
:1071A400B3F1FF3F01D1039B22E0039BDBB21946FD
:1071B4000198FFF783FA104BD3F81034002B08D151
:1071C4000D4A019BC2F81034019BDB6800221A604F
:1071D4000DE0094BD3F81034DA68019BDB681268C0
:1071E4001A60054BD3F81034DB68019A1A60039BCC
:1071F400184605B05DF804FB402D002000B583B0AF
:107204000C4BD3F8103401930A4B012283F8202449
:1072140009E00198FFF767FA0198FFF737FA019B35
:10722400DB681B680193019B002BF2D100BF03B004
:107234005DF804FB402D002082B00190009100BF56
:1072440002B0704710B584B003900291039BDB88B1
:10725400002B0AD0039BDB881A461F4B009313466E
:107264001E4A1F49029801F0DDFF039B1B7A052B80
:107274002ED0039B5B7A002B12D0039B9B881A466B
:10728400039B1B7A19461046FFF7D4FA03461A46A5
:10729400144B53F822301A461349029801F0C2FFE6
:1072A400039B1B6819460298FFF7C6FF039B1B7AD2
:1072B4001A460E4B53F82240039B9B880021184624
:1072C400FFF798FA034622460949029801F0AAFFFB
:1072D40000BF04B010BD00BFCCA10300DCA10300BB
:1072E40014A20300B42A00202CA20300A02A002028
:1072F40030A2030000B585B00390029113468DF8C7
:107304000730039B1B7A052B0FD0039B5B7A002B62
:1073140006D00D4B1B681A460C49029801F082FFF7
:107324000B49029801F07EFF07E09DF80730002B1F
:1073340003D00749029801F075FF029801F050FF4D
:1073440000BF05B05DF804FBB42A00202CA20300A2
:107354003CA2030030B58BB00790069105920493CC
:107364000E9B1B7B8DF827300E9B00221A730E99FF
:107374000498FFF767FF059B062B7FD801A252F8FC
:1073840023F000BFA5730200AF730200BF730200B5
:10739400D3730200F17302001974020049740200ED
:1073A40007990E9801F03EFF69E0069B1B681A4698
:1073B40007990E9801F036FF61E0069B1A68069B58
:1073C40004331B6807990E9801F02CFF57E0069BC5
:1073D4001A68069B04331968069B08331B680093DC
:1073E4000B4607990E9801F01DFF48E0069B1968AB
:1073F400069B04331868069B08331B68069A0C32F4
:1074040012680192009303460A4607990E9801F008
:1074140009FF34E0069B1868069B04331C68069B2E
:1074240008331B68069A0C321268069910310968F1
:107434000291019200932346024607990E9801F0A7
:10744400F1FE1CE0069B1C68069B04331D68069B2A
:1074540008331B68069A0C321268069910310968C1
:1074640006981430006803900291019200932B4611
:10747400224607990E9801F0D5FE00E000BF0022D5
:107484000E990498FFF736FF0E9B9DF827201A7378
:1074940000BF0BB030BD00BF00B587B003900291B0
:1074A40001920093029B082B60D8009B1B7B8DF8F4
:1074B4001330009B00221A7300990198FFF7C2FE53
:1074C4000023059314E0059A029B9A4209D2039A79
:1074D400059B13441B781A462649009801F0A2FE26
:1074E40003E02549009801F09DFE059B01330593B7
:1074F400059B072BE7D92149009801F093FE00234F
:10750400059326E0059A029B9A421BD2039A059B97
:1075140013441B788DF812309DF812307E2B0AD854
:107524009DF81230184610F095FE0346002B02D049
:107534009DF8123000E02E231A461149009801F0FC
:1075440071FE03E00F49009801F06CFE059B0133C6
:107554000593059B072BD5D9012200990198FFF7C4
:10756400C9FE009B9DF813201A7300E000BF07B00A
:107574005DF804FB40A2030048A203004CA20300F0
:1075840050A2030054A203002DE9F04792B00990E1
:1075940000238DF84730ADE05C4B1A689DF8473006
:1075A400DB0013441093109B1B7818464FF0010323
:1075B4004FF00004A0F12002C0F1200104FA00FA07
:1075C40003FA02F24AEA020A23FA01F14AEA010A38
:1075D40003FA00F9CDE90E9A4D4BD3E90012DDE927
:1075E4000E3401EA0300009002EA04030193DDE98A
:1075F4000034234379D0DDE90E34DA430292E343C5
:107604000393434BD3E90034DDE9020102461A40F7
:1076140004920A4602EA040305933D4BDDE9041291
:10762400C3E90012109B1B78184606F03BFA034688
:107634008DF83730109B1B7818464FF001034FF03C
:107644000004A0F12002C0F1200104FA00F603FABC
:1076540002F2164323FA01F10E4303FA00F52D4B0F
:10766400D3E9003405EA0302069206EA0403079309
:107674009DF837104FF00002109B1B781C46A4F1B4
:107684002003C4F1200002FA04F801FA03F348EAE3
:10769400030821FA00F048EA000801FA04F7DDE9DA
:1076A4000634444508BFBB421FD19DF83720109BC8
:1076B4005B78012B0CBF01230023DBB29A420CBF81
:1076C40001230023DBB2DBB24FF00004CDE90A341E
:1076D400109B5B68002B08D0109B5C68109B1A7889
:1076E4009DF8283019461046A0479DF847300133CD
:1076F4008DF84730084B1A789DF847309342FFF4D1
:107704004BAF00BF12B0BDE8F08700BF643100206A
:107714009831002090310020683100202DE9F04795
:1077240090B00B900B468DF82B304FF001034FF0C7
:1077340000040B98A0F12002C0F1200104FA00F625
:1077440003FA02F2164323FA01F10E4303FA00F599
:10775400CDE90E56394B184601F08AF80D900D9B71
:10776400002B66D1364BD3E90012DDE90E3401EA71
:107774000300009002EA04030193DDE9003423438B
:1077840043D10B9806F08EF90346002B10D02D4BF5
:10779400D3E90012DDE90E3441EA0300029042EA23
:1077A40004030393274BDDE90212C3E9001213E03B
:1077B400DDE90E346FEA03096FEA040A214BD3E9C9
:1077C400003409EA030204920AEA040305931D4BF8
:1077D400DDE90412C3E90012194BD3E90012DDE913
:1077E4000E3441EA0300069042EA04030793144B63
:1077F400DDE90612C3E900121048134B1B6800228E
:10780400194601F003F80D9014E0DDE90E34DF436E
:107814006FEA04080A4BD3E9003407EA030208922A
:1078240008EA04030993064BDDE90812C3E90012D0
:1078340000E000BF10B0BDE8F08700BF7031002049
:1078440098310020903100206C31002010B58AB0AE
:1078540003900B4601928DF80B30019B042B01D849
:1078640007235AE006F010F8034683F00103DBB265
:10787400002B09D005F0B6FF0990099B0893089BDB
:10788400002B01D0089B48E0254A039B1360254A3E
:107894009DF80B301370244A019B1360234A4FF068
:1078A40000034FF00004C2E90034214A4FF0000302
:1078B4004FF00004C2E9003422E09DF80B30DB00F5
:1078C400039A1344079305AB00210A461A800A461B
:1078D4009A7003238DF81430079B9B788DF815302C
:1078E400079B1B78184605AB124A194605F0D8FFCA
:1078F4000990099B0693069B002B01D0069B0CE084
:107904009DF80B305A1E8DF80B20002BD5D10A4A56
:1079140000210A4800F04AFF034618460AB010BD89
:1079240064310020683100206C3100209031002047
:1079340098310020217702008D75020058A20300BF
:1079440000B583B0114B1B68002B03D11049BA203A
:107954000EF032F8002301930CE00C4B1A68019BE3
:10796400DB0013441B780121184606F013F8019B31
:1079740001330193074B1B781A46019B9342ECD3C6
:107984000023184603B05DF804FB00BF64310020F7
:107994005CA203006831002086B00390029101923A
:1079A40001238DF817309DF81730204A039B13608C
:1079B4001E4A029B53601D4A019B9360039B44F241
:1079C4000102934213D0039B44F20202934221D159
:1079D400019B164AD360154BDB681B881A46134B70
:1079E4009A61124BDB685B68104AD36112E0019B19
:1079F4000E4A13610D4B1B699B680C4A53610B4B78
:107A04001B691B68094A9361084B1B695B68074A39
:107A1400D36100BF72B600BF9DF81730DBB2002BF4
:107A2400FAD162B600BF06B0704700BFA031002093
:107A340000B583B002900091019244F201007146B6
:107A44006A4600F003F803B000BD00BF30B58BB048
:107A540007900691059272B6FFF7D0FB00BFFFF7BF
:107A64008FF90346002BFAD1079B41F2010293429E
:107A74001FD0079B41F20102934203D8079B012BBD
:107A84000BD061E0079B44F2010293422FD0079B85
:107A940044F20202934218D056E0394A394BD31AC1
:107AA400DB081B0443F0010337491846FFF70CF9C0
:107AB40057E0334A334BD31ADB081B0443F001036A
:107AC40032491846FFF700F94BE0059B09932C4A0D
:107AD4002C4BD31ADB081B0443F00100099B5B68A1
:107AE4001A46099B1B882A49FFF70DF939E0059BC3
:107AF4000893234A234BD31ADB081B0443F00104E5
:107B0400089B9D68089B9B68184602F0D5F90346BC
:107B14001846089B5B681946089B1B68069A0292E4
:107B24000193009103462A461A492046FFF7FFF8BD
:107B3400134A144BD31ADB081B0443F00103164900
:107B44001846FFF7C1F80CE00D4A0E4BD31ADB08B8
:107B54001B0443F00103069A10491846FFF7C2F8C4
:107B640000BF0F4B1B6803F00103002B00D000BEC5
:107B7400059A06990798FFF70FFF00BF0BB030BDB9
:107B840000A00300B89F0300D0A20300F0A20300EA
:107B940014A3030030A3030058A303006CA3030041
:107BA400F0ED00E084B00190019B9B680393019B7E
:107BB400DA68039BD31A184604B0704782B0019068
:107BC4000B468DF80330019B1A68019BDB68019911
:107BD40089880B4013449DF803201A70019BDB68CD
:107BE4005A1C019BDA6000BF02B0704784B0039056
:107BF4000B460192ADF80A30039B1A68039B9968FF
:107C0400BDF80A300B44039989880B4013441A7851
:107C1400019B1A7000BF04B0704700B583B0019097
:107C24000091009A00210198FFF7E0FF019B9B68F7
:107C34005A1C019B9A6000BF03B05DF804FB84B03A
:107C4400039002911346ADF80630029B002B01D13C
:107C54000E231DE0BDF80630002B07D0BDF806301A
:107C64005A1EBDF806301340002B01D009230FE043
:107C7400039B029A1A60BDF80630013B9AB2039B3B
:107C84009A80039B00229A60039B0022DA600023FF
:107C9400184604B0704700B583B001900B468DF8C8
:107CA40003300198FFF77EFF0246019B9B889A42AE
:107CB40007D89DF8033019460198FFF77FFF00238A
:107CC40000E00423184603B05DF804FB00B583B05C
:107CD400019000910198FFF765FF0346002B05D042
:107CE40000990198FFF799FF002300E00523184647
:107CF40003B05DF804FB000082B003468DF8073042
:107D04009DF8073003F01F0205499DF907305B0910
:107D1400012000FA02F241F8232000BF02B07047AC
:107D240000E100E082B003468DF807309DF807308B
:107D340003F01F0206499DF907305B09012000FA90
:107D440002F2203341F8232000BF02B0704700BF85
:107D540000E100E082B003468DF807309DF807305B
:107D640003F01F0206499DF907305B09012000FA60
:107D740002F2403341F8232000BF02B0704700BF35
:107D840000E100E082B003468DF807309DF807302B
:107D940003F01F0206499DF907305B09012000FA30
:107DA40002F2603341F8232000BF02B0704700BFE5
:107DB40000E100E082B0034600918DF807309DF9A0
:107DC4000730002B0CDA009BDAB20C499DF807301F
:107DD40003F00F03043B5201D2B20B441A7609E0BC
:107DE400009BDAB206499DF907305201D2B20B4426
:107DF40083F8002300BF02B0704700BF00ED00E02D
:107E040000E100E000B585B00190019B002B0AD091
:107E1400074B43F001030393019B9B010293039BD4
:107E24000298984700E000BF05B05DF804FB00BF6E
:107E340090A3030000B583B00190064A019BC2F8E9
:107E4400083506211120FFF7B5FF00BF03B05DF828
:107E540004FB00BF0010014008B50D4B4FF4803205
:107E6400C3F844230A4B4FF48032C3F8042311208F
:107E7400FFF788FF1120FFF73FFF054B01221A602F
:107E84002F20FFF7BFFF034B01221A7000BF08BD6C
:107E940000100140DE32002008B51120FFF742FF38
:107EA4000E4B4FF48032C3F848230C4B4FF480320E
:107EB400C3F80823094B01225A602F20FFF7A2FFC1
:107EC400064B01229A60064B00221A602F20FFF70E
:107ED40099FF044B00221A7000BF08BD0010014036
:107EE400D0320020DE320020024BD3F8043518468D
:107EF400704700BF0010014082B001900091019AC8
:107F0400009BD31A23F07F43184602B07047000049
:107F140082B00190034A019BC2F8403500BF02B011
:107F2400704700BF0010014086B00190284B1B68C9
:107F3400002B03D1264A019B136045E0019B1A687C
:107F4400234B1B681B689A4210D8214B1B68196885
:107F5400019B1A681E4B1B688A1A1A601C4B1A680C
:107F6400019BDA611A4A019B13602DE0019B1B6897
:107F74000393174B1B680593154B1B68049309E087
:107F8400049B1B68039AD31A0393049B0593049BD5
:107F9400DB690493049B002B04D0049B1B68039AA5
:107FA4009A42EDD8049B002B05D0049B1A68039BCE
:107FB400D21A049B1A60019B039A1A60019B049ACB
:107FC400DA61059B019ADA6100BF06B0704700BF11
:107FD400CC32002000B587B001902A4B1B68039374
:107FE400284B1B680593059B049308E0049A019BA6
:107FF4009A4208D0049B0593049BDB690493049B79
:10800400002BF3D100E000BF049B002B01D100231F
:1080140033E0059A049B9A4214D11A4B1B68DB691E
:10802400184A1360174B1B68002B0BD1164B012207
:108034009A60164B00221A60154B01221A702F20E9
:10804400FFF7E0FE049B1B680293049BDA69059B1F
:10805400DA61059BDB690493049B002B05D0049B28
:108064001A68029B1A44049B1A60064B1B68039A05
:108074009A4214BF01230023DBB2184607B05DF80F
:1080840004FB00BFCC32002000100140D03200209D
:10809400DF32002008B51120FFF75CFE00BF08BDE9
:1080A40008B51420FFF756FE00BF08BD00B583B025
:1080B4000190019B5B69019A92691046984700BF41
:1080C40003B05DF804FB000000B585B02B4B1B68C2
:1080D400002B4ED000230193FFF706FF0246284BE6
:1080E4001B6819461046FFF707FF0290234B1B68D5
:1080F40003931DE0039B1B68029A9A421CD3039BC3
:108104001B68029AD31A0293039B1B68019A1344B7
:108114000193039B0093039BDB690393009B1B7CEC
:10812400002B05D0009B00221A740098FFF7BEFFB5
:10813400039B002BDED100E000BF124B1A78124BD8
:108144001B789A420CD1104B1B780133DAB20E4BD8
:108154001A700D4B1B78022B02D10B4B00221A70A4
:10816400094B1B781946094A019B42F82130FFF755
:1081740097FF00BF05B05DF804FB00BFCC320020C0
:10818400D0320020DC320020DD320020D432002046
:1081940082B00190184B1A78184B1B789A4223D05E
:1081A400154B1B780133DAB2134B1A70124B1B7840
:1081B400022B02D1104B00221A700F4B1B781A4667
:1081C4000F4B53F82220019B1A60019B1A680D4B38
:1081D4001B6813440B4A13600A4B1B6823F07F434C
:1081E400084A1360012303E0019B00221A60002364
:1081F400184602B0704700BFDC320020DD32002098
:10820400D4320020D032002088B003900291019231
:108214000023079338E0204B1B680693069B1B68DA
:10822400039A9A4206D2069B1A68039BD21A069BAB
:108234001A602DE0069B1B68039AD31A0393069BCE
:108244001B68079A13440793069B00221A60124B7B
:108254001B680593069BDB690F4A1360069BDB686A
:10826400002B11D0029A079B134423F07F42069BF4
:108274005A60069BDA68069B9A60019B1A68069B03
:10828400DA61019B059A1A60034B1B68002BC2D16B
:1082940000BF08B0704700BFCC32002000B589B0E1
:1082A400019000238DF81F30664B1B680593AAE0EC
:1082B400019B002B05D0019B0693069BDB69019370
:1082C40061E0614B1B781A4613465B001344DB00E4
:1082D4005D4A1344043304935B4B1B780133DAB2D5
:1082E400594B1A70584B1A78574B9B789A4202D1C3
:1082F400554B00221A70049B5B680693049B1B7801
:10830400022B04D0032B1BD0012B1FD01DE0049B98
:108314005B681846FFF75EFE0346002B02D001237C
:108324008DF81F30069B00221A746CE0454B1B68C5
:108334000393039B00221A74039BDB69414A136075
:10834400404B1B68002BF1D15DE05CE000BF069B55
:108354001B7C002B00D056E0049B9A68069B5A6055
:10836400049BDA68069B9A60049B1A69069BDA6090
:10837400049B5A69069B9A61344B1B78002B02D0EC
:10838400069B00225A60069B5A68314B1B68D31A1D
:1083940023F07F432F4A93420ED8069B5A682C4BF6
:1083A4001B6819461046FFF7A7FD0246069B9B680B
:1083B4001A44069B1A6017E0254B1A68069B5B68F3
:1083C40019461046FFF798FD0290069B9B68029A97
:1083D4009A4206D2069B9A68029BD21A069B1A609E
:1083E40002E0069B00221A60069B00225A60069B4C
:1083F40000229A60069B01221A74069B0022DA610D
:108404000698FFF791FD019B002B7FF451AF0E4BB3
:108414001A780D4B5B789A427FF44AAF9DF81F306F
:10842400002B04D1074B1B68059A9A4201D0012303
:1084340000E0002303F00103DBB2184609B05DF845
:1084440004FB00BFCC320020C0310020DF3200200A
:10845400D0320020FEFF7F0010B588B00190274B7A
:108464001B68002B44D0254B1B681B680793FFF740
:108474003BFD0690224B1B68059305990698FFF770
:108484003BFD0346033304931E4B1B7883F0010327
:10849400DBB2002B01D0FFF7DFFC049A079B934269
:1084A40038BF1346059A13440593059B23F07F4375
:1084B40005930598FFF72CFDFFF716FD0390069929
:1084C4000398FFF719FD0346DC1C06990598FFF78E
:1084D40013FD03469C420DD9FFF706FD03461846DB
:1084E400FFF716FD2F20FFF78DFCFFF7D3FD01E00A
:1084F400FFF7D2FC00BF08B010BD00BFCC32002093
:10850400D0320020DE32002000B587B00023019372
:1085140000238DF81730194B1B680493184B1B6804
:1085240003936B461846FFF733FE03468DF80B3072
:108534009DF80B30002B08D0009B01AA0499184623
:10854400FFF762FE01238DF81730019B1846FFF7F1
:10855400A5FE0346002B02D001238DF817309DF8A9
:108564001730002B02D00398FFF776FF054B00224B
:108574001A7000BF07B05DF804FB00BFD0320020C2
:10858400CC320020DF32002082B003468DF8073061
:10859400034A9DF80730537000BF02B0704700BF14
:1085A400C031002084B00190144B5B7801338DF806
:1085B4000F30124B9B789DF80F209A4202D1002372
:1085C4008DF80F300D4B1B789DF80F209A4201D186
:1085D40000230FE0019B9DF80F201A70074B5B7876
:1085E4001A4613465B001344DB00044A1344043365
:1085F4000293029B184604B0704700BFC0310020AC
:1086040000B589B00390029101920093002307936F
:1086140000238DF816300DF11603184600F096FB72
:108624000DF117031846FFF7BDFF0690069B002BBC
:1086340002D10423079318E0069B01221A70069BBB
:10864400039A5A60FFF750FC0246069B9A60069B09
:10865400029ADA60069B019A1A61069B009A5A6193
:108664009DF817301846FFF78FFF9DF8163018460F
:1086740000F082FB079B002B01D1FFF711FD079B44
:10868400184609B05DF804FB00B587B001900B46AD
:108694008DF803300023059300238DF80E300DF17F
:1086A4000E03184600F052FB0DF10F031846FFF7B6
:1086B40079FF0490049B002B02D1042305930BE063
:1086C400049B9DF803201A70049B019A5A609DF83C
:1086D4000F301846FFF758FF9DF80E30184600F08B
:1086E4004BFB059B002B01D1FFF7DAFC059B1846D9
:1086F40007B05DF804FB000008B50E4B0022C3F878
:1087040040210C4B0022C3F844210A4B0022C3F839
:108714004821084B0022C3F84C21064B0022C3F821
:108724000021044B0022C3F80421FFF7CDFC00BF55
:1087340008BD00BF0010014008B5FFF7E5FE00BF0B
:1087440008BD000008B5FFF7A7FB134B00221A7001
:10875400114B00225A70104B0B229A700F4B0022BF
:108764001A600F4B00221A700E4B00221A7014204C
:10877400FFF708FB06211420FFF71CFB1420FFF76A
:10878400BBFA0020FFF756FBFFF7AEFB0246064B91
:108794001A600023184608BDC0310020CC320020E6
:1087A400DC320020DD320020D032002086B003907D
:1087B4000B4601928DF80B30134B9B78002B01D1A3
:1087C40008231EE0019B002B01D1072319E0039B22
:1087D400002B01D1072314E0039B1B681B7C002B97
:1087E40001D008230DE0039B1B680593059B002221
:1087F4001A74059B9DF80B205A74059B019A5A61C3
:108804000023184606B07047C031002000B587B079
:10881400039002910192039B0593144B9B78002BC8
:1088240001D108231EE0039B002B01D1082319E08A
:10883400029B042B01D8072314E0059B5B69002BE2
:1088440001D108230EE0059B5B7C012B01D1029B27
:1088540000E000230493019B049A02990598FFF712
:10886400CFFE0346184607B05DF804FBC031002074
:1088740000B585B00190019B03930D4B9B78002BB1
:1088840001D1082310E0019B002B03D0039B5B69FB
:10889400002B01D1082307E0039B00221A74022154
:1088A4000398FFF7F1FE0346184605B05DF804FB94
:1088B400C031002000B587B00390029113468DF8B3
:1088C400073000230593039B1B781A46114B9B5CCE
:1088D400002B09D0039B04339DF807200299184606
:1088E40006F04CFC05900FE0039B1B781A46094BDD
:1088F4009B5C002B08D1039B0C339DF80720029945
:10890400184605F007FE0590059B184607B05DF86C
:1089140004FB00BF4434002000B585B0019000235F
:108924008DF80F30019B1B781A46114B9B5C002B72
:1089340008D0019B0433184606F0CAFC03468DF8A0
:108944000F300EE0019B1B781A46094B9B5C002BF1
:1089540007D1019B0C33184605F064FE03468DF8DD
:108964000F309DF80F30184605B05DF804FB00BFCA
:108974004434002000B587B00390029113468DF86B
:10898400073000230593039B1B781A46114B9B5C0D
:10899400002B09D0039B04339DF807200299184645
:1089A40006F0AEFC05900FE0039B1B781A46094BBA
:1089B4009B5C002B08D1039B0C339DF80720029984
:1089C400184605F087FE0590059B184607B05DF82C
:1089D40004FB00BF4434002084B00190019B9B68D9
:1089E4000393019BDA68039BD31A184604B07047BB
:1089F40000B587B001900091019B1B78012B04D036
:108A0400022B38D0002B47D05CE0019B5B681B78BD
:108A140019462E48FFF73FF90590059B002B0AD015
:108A240001238DF80C30059B0493294B1B6803AA82
:108A3400104698470DE02548FFF7CEFF0346002B6C
:108A440007D000238DF80C30214B1B6803AA104675
:108A540098471E48FFF7C0FF02461C4B9B889A426A
:108A640005D801221B491C48FFF784FF2AE01B4B51
:108A740001221A7026E002238DF80C30019BDB687A
:108A84000493012213491448FFF774FF104B1B6829
:108A940003AA1046984715E011491248FFF716F942
:108AA4000346002B05D101220D490B48FFF702FFB5
:108AB40007E003238DF80C30054B1B6803AA10460E
:108AC400984700BF00BF07B05DF804FBEC320020FC
:108AD400E0320020E8320020D82A0020E9320020C9
:108AE400E4320020FC32002030B591B003900291B2
:108AF40001928DF803303C4A019B1360029B002BCA
:108B040001D107236DE0029B1968029B5B689BB24D
:108B14001A463648FFF793F80F900F9B0E930E9B5F
:108B2400002B01D00E9B5CE0029B9968029BDB68E2
:108B34009BB21A462E48FFF782F80F900F9B0D93B5
:108B44000D9B002B01D00D9B4BE02A4B04AC1D4622
:108B54000FCD0FC495E80F0084E80F00039B5B69F9
:108B64000A93039B1B7C002B14BF01230023DBB25D
:108B74008DF824309DF803308DF82C30039B5B7CFA
:108B8400002B01D00E2300E000238DF82530039B39
:108B9400DB680693039B9B680793039B1B68059301
:108BA400039B5B68049304AB134A1946134804F00F
:108BB40077F80F900F9B0C930C9B002B01D00C9B10
:108BC4000FE00F4B00221A70039B1B68B3F1FF3FA9
:108BD40006D001220B490948FFF7CCFE034600E00A
:108BE4000023184611B030BDE0320020EC320020E2
:108BF400FC32002098A30300F5890200D82A002043
:108C0400E9320020E832002000B585B003468DF833
:108C140007309DF8073019461048FFF73CF80390D9
:108C2400039B002B15D10E48FFF776FE034683F015
:108C34000103DBB2002B0CD00A490848FFF746F8C1
:108C44000346002B05D1012206490548FFF732FEF1
:108C54000390039B184605B05DF804FBFC3200202A
:108C6400D82A0020E432002082B0EFF3108300936E
:108C7400009B019372B6019B184602B0704762B61E
:108C840000BF704700B585B00190FFF7EDFF03907A
:108C9400164B9B68002B1BD1144B01229A60144B7A
:108CA400D3F88020134B1340104A1360104B114A21
:108CB400C3F880200E4BD3F884300C4A53600C4B1D
:108CC4004FF0FF32C3F88420019B00221A7002E0A7
:108CD400019B01221A70039B002B01D1FFF7CFFFE8
:108CE4000023184605B05DF804FB00BF0C330020D8
:108CF40000E100E0FC06FFBD00B585B003468DF839
:108D04000730104B9B68002B16D09DF80730002BC2
:108D140012D1FFF7A9FF03900B4A0A4B1B6813609B
:108D2400094A084B5B685360064B00229A60039B18
:108D3400002B01D1FFF7A3FF0023184605B05DF80F
:108D440004FB00BF0C33002000E100E000B583B059
:108D5400019000F02BF80346012B03D00549432072
:108D64000CF02AFE0198FFF78DFF00BF03B05DF8F9
:108D740004FB00BF2CA4030000B583B003468DF8A8
:108D8400073000F013F80346012B03D006495120A5
:108D94000CF012FE9DF807301846FFF7ADFF00BF38
:108DA40003B05DF804FB00BF2CA4030084B0EFF310
:108DB40005830193019BC3F308030393039B002BD7
:108DC4000DD1EFF314830093009B0293029B03F0F5
:108DD4000103002B0CBF01230023DBB200E00123BD
:108DE400184604B0704700B585B001900091009B0F
:108DF4005B099B00019AD018009B03F01F0301221A
:108E040002FA03F3194600F04CF8039000BF05B0D2
:108E14005DF804FB00B585B001900091009B5B09EF
:108E24009B00019AD018009B03F01F03012202FA51
:108E340003F3DB43194600F064F8039000BF05B068
:108E44005DF804FB82B001900091009B5B099B00DC
:108E5400019A13441A68009B03F01F0322FA03F3D8
:108E640003F00103002B14BF01230023DBB21846D7
:108E740002B0704710B487B001900091019B009A32
:108E840053E8004F104643E8000191F0000FF7D17A
:108E9400059404900391059B184607B05DF8044BB4
:108EA400704710B487B001900091019B009A53E879
:108EB400004F44EA020043E8000191F0000FF6D1AC
:108EC400059404900391049B184607B05DF8044B85
:108ED400704710B487B001900091019B009A53E849
:108EE400004F04EA020043E8000191F0000FF6D1BC
:108EF400059404900391059B184607B05DF8044B54
:108F0400704710B487B001900091019B009A53E818
:108F1400004F04EA020043E8000191F0000FF6D18B
:108F2400059404900391049B184607B05DF8044B24
:108F3400704710B487B001900091019B009A53E8E8
:108F4400004F04EB020043E8000191F0000FF6D15A
:108F5400059404900391049B184607B05DF8044BF4
:108F6400704710B487B001900091019B009A53E8B8
:108F7400004FA4EB020043E8000191F0000FF6D18A
:108F8400059404900391049B184607B05DF8044BC4
:108F9400704700B583B0019001210198FFF781FF6C
:108FA4000346184603B05DF804FB00B583B0019096
:108FB40000210198FFF78DFF0346184603B05DF8C2
:108FC40004FB000000B583B001900B468DF803301C
:108FD400019B002B03D10849E8200CF0EDFC019B18
:108FE400DA689DF803300199098A01FB03F31344FD
:108FF400184603B05DF804FBA4A4030000B583B0D5
:1090040001900091019B002B03D10849F5200CF03D
:10901400D3FC009B019AD2689B1A019A128AB3FB73
:10902400F2F3DBB2184603B05DF804FBA4A403001A
:1090340000B585B00190019B002B01D10E234CE0BB
:10904400019B1B68002B03D12649FF200CF0B4FCC4
:10905400019B5B68002B04D122494FF480700CF013
:10906400ABFC019B9B68002B04D11E4940F201100C
:109074000CF0A2FC019BDB68002B04D119494FF4CE
:1090840081700CF099FC019B1B8A002B04D11549BB
:1090940040F203100CF090FC019B9A68019B5B6802
:1090A400D31A8DF80F30019B1B68019A52681A601D
:1090B40007E0019B1A681368591C11609DF80F2082
:1090C4001A709DF80F305A1E8DF80F20002BF0D126
:1090D400019B1B6800221A710023184605B05DF835
:1090E40004FB00BFA4A4030000B585B00190019B5C
:1090F400002B04D11F494FF492700CF05DFC002347
:10910400039300238DF80A300DF10A031846FFF784
:109114001DFE019B1B681A68019B5B689A421FD95C
:10912400019B1B681A68013A1A601B681B78194670
:109134000198FFF747FF0390019B9A68019B1B6806
:109144001B68D31A8DF80B30019B1B681B799DF8A3
:109154000B209A4204D9019B1B689DF80B201A71BD
:109164009DF80A301846FFF707FE039B184605B022
:109174005DF804FBA4A4030010B584B00190009131
:10918400019B002B04D1154940F247100CF014FC4C
:10919400009B002B04D111494FF4A4700CF00CFC7B
:1091A400009B039300238DF80B300DF10B0318463D
:1091B400FFF7CCFD019B1B681C68621C1A600399B5
:1091C4000198FFF71BFF034623709DF80B301846E8
:1091D400FFF7D2FD00BF04B010BD00BFA4A403007C
:1091E40000B583B00190019B002B03D10C493120C1
:1091F4000CF0E2FB019B9B68002B0CD0019B5B698C
:10920400019A1069019A1168019A92689847019B22
:1092140000229A6000E000BF03B05DF804FB00BFC9
:1092240018A503000EB400B584B00190019B002B77
:1092340003D1184942200CF0BFFB019B5B69002B52
:1092440003D1144943200CF0B7FB019B1B68002B8E
:1092540003D1104944200CF0AFFB019B5B68002B49
:1092640003D10C4945200CF0A7FB059B002B0AD029
:109274000023039306AB039303AB1A4605990198A5
:1092840000F0B0F900E000BF04B05DF804EB03B0F7
:10929400704700BF18A5030000B583B001900B46CA
:1092A4008DF80330019B1A68019B9B68581C019937
:1092B400886013449DF803201A70019B9A68019BEF
:1092C4005B689A4202D30198FFF78AFF00BF03B09C
:1092D4005DF804FB00B587B00390029101920093FE
:1092E40000230593009B03F00103002B24D00BE023
:1092F400029B01330293059B013305939DF81330C0
:1093040019460398FFF7C8FF029B1B788DF81330AA
:109314009DF81330002BEBD106E0019B013B019338
:1093240020210398FFF7B8FF019A059B9A422ED992
:10933400019B002BF1D12AE0029B002B0BD0029859
:109344000FF06CFE059006E0019B013B0193202188
:109354000398FFF7A1FF019A059B9A420FD9019B3D
:10936400002BF1D10BE0029B01330293059B0133E7
:1093740005939DF8133019460398FFF78DFF029B60
:109384001B788DF813309DF81330002BEBD100BF00
:1093940007B05DF804FB000000B589B003900291AA
:1093A40001920093029B07930123069307E0079A17
:1093B400019BB2FBF3F30793069B01330693079AD1
:1093C400019B9A42F3D2009A069B9A4201D9009BD0
:1093D40006930B9B03F00103002B22D10A9B002B65
:1093E4001FD00B9B03F00203002B06D0009B002B25
:1093F40003D130238DF8173002E020238DF8173085
:1094040008E00A9B013B0A939DF81730194603981C
:10941400FFF742FF0A9B002B03D0069A0A9B9A424D
:10942400EFD301230793009B012B03D9009B013B3E
:10943400009309E0029A079BB2FBF3F30493049AA6
:10944400019B9A4200D205E0079B019A02FB03F3B9
:109454000793E8E7029A079BB2FBF3F30493049B98
:10946400079A02FB03F3029AD31A0293154A049B48
:1094740013441B7819460398FFF70EFF079A019BC4
:10948400B2FBF3F30793079B002BE3D10B9B03F091
:109494000103002B11D00A9B002B0ED006E00A9B7F
:1094A400013B0A9320210398FFF7F6FE0A9B002B49
:1094B40003D0069A0A9B9A42F1D300BF09B05DF823
:1094C40004FB00BFF4A5030000B589B00590049126
:1094D40003920293049B002BB8BF5B4206930123C3
:1094E400079307E0039B069A92FBF3F30693079B0B
:1094F40001330793039B069A9A42F3DA029A079B75
:109504009A4201D9029B07930A9B002B0AD0049B21
:10951400002B04DB0B9B03F00403002B02D00A9BFB
:10952400013B0A930B9B03F00203002B02D0029B26
:10953400002B16D00B9B03F00103002B11D10A9BC7
:10954400002B0ED006E00A9B013B0A9320210598CC
:10955400FFF7A2FE0A9B002B03D0079A0A9B9A42AC
:10956400F1D3049B002B07DA049B5B4204932D2167
:109574000598FFF791FE08E00B9B03F00403002B12
:1095840003D02B210598FFF787FE0B9B03F0020302
:10959400002B19D00B9B03F00103002B14D1029B69
:1095A400002B11D10A9B002B0ED006E00A9B013B35
:1095B4000A9330210598FFF76FFE0A9B002B03D016
:1095C400079A0A9B9A42F1D304990B9B01930A9B35
:1095D4000093029B039A0598FFF7DEFE00BF09B0D3
:1095E4005DF804FB00B58FB0059004910392059BD0
:1095F400002B04D1C8494FF4A2700CF0DDF9059B8F
:109604005B69002B04D1C4494FF4A3700CF0D4F966
:10961400059B1B68002B04D1BF4940F247100CF096
:10962400CBF9059B5B68002B04D1BB494FF4A470B4
:109634000CF0C2F9049B002B00F0ED81049B1B7815
:109644008DF83730049B013304939DF83730002B99
:1096540000F0D8819DF83730252B40F0C7810023D6
:109664000A9301230C93049B1B788DF837309DF8E3
:1096740037302D2B04D0302B0AD02B2B10D017E0F1
:109684000A9B43F001030A93049B0133049312E001
:109694000A9B43F002030A93049B013304930AE0F8
:1096A4000A9B43F004030A93049B0133049302E0EE
:1096B40000230C9300BF0C9B002BD4D100230993EF
:1096C4009DF837302A2B0CD1039B1B68191D039A74
:1096D40011601B68099A13440993049B0133049392
:1096E4001AE0049B1B788DF837309DF837302F2B08
:1096F40012D99DF83730392B0ED8049B01330493CB
:10970400099A13469B0013445B001A469DF83730B0
:109714001344303B0993D3E700230B93049B1B783A
:109724008DF837309DF837302E2B1DD1049B013333
:109734000493049B1B788DF837309DF837302F2B1A
:1097440012D99DF83730392B0ED8049B013304937A
:109754000B9A13469B0013445B001A469DF837305E
:109764001344303B0B93E4E7049B1B788DF83730AC
:109774009DF837306C2B03D09DF83730682B07D118
:10978400049B01330493049B1B788DF83730EFE777
:109794009DF83730253B532B00F2238101A252F868
:1097A40023F000BFDD990200E7990200E799020067
:1097B400E7990200E7990200E7990200E79902009D
:1097C400E7990200E7990200E7990200E79902008D
:1097D400E7990200E7990200E7990200E79902007D
:1097E400E7990200E7990200E7990200E79902006D
:1097F400E7990200E7990200E7990200E79902005D
:10980400E7990200E7990200E7990200E79902004C
:10981400E7990200E7990200E7990200E79902003C
:10982400E7990200E7990200E7990200E79902002C
:10983400E7990200E7990200E7990200E79902001C
:10984400E7990200E7990200E7990200E79902000C
:10985400E7990200E7990200E7990200E7990200FC
:10986400E7990200E7990200E7990200E7990200EC
:1098740069990200E7990200E7990200E79902005A
:10988400E7990200E7990200E7990200E7990200CC
:10989400E7990200E7990200E7990200F9980200AB
:1098A40021990200E7990200E7990200E799020072
:1098B400E799020021990200E7990200E799020062
:1098C400E7990200E7990200E7990200E79902008C
:1098D400A9990200E7990200E79902008D99020014
:1098E400E799020045990200E7990200E79902000E
:1098F40069990200039B1B68191D039A11601B6878
:109904000C930C9B8DF823309DF823301946059851
:10991400FFF7C2FC66E000BF84A50300039B1B683D
:10992400191D039A11601B680C930A9B0193099BF0
:1099340000930B9B0A220C990598FFF7C5FD51E093
:10994400039B1B68191D039A11601B680C930C99E7
:109954000A9B0193099B00930B9B0A220598FFF72E
:109964001BFD3FE0039B1B68191D039A11601B68D4
:109974000C930C990A9B0193099B00930B9B102257
:109984000598FFF709FD2DE0039B1B68191D039A39
:1099940011601B6807930A9B099A07990598FFF7BA
:1099A40099FC1FE0039B1B68191D039A11601B6837
:1099B4000C9330210598FFF76FFC78210598FFF789
:1099C4006BFC0C99002301930823009308231022B5
:1099D4000598FFF7E1FC05E025210598FFF75CFCFD
:1099E40000E000BF049B0133049305E09DF8373089
:1099F40019460598FFF750FC049B1B78002B7FF455
:109A04001DAE00E000BF059B1B7B002B04D0059816
:109A1400FFF7E6FB00E000BF0FB05DF804FB00BFFA
:109A240000B583B001900198FFF702FB0346184686
:109A340003B05DF804FB00B58BB001900091019B6D
:109A44001B8A043B0793009A079B1344DA1C079B69
:109A5400B2FBF3F38DF81B300198FFF745FB05903B
:109A6400059B002B01D1002338E0059B00221A71CD
:109A7400059B01225A71079B9AB2059BDA80059BCC
:109A840009939DF81B30013B0493099B019A1A60CA
:109A9400002308931DE00198FFF726FB0390039B26
:109AA400002B0ED0059B5B790133DAB2059B5A710A
:109AB400099B039A1A60039B019A1A60039B0993FA
:109AC40004E0059800F00EF8002307E0089B01333A
:109AD4000893089A049B9A42DDD3059B18460BB061
:109AE4005DF804FB00B58BB00190019B0793079BC5
:109AF4005B798DF81B30019B08939DF81B30013B6B
:109B040005930023099305E0089B1B680893099BB0
:109B140001330993099A059B9A42F5D3089B1B6864
:109B24000493019B0893002309930BE0089B1B6893
:109B3400039308990498FFF71FFB039B0893099B61
:109B4400013309939DF81B30099A9A42EED300BF62
:109B54000BB05DF804FB00B585B00190019B039345
:109B6400039B043301211846FFF7E3F900BF05B056
:109B74005DF804FB00B587B00190019B0593059B3C
:109B8400043301211846FFF7ECF90346039303ABB2
:109B94000493049B1B78002B02D10198FFF7A2FFCA
:109BA40000BF07B05DF804FB00B591B003900291CB
:109BB40001920093039B002B03D14349B6200BF081
:109BC400FBFE039B0993039B0F93099BDB881A46B7
:109BD400099B5B7903FB02F3043B0893009A089BFF
:109BE4009A4203D33849C4200BF0E6FE099BDB8874
:109BF4000793009B1A1D079BB2FBF3F30E93009B84
:109C04000433079AB3FBF2F2079901FB02F29B1AA1
:109C14000D93019B1A68009B1344089A9A4203D23D
:109C2400089A009BD31A01E0019B1B680C93019BCB
:109C34000C9A1A6005E00F9B1B680F930E9B013B67
:109C44000E930E9B002BF6D100230B93079A0D9BCA
:109C5400D31A0A930A9A0C9B934228BF13460A9379
:109C64002AE0029A0B9B134406930F9A0D9B13440C
:109C7400043305939DF84830002B05D00A9A0599C2
:109C840006980FF04DF904E00A9A069905980FF02A
:109C940047F900230D930F9B1B680F930C9A0A9BA3
:109CA400D31A0C930B9A0A9B13440B93079A0C9B9D
:109CB400934228BF13460A930C9B002BD1D100BFBB
:109CC40011B05DF804FB00BF04A6030000B589B021
:109CD4000590049103920293039B079307AA002320
:109CE4000093029B04990598FFF75EFF079B039A74
:109CF4009A4203D00349F6200BF05EFE00BF09B080
:109D04005DF804FB04A6030000B589B00590049136
:109D140003920293039B079307AA01230093029BD8
:109D240004990598FFF740FF079B039A9A4204D0D1
:109D340004494FF480700BF03FFE00BF09B05DF89A
:109D440004FB00BF04A6030000B583B00190019B8F
:109D5400002B03D1064972200BF02EFE019B00223A
:109D64001A60BFF35F8F00BF03B05DF804FB00BF50
:109D7400CCA6030008B50C4A0C4BD31ADB081B0411
:109D840043F003030A491846FCF79EFF094B0022DF
:109D94001A700948FFF7D8FF0849094800F030F85D
:109DA4000023184608BD00BF38A00300B89F030075
:109DB40088A703001C3300201833002018A80300D0
:109DC4002033002082B00190019B9B6800229A609E
:109DD400019B9B6800221A61019B9B6800225A61C7
:109DE400019B9B680022DA60019B9B6800225A60F9
:109DF400019B9B6800221A6000BF02B070470000FC
:109E040000B583B001900091019B002B03D1104950
:109E140050200BF0D1FD009B002B03D10C495120A5
:109E24000BF0CAFD019B009A1A60019B1B681A681B
:109E3400019B5A60019B5A68019B1B685B689A42AC
:109E440002D1019B00225A6000BF03B05DF804FBFD
:109E540024A8030000B583B00190019B002B03D11B
:109E6400144963200BF0A8FD019B1B68002B03D150
:109E7400104964200BF0A0FD019B5B68002B14D0FB
:109E8400019B5B681A46019B1B689B6813441A4636
:109E9400019B5A60019B5A68019B1B685B689A424C
:109EA40004D1019B00225A6000E000BF03B05DF8BA
:109EB40004FB00BF24A8030000B585B001900198FD
:109EC40000F00EF80390039B002B01D0039B00E0ED
:109ED400024B184605B05DF804FB00BFB0A80300B0
:109EE40086B00190164B0593164B04931FE0049A19
:109EF400059BD31ADB10DA0F13445B10DB00059AC1
:109F040013440393039B1B680293029A019B9A4296
:109F140002D9039B04930AE0029A019B9A4203D25A
:109F2400039B0833059302E0039B5B6804E0059AF6
:109F3400049B9A42DBD30023184606B0704700BF47
:109F4400B0AC0300D8AD030082B003468DF80730EF
:109F54009DF8073003F01F0205499DF907305B099E
:109F6400012000FA02F241F8232000BF02B070473A
:109F740000E100E082B003468DF807309DF8073019
:109F840003F01F0206499DF907305B09012000FA1E
:109F940002F2203341F8232000BF02B0704700BF13
:109FA40000E100E082B0034600918DF807309DF98E
:109FB4000730002B0CDA009BDAB20C499DF807300D
:109FC40003F00F03043B5201D2B20B441A7609E0AA
:109FD400009BDAB206499DF907305201D2B20B4414
:109FE40083F8002300BF02B0704700BF00ED00E01B
:109FF40000E100E082B00190019B1B0B5BB21846AC
:10A0040002B0704700B583B003460A468DF80730A6
:10A0140013468DF806309DF80630012B03D99DF8C0
:10A024000630032B0BD99DF80630042B03D99DF879
:10A034000630072B03D908496B200BF0BDFC9DF8B3
:10A0440006209DF9073011461846FFF7ABFF00BF05
:10A0540003B05DF804FB00BFD8AD030000B583B0C6
:10A0640003468DF807309DF907301846FFF76CFF5B
:10A0740000BF03B05DF804FB00B583B003468DF860
:10A0840007309DF907301846FFF774FF00BF03B08F
:10A094005DF804FB82B001900B468DF803309DF807
:10A0A4000330019A134401221A6000BF02B07047C2
:10A0B40084B001900B46ADF80230BDF80230019A2D
:10A0C400134400221A60BDF80230019A13441B683D
:10A0D4000393039B00BF04B0704782B001900B460A
:10A0E400ADF80230BDF80230019A13441B68002B0E
:10A0F40014BF01230023DBB2184602B0704782B0BC
:10A1040001900091019BD3F80022009BDB431A408D
:10A11400019BC3F8002200BF02B0704782B00190D7
:10A124000091019B009AC3F8042300BF02B070475A
:10A1340082B001900091019B009AC3F8082300BFEC
:10A1440002B0704782B00190019B0522C3F800253C
:10A1540000BF02B0704782B00190019B0022C3F897
:10A16400002500BF02B0704784B0039002910192B1
:10A17400039B029AC3F80825039B019AC3F80C2594
:10A1840000BF04B0704782B00190019BD3F808353A
:10A19400184602B0704782B00190019BD3F80C3589
:10A1A400184602B0704782B001900091019B009A5A
:10A1B400C3F8242500BF02B0704784B00190019B0E
:10A1C400D3F8C4340393019B039AC3F8C424039BB8
:10A1D400184604B0704782B001900B468DF80330E6
:10A1E4009DF80320019BC3F8882500BF02B0704787
:10A1F40082B00190019BD3F81835DBB2184602B047
:10A20400704782B001900B468DF803309DF803200F
:10A21400019BC3F81C2500BF02B0704782B00190B7
:10A224000091019B009AC3F8002200BF02B070475E
:10A2340000B583B00190019B1B682F2B04D90B49F7
:10A244004FF4F3700BF0B8FB019B1B681F2B02D873
:10A254004FF0A04306E0019B1B6803F01F02019B23
:10A264001A60034B184603B05DF804FB08AE030004
:10A274000003005000B585B00190084611461A4607
:10A2840003468DF803300B468DF8023013468DF8E3
:10A29400013001AB1846FFF7CBFF03909DF8032074
:10A2A4009DF802305B001A439DF801309B001A436D
:10A2B4009DF818301B0242EA03019DF81C301B0470
:10A2C400019A1943039B02F5E07243F8221000BF80
:10A2D40005B05DF804FB00B585B00390002301933D
:10A2E400002300930023012200210398FFF7C2FFFB
:10A2F40000BF05B05DF804FB84B001900323039311
:10A30400019B03F00103002B02D04FF4024303939B
:10A31400019B03F00203002B02D048F201230393B4
:10A32400019B03F00403002B02D048F202230393A1
:10A33400039B184604B0704700B58BB00590049198
:10A3440003920293049B002B03D14B4989200BF009
:10A3540033FB049B1A68049B5B689A4203D1464909
:10A364008A200BF029FB059B1B791A4613461B0117
:10A374009B1A9B00414A13440893089B93F82D3081
:10A38400002B03D008230793079B70E0059B1A68F2
:10A39400059B1B7919463A4B53F821301946104650
:10A3A40003F030FD0346002B03D011230793079BD2
:10A3B4005DE0089B039A1A60089B029A5A60089B06
:10A3C40000229A60089B002283F83020089B002218
:10A3D40083F82F20049B5A7B089B83F83820049B26
:10A3E400186800230193062300930323002200210D
:10A3F400FFF740FF049B5868002301930623009352
:10A40400032300220021FFF735FF059B1B680993F6
:10A41400049B1968049B5B681A460998FFF7A4FE1D
:10A42400049B9B6819460998FFF7BDFE089B1B68AF
:10A43400002B15D0059B1B681846FFF7DBFD034670
:10A444001A46049B1B7B19461046FFF7DBFD059B50
:10A454001B681846FFF7CEFD03461846FFF7FEFDBE
:10A46400089B012283F82D2000230793079B18469D
:10A474000BB05DF804FB00BF3CAE030028330020A2
:10A48400ACAE030000B585B00190019B1B791A4660
:10A4940013461B019B1A9B00214A13440393039BFD
:10A4A40093F82D30002B03D11E49CF200BF084FAF2
:10A4B400039B1B68002B08D0019B1B681846FFF701
:10A4C40099FD03461846FFF7D7FD019800F054F8AC
:10A4D400019B1B68184603F0D7FC039B93F83830A4
:10A4E40083F00103DBB2002B11D0019B1B681846DB
:10A4F400FFF749FE03461846FFF7EDFE019B1B6874
:10A504001846FFF748FE03461846FFF7E4FE039B90
:10A51400002283F82D2000BF05B05DF804FB00BFC6
:10A52400283300203CAE030000B585B00190019BA8
:10A534001B791A4613461B019B1A9B000C4A1344B1
:10A544000393039B93F82D30012B03D00949E82092
:10A554000BF032FA019B1B6802930298FFF7F2FD9D
:10A56400039B022283F82D2000BF05B05DF804FB95
:10A57400283300203CAE030000B585B00190019B58
:10A584001B791A4613461B019B1A9B00104A13445D
:10A594000393039B93F82D30002B03D10D49F42032
:10A5A4000BF00AFA019B1B6802930B490298FFF710
:10A5B400BFFD03210298FFF7A2FD0298FFF7CBFD30
:10A5C400039B012283F82D2000BF05B05DF804FB36
:10A5D400283300203CAE03008642040000B585B059
:10A5E4000390029101920093009B1B68019A9A4286
:10A5F4000ED9009B1B68029A13441B7819460398D2
:10A60400FFF7FFFD009B1B685A1C009B1A600DE0BE
:10A614009DF81830002B05D01C210398FFF73AFD54
:10A62400002304E014210398FFF734FD01231846A6
:10A6340005B05DF804FB10B584B00390029101925B
:10A644000093009B1B68019A9A4223D9009B1B68C4
:10A65400029AD4180398FFF7CBFD03462370009B9E
:10A664001B685A1C009B1A60009B1A68019B013BE3
:10A674009A4204D102210398FFF7D0FD04E0009B25
:10A684001B68019A9A4204D020210398FFF702FD27
:10A6940000E000BF04B010BD00B589B0059004917E
:10A6A40003920293049B1B78002B04D1039B1B6829
:10A6B4000A9A9A4201D1012300E000238DF81F3049
:10A6C4009DF81F3003F001038DF81F30049B1B78A5
:10A6D400002B0FD04FF492710598FFF7E9FC4FF46B
:10A6E4008E710598FFF7E4FC4FF484710598FFF729
:10A6F400DFFC6FE04FF492710598FFF7EEFC034620
:10A70400002B0CD04FF492710598FFF7D1FC142163
:10A714000598FFF7BFFC049B01221A705AE04FF41E
:10A724008E710598FFF7D9FC0346002B2AD04FF40D
:10A734008E710598FFF7BCFC4FF492710598FFF7F2
:10A74400CCFC0346002B0CD04FF492710598FFF714
:10A75400AFFC14210598FFF79DFC049B01221A709D
:10A7640038E09DF82C300093039B0A9A02990598CF
:10A77400FFF734FF034683F00103DBB2002B29D03B
:10A7840000233BE04FF484710598FFF7A6FC0346D1
:10A79400002B1FD04FF484710598FFF789FC4FF408
:10A7A40092710598FFF799FC0346002B0CD04FF4E7
:10A7B40092710598FFF77CFC14210598FFF76AFC59
:10A7C400049B01221A7005E0039B0A9A02990598DA
:10A7D400FFF731FF9DF81F30002B0ED04FF482712C
:10A7E4000598FFF77AFC0346002B06D04FF48271DC
:10A7F4000598FFF75DFC002300E00123184609B02B
:10A804005DF804FB00B58BB00590049103920293AC
:10A81400002309933D4B07934FF482710498FFF78B
:10A8240047FC4FF492710498FFF742FC4FF48E7189
:10A834000498FFF73DFC4FF484710498FFF738FC4B
:10A8440000210498FFF7EAFC059B00225A63059B4C
:10A85400002283F82E2020210498FFF71BFC0821F6
:10A864000498FFF717FC059B03F134029DF8303080
:10A8740000931346029A03990498FFF7AFFE059BD1
:10A884001B68002B0DD0059B40F286229A60059B25
:10A894009B6819460498FFF741FC32E0079B013B93
:10A8A4000793079B002B11DD059B03F12E01059BEC
:10A8B40003F134029DF830300193029B0093039B13
:10A8C4000498FFF7E9FE0346002BE7D1059B93F8B4
:10A8D4002E30002B0AD00498FFF76FFC0890089BD9
:10A8E400002B03D00898FFF707FD0990079B002B66
:10A8F40007DC0498FFF72FFC0498FFF723FC0323DD
:10A904000993099B18460BB05DF804FBA08601006F
:10A9140000B58BB005900491039202930023099330
:10A924003B4B07934FF482710498FFF7C1FB4FF43C
:10A9340092710498FFF7BCFB4FF48E710498FFF7F3
:10A94400B7FB4FF484710498FFF7B2FB059B002218
:10A954005A63059B002283F82E20029B012B04D10D
:10A9640002210498FFF75AFC03E001210498FFF741
:10A9740055FC20210498FFF78DFB00210498FFF774
:10A9840089FB059B1B68002B0DD0059B40F286229A
:10A994009A60059B9B6819460498FFF7BFFB31E05A
:10A9A400079B013B0793079B002B10DD059B03F1DD
:10A9B4002E01059B03F1340200230193029B0093B3
:10A9C400039B0498FFF768FE0346002BE8D1059B20
:10A9D40093F82E30002B0AD00498FFF7EEFB089072
:10A9E400089B002B03D00898FFF786FC0990079B6F
:10A9F400002B07DC0498FFF7AEFB0498FFF7A2FBDB
:10AA040003230993099B18460BB05DF804FB00BFB0
:10AA1400A086010030B589B0059004910392029399
:10AA2400002307933B490498FFF782FB059B93F8A7
:10AA34002F30DBB2002B09D0059B9B681946049884
:10AA4400FFF76CFB11230793079B5FE0029B03F066
:10AA54000403002B0CBF01230023DAB2059B83F807
:10AA64002F20059B029A1A62059B039A03F10C049A
:10AA740015460FCD0FC42B682360039B5A68059BB2
:10AA84009A62039BDA68059B5A62039B5B781946BA
:10AA94000498FFF7A0FB039B1B78012B20D0039B9A
:10AAA4001B78002B04D1029B03F02003002B01D060
:10AAB400012300E0002303F00103DAB2059B83F8CD
:10AAC4002C20039BDA68039B5968059B93F82C3070
:10AAD40000930B4604990598FFF794FE07900CE049
:10AAE400059B002283F82C20039BDA68039B5B6898
:10AAF40004990598FFF70CFF0790059B1B68002B32
:10AB040003D1059B002283F82F20079B184609B028
:10AB140030BD00BF8642040000B587B003900291A7
:10AB2400019200230593039B1B791A4613461B01CC
:10AB34009B1A9B00144A13440493049B1B68002B28
:10AB440008D1029B1B78022B04D1104940F24B2000
:10AB54000AF032FF049B1B68002B08D1029B1B7870
:10AB6400032B04D109494FF413700AF025FF039B0A
:10AB74001968019B029A0498FFF74CFF0590059B06
:10AB8400184607B05DF804FB283300203CAE0300F0
:10AB940030B58DB003900291029B1B68002B04D149
:10ABA4004D494FF420700AF007FF029B03F12E0178
:10ABB400029B03F13400029B5C6A029B9B6A029A2B
:10ABC40092F82C2001920093234602460398FFF743
:10ABD40063FD0346002B7CD1029B93F82E3083F057
:10ABE4000103DBB2002B3CD0029B1B7B022B03D066
:10ABF400029B1B7B032B34D1029B5A6A029B9B69E9
:10AC04009A422ED1029BDA69029B5A62029B5A69CC
:10AC1400029B9A62029B1B6A03F02003002B14BF61
:10AC240001230023DAB2029B83F82C20029B1B7BB6
:10AC3400032B0DD1029B5A6A029B996A029B93F8DB
:10AC44002C3000930B4603990298FFF7DBFD41E09B
:10AC5400029B5A6A029B9B6A03990298FFF758FE6B
:10AC640038E0029B06AC03F10C050FCD0FC42B6832
:10AC74002360029B93F82E30002B15D00398FFF726
:10AC84009CFA0B900B9B03F00203002B03D00123CF
:10AC94008DF814300BE00B9B03F00403002B06D05B
:10ACA40002238DF8143002E000238DF81430029B47
:10ACB400002283F82F20029B1B6A03F00403002B5D
:10ACC40008D1029B1B68029A516805AA104698474E
:10ACD40000E000BF0DB030BD3CAE030008B5034931
:10ACE4004FF04020FFF754FF00BF08BD2833002079
:10ACF40000B583B00190019B04331846FFF7C2FBF3
:10AD040000BF03B05DF804FB00B583B00190019B64
:10AD140004331846FFF708FC00BF03B05DF804FBDA
:10AD240000B591B003900291019200230F93029B0E
:10AD34001B788DF81430029B5B788DF81530029BDC
:10AD44009B780693029BDB780793029B5B680893CE
:10AD5400029B9B680993039B043305A9019A184637
:10AD6400FFF7DAFE0F900F9B184611B05DF804FB55
:10AD740082B00190019B1B681B68002B0CBF012350
:10AD84000023DBB2184602B07047000000B58DB056
:10AD94000190019B002B03D1474937200AF00CFE98
:10ADA400019B1B680A930A9B1B7E8DF827300A9B24
:10ADB4001B689A689DF82730DB0013440893089BAE
:10ADC4005B795B088DF81F309DF81F308DF80D30CE
:10ADD400089B1B680493089B1B798DF80E30089B15
:10ADE4009B7903F00103002B47D0089B5B7903F0A8
:10ADF4000103002B41D19DF8273001330A9A1268D0
:10AE0400127B934239DA089B5B795B08DAB20A9BBE
:10AE14001B6899689DF827300133DB000B445B798C
:10AE24005B08DBB29A4228D10A9B1B689A689DF89A
:10AE340027300133DB0013440693069B1B680593FC
:10AE4400069B1B798DF80F30069B5B7903F0010399
:10AE5400002B01D0022300E003238DF80C30069B65
:10AE64009B795B0103F020030B930A9B1B7EDBB2EF
:10AE74000133DAB20A9B1A7611E0089B5B7903F07E
:10AE84000103DBB28DF80C300023059300238DF809
:10AE94000F30089B9B795B0103F020030B93019B0C
:10AEA400083303A90B9A1846FFF73AFF03461846DE
:10AEB4000DB05DF804FB00BFB0AE030000B585B073
:10AEC40001900091019B002B03D10D4971200AF0E0
:10AED40073FD019B1B681B681B68002B0BD0019B37
:10AEE4001B681B685B680393019B1B681B681B68DA
:10AEF40003990098984700BF05B05DF804FB00BFB4
:10AF0400B0AE030000B589B001900B468DF8033054
:10AF1400019B002B03D1424987200AF04DFD019B80
:10AF24001B68069300238DF81F3000238DF80B3027
:10AF34000DF10B031846FDF709FF9DF80330002BB4
:10AF440005D10198FFF714FF0346002B10D0019B95
:10AF54005B6806990022184600F0F2FB0346002BBA
:10AF640003D101238DF81F3002E0069B00221A60F2
:10AF74009DF80B301846FDF7FFFE9DF81F3083F057
:10AF84000103DBB2002B44D1069B1B681B69002B19
:10AF940002D1069B043302E0069B1B681B690593E0
:10AFA400069B5B691022059918460DF084F9034647
:10AFB400002B1CD0019B08331846FFF799FE019B18
:10AFC40003F10800019B174A059905F02DFE049032
:10AFD400049B002B03D01249B4200AF0EDFC019B22
:10AFE40008331846FFF790FE069B059A5A61069BA4
:10AFF40000221A760198FFF7C9FE0390039B002BE9
:10B0040009D003990198FFF759FF01238DF8033004
:10B0140088E700BF00E000BF09B05DF804FB00BF93
:10B02400B0AE03002DB0020000B587B001900091CE
:10B03400019B002B03D12049D2200AF0BDFC009BC8
:10B044000493049B1B681B68002B03D11A49D82066
:10B054000AF0B2FC019B1B78002B20D1002305933E
:10B06400049B1B681B7E8DF80F309DF80F30013355
:10B074008DF80F30049B1B681B681B7B9DF80F2009
:10B084009A420ED2049B1B689DF80F201A760498EE
:10B09400FFF77CFE0590059B002B02D109E00323FA
:10B0A400059305990498FFF709FF01210498FFF718
:10B0B40029FF07B05DF804FBB0AE030010B584B0FF
:10B0C40001900091019B002B04D125494FF4847019
:10B0D4000AF072FC019B5B68002B04D1204940F20A
:10B0E40009100AF069FC019B5B689B68002B04D182
:10B0F4001B494FF485700AF05FFC009B002B04D1C0
:10B10400174940F20B100AF057FC019B03F10800A9
:10B11400019B144A009905F087FD0390039B029359
:10B12400029B002B01D0029B17E0019B08331846B9
:10B13400FFF7EAFD019B1B6800221A60019B1B6854
:10B14400009A1C1D13460FCB84E80F00019B1A685C
:10B15400019B1B6804325A610023184604B010BDD9
:10B16400B0AE03002DB0020000B583B00190019B86
:10B17400002B04D108494FF491700AF01DFC019B87
:10B1840008331846FFF7B4FD019B1B6800221A60C0
:10B1940000BF03B05DF804FBB0AE030000B585B09A
:10B1A40001900091019B002B04D11A4940F22D100B
:10B1B4000AF002FC009B002B04D116494FF497704F
:10B1C4000AF0FAFB009B9B68002B04D1114940F262
:10B1D4002F100AF0F1FB009B1B7B002B04D10D49BF
:10B1E4004FF498700AF0E8FB00230393019B5B681B
:10B1F4006A461146184600F0EBF90390039B002BB6
:10B2040003D100210198FFF77DFE039B184605B08A
:10B214005DF804FBB0AE030000B583B00190019B60
:10B224005B681846FDF704FF0346184603B05DF853
:10B2340004FB00B585B001900091009B0393039B30
:10B244009B6A002B06D0039B9B6A039AD268114623
:10B2540001989847039BDB6A5B6800991846FDF7E1
:10B264008BFF00BF05B05DF804FB000000B587B09C
:10B27400039001930B468DF80B3013468DF80A307A
:10B28400039B002B03D1394951200AF095FB089BFD
:10B29400002B03D1354952200AF08EFB039B5B68D7
:10B2A4001846FDF721FF0590059B002B01D10423CF
:10B2B40057E0059B039ADA62059B019A9A62059B03
:10B2C4009DF80A201A70059A9DF80B305B00D9B2DC
:10B2D400059B5A60059B01221A72059B0A465A7205
:10B2E400059B01229A729DF80B305B005BB243F020
:10B2F40001035BB2D9B2059B089ADA60059B9DF8FD
:10B3040024201A74059B0A465A74059B01229A74D8
:10B31400059B191D059B143300221A605A609A601C
:10B32400DA601A61059B124A5A61059B059A9A6173
:10B33400059BD961059B022283F82020039B1A6890
:10B34400059B143319461046FFF728FF0490049B0D
:10B35400002B05D0039B5B6805991846FDF70CFF8D
:10B36400049B184607B05DF804FB00BF34AF03002C
:10B3740037B2020000B585B001900091009B0393A1
:10B38400039BDB6A5B6800991846FDF7F5FE00BF76
:10B3940005B05DF804FB000000B587B0039001928E
:10B3A4001A460B468DF80B3013468DF80A30039B72
:10B3B400002B03D138498E200AF0FEFA019B002BA2
:10B3C40003D135498F200AF0F7FA039B5B681846CE
:10B3D400FDF78AFE0490049B002B01D1042357E05F
:10B3E400049B039ADA629DF80B305B00D9B2049B8C
:10B3F400019A1A61049B9DF80A201A75049B0A4657
:10B404005A75049B00229A759DF82030002B15D0A4
:10B414009DF80A30102B07D9039B5B6804991846E2
:10B42400FDF7AAFE092333E0049B9DF80A20019945
:10B4340018460DF075FD049A049B1A61049B03F1F0
:10B444001001049B183300221A605A609A60DA6073
:10B454001A61049B114A9A61049B049ADA61049B61
:10B464001962049B012283F82420039B1A68049B1D
:10B47400183319461046FFF791FE0590059B002BE3
:10B4840005D0039B5B6804991846FDF775FE059B80
:10B49400184607B05DF804FB34AF030079B302002B
:10B4A40000B58BB0059003930B468DF8133013460B
:10B4B4008DF81230059B002B03D11749CB200AF0DD
:10B4C4007BFA039B002B03D11349CC200AF074FAB6
:10B4D4009DF830300F2B01D9092319E09DF8123063
:10B4E4008DF818309DF8302006AB013303991846C7
:10B4F4000DF016FD9DF830300133D8B206AA9DF840
:10B5040013100123009303460598FFF745FF0346F4
:10B5140018460BB05DF804FB34AF030000B583B0EC
:10B5240001900091019B002B03D1084977200AF078
:10B5340043FA019B9B68009A9A4202D2009B013312
:10B5440000E00023184603B05DF804FBB0AF03002D
:10B5540084B00190019B1B681B680393019B1B68CB
:10B564005B680293029A039B9A4203D3029A039B59
:10B57400D31A06E0019B9A68039BD21A029B1344D8
:10B584000133184604B0704700B585B00190019BA3
:10B59400002B03D10D498A200AF00EFA019B1B6887
:10B5A4001B680393019B1B685B68029302990198D3
:10B5B400FFF7B4FF0246039B93420CBF0123002311
:10B5C400DBB2184605B05DF804FB00BFB0AF030062
:10B5D40010B588B00190009100230793019B002BC4
:10B5E40003D1564995200AF0E7F9009B002B03D1BB
:10B5F400524996200AF0E0F900238DF80F300DF13E
:10B604000F031846FDF7A2FB0198FFF7BDFF0346A1
:10B614008DF81B309DF81B3083F00103DBB2002B47
:10B6240003D1019B1B7C002B7BD1019B1B685B68B6
:10B634000593019B1B685A68019B1C68114601987D
:10B64400FFF76CFF034663609DF81B30002B0AD0A4
:10B65400019B1B681A68019B1C6811460198FFF73F
:10B664005DFF03462360019BDB68013B072B38D851
:10B6740001A252F823F000BF9DB60200ADB602004D
:10B68400E7B60200BFB60200E7B60200E7B6020062
:10B69400E7B60200D1B60200019B5A68059B134429
:10B6A400009A12781A702DE0019B5A68059B5B0082
:10B6B4001344009A12881A8024E0019B5A68059B5F
:10B6C4009B001344009A12681A601BE0019B5A689D
:10B6D400059BDB001A44009BD3E90034C2E9003423
:10B6E40010E0019B5B681946019BDB68059A02FB2D
:10B6F40003F30B441846019BDB681A4600990DF0CE
:10B704000FFC00BF0198FFF723FF0490019B1B6807
:10B714009B68049A9A4207D9019B1B68049A9A6011
:10B7240002E00423079300E000BF9DF80F301846A1
:10B73400FDF722FB079B184608B010BDB0AF03000D
:10B7440010B588B00390029113468DF8073000239A
:10B754000793039B002B03D14549D9200AF02CF908
:10B76400029B002B03D14249DA200AF025F9002379
:10B774008DF817300DF117031846FDF7E7FA039813
:10B7840000F078F8034683F00103DBB2002B64D0A9
:10B79400039B1B681B6806939DF8073083F0010325
:10B7A400DBB2002B0AD0039B1B681A68039B1C683E
:10B7B40011460398FFF7B2FE03462360039BDB6840
:10B7C400013B072B37D801A252F823F0F1B702004E
:10B7D40001B802003BB8020013B802003BB80200F3
:10B7E4003BB802003BB8020025B80200039B5A682C
:10B7F400069B13441A78029B1A7030E0039B5A6824
:10B80400069B5B0013441A88029B1A8027E0039B63
:10B814005A68069B9B0013441A68029B1A601EE038
:10B82400039B5A68069BDB001344D3E90034029A55
:10B83400C2E9003413E0039B5B681946039BDB6891
:10B84400069A02FB03F30B441946039BDB681A4672
:10B8540002980DF065FB00BF01E0052307939DF8F6
:10B8640017301846FDF788FA079B184608B010BD34
:10B87400B0AF030000B585B00190019B002B04D14B
:10B884000B4940F20A200AF097F8019B1B681B68D9
:10B894000393019B1B685B680293039A029B9A4281
:10B8A4000CBF01230023DBB2184605B05DF804FB8E
:10B8B400B0AF0300BFF34F8F054BDB6803F4E062C6
:10B8C4000349044B1343CB60BFF34F8F00BFFDE725
:10B8D40000ED00E00400FA05024B034A1A6000BFC1
:10B8E400704700BFEC2A00200090D00308B500F098
:10B8F40025F90346002B0ED04FF080430022C3F8F5
:10B904000C214FF080430022C3F810214FF08043F4
:10B914000022C3F8382500F035F90346002B76D011
:10B924004FF080537C4AD3F80434C2F820354FF0EA
:10B934008053794AD3F80834C2F824354FF0805341
:10B94400754AD3F80C34C2F828354FF08053724A44
:10B95400D3F81034C2F82C354FF080536E4AD3F824
:10B964001434C2F830354FF080536B4AD3F818348E
:10B97400C2F834354FF08053674AD3F81C34C2F808
:10B9840040354FF08053644AD3F82034C2F844352C
:10B994004FF08053604AD3F82434C2F848354FF04E
:10B9A40080535D4AD3F82834C2F84C354FF08053A5
:10B9B400594AD3F82C34C2F850354FF08053564AC4
:10B9C400D3F83034C2F854354FF08053524AD3F888
:10B9D4003434C2F860354FF080534F4AD3F83834CA
:10B9E400C2F864354FF080534B4AD3F83C34C2F864
:10B9F40068354FF08053484AD3F84034C2F86C3568
:10BA04004FF08053444AD3F84434C2F8703500F000
:10BA1400DDF80346002B02D0404B414A1A6000F087
:10BA2400E7F80346002B03D03E4BFB22C3F818254E
:10BA340000F0F0F80346002B0AD03B4B1B6823F0C0
:10BA44000F023A4B1B6803F00F03374913430B6093
:10BA540000F0F2F80346002B03D0354B4FF400728C
:10BA64001A6000F0FBF80346002B0DD04FF0804322
:10BA7400D3F8003403F00103002B05D04FF08043CA
:10BA84006FF00102C3F800242A4BD3F88830294A06
:10BA940043F47003C2F88830BFF34F8FBFF36F8F46
:10BAA4004FF01023D3F80032002B05DB4FF01023A6
:10BAB400D3F80432002B2BDA1F4B0122C3F80425E0
:10BAC40000BF1D4BD3F80034002BFAD04FF01023E5
