:020000022000DC
:1060000000000420756302005D6302005F6302000C
:106010006163020063630200656302000000000028
:1060200000000000000000000000000067630200A4
:1060300069630200000000006B6302006D630200F0
:106040000D9C02006F63020029A2020039EE0200DB
:10605000B5DC02006F630200419F020061BE0200D6
:106060006F6302006F6302006F6302006F630200E0
:106070006F6302006F6302006F6302006F630200D0
:106080006F6302002D6F02006F6302006F630200F6
:106090006D6F02006F630200A53D03006F63020095
:1060A0006F6302006F63020075CD02006F63020030
:1060B0006F6302006F630200000000000000000038
:1060C0006F6302006F6302006F63020035CF02004E
:1060D000798C02006F6302006F6302006F6302003D
:1060E0006F6302006F6302006F6302000000000034
:1060F000000000006F630200000000006F630200F8
:10610000000000000000000000000000000000008F
:10611000000000000000000000000000000000007F
:10612000000000000000000000000000000000006F
:10613000000000000000000000000000000000005F
:10614000000000000000000000000000000000004F
:10615000000000000000000000000000000000003F
:10616000000000000000000000000000000000002F
:10617000000000000000000000000000000000001F
:10618000000000000000000000000000000000000F
:1061900000000000000000000000000000000000FF
:1061A00000000000000000000000000000000000EF
:1061B00000000000000000000000000000000000DF
:1061C00000000000000000000000000000000000CF
:1061D00000000000000000000000000000000000BF
:1061E00000000000000000000000000000000000AF
:1061F000000000000000000000000000000000009F
:10620000354936480A1A02D0072291438D4634494F
:1062100034480A1A06D00722914381F309880222E2
:1062200082F3148830483149314A00F044F831484B
:106230003149324A00F03FF831483249324A00F0E1
:106240003AF832483249334A00F035F83248334997
:10625000334A00F030F833483349344A00F02BF821
:1062600033483449344A00F026F83448344900228F
:1062700000F02CF833483449002200F027F8334866
:106280003349091A082902DB002202604160314AC1
:1062900090471F481F49884205D00268043003B464
:1062A000904703BCF7E700208646EC46002000211B
:1062B000294A9047FEE7884207D0521A05D0037852
:1062C00001300B700131013AF9D17047884202D098
:1062D00002700130FAE770470000042000E003205C
:1062E0000000042000000420988503006073002053
:1062F0003C770020D4630200D4630200F06D0300F9
:10630000988503006073002060730020746E0300A2
:10631000746E0300746E0300746E0300746E0300E9
:10632000746E0300746E0300746E0300988503009E
:10633000748903003C7700203C7700203C770020E4
:1063400018EB002018EB002020EB002020EB0020B1
:1063500020EF00209D63020049150300FEE7FEE7E1
:10636000FEE7FEE7FEE7FEE7FEE7FEE7FEE7FEE705
:10637000704700BF1048804710484FF0070188431E
:1063800085460F4880470F48016841F4700101605D
:10639000BFF34F8FBFF36F8FFFF732BF0A480B4930
:1063A0000B4A884207D0521A05D0037801300B708F
:1063B0000131013AF9D170477163020000000420F5
:1063C000E187020088ED00E0746E03006073002036
:0463D00060730020D6
:1063D4000048704710EB002010F0C6BC10F0DBBC86
:1063E40003460846012110F0CABC000086B00390A1
:1063F4000291019201238DF817309DF81730214A3C
:10640400039B13601F4A029B53601E4A019B9360C7
:10641400039B44F20102934213D0039B44F2020211
:10642400934221D1019B174AD360164BDB681B882A
:106434001A46144B9A61134BDB685B68114AD361AB
:1064440012E0019B0F4A13610E4B1B699B680D4AB6
:1064540053610C4B1B691B680A4A9361094B1B6906
:106464005B68084AD36100BF72B600BF00BF9DF8E5
:106474001730DBB2002BFAD162B600BF00BF06B002
:10648400704700BF3C77002000B583B002900091B4
:10649400019244F2010071466A4600F003F803B029
:1064A40000BD00BF00B587B003900291019272B69F
:1064B40000BF039B44F20202934217D0039B44F2B1
:1064C4000202934218D8039B44F20102934210D073
:1064D400039B44F2010293420ED8039B012B0DD07F
:1064E400039B41F2010293420AD005E0019B05930C
:1064F40007E0019B049304E000BF02E000BF00E05A
:1065040000BF084B1B6803F00103002B00D000BE42
:10651400019A02990398FFF769FF00BF07B05DF87D
:1065240004FB00BFF0ED00E082B003468DF80730B5
:106534009DF8073003F01F0205499DF907305B09F8
:10654400012000FA02F241F8232000BF02B0704794
:1065540000E100E082B003468DF807309DF8073073
:1065640003F01F0206499DF907305B09012000FA78
:1065740002F2203341F8232000BF02B0704700BF6D
:1065840000E100E082B003468DF807309DF8073043
:1065940003F01F0206499DF907305B09012000FA48
:1065A40002F2403341F8232000BF02B0704700BF1D
:1065B40000E100E082B003468DF807309DF8073013
:1065C40003F01F0206499DF907305B09012000FA18
:1065D40002F2603341F8232000BF02B0704700BFCD
:1065E40000E100E082B0034600918DF807309DF988
:1065F4000730002B0CDA009BDAB20C499DF8073007
:1066040003F00F03043B5201D2B20B441A7609E0A3
:10661400009BDAB206499DF907305201D2B20B440D
:1066240083F8002300BF02B0704700BF00ED00E014
:1066340000E100E000B585B00190019B002B0AD079
:10664400074B43F001030393019B9B010293039BBC
:106654000298984700E000BF05B05DF804FB00BF56
:10666400806E030000B583B00190064A019BC2F816
:10667400083506211120FFF7B5FF00BF03B05DF810
:1066840004FB00BF0010014008B50D4B4FF48032ED
:10669400C3F844230A4B4FF48032C3F80423112077
:1066A400FFF788FF1120FFF73FFF054B01221A6017
:1066B4002F20FFF7BFFF034B01221A7000BF08BD54
:1066C400001001407A78002008B51120FFF742FF3E
:1066D4000E4B4FF48032C3F848230C4B4FF48032F6
:1066E400C3F80823094B01225A602F20FFF7A2FFA9
:1066F400064B01229A60064B00221A602F20FFF7F6
:1067040099FF044B00221A7000BF08BD001001401D
:106714006C7800207A780020024BD3F804351846B0
:10672400704700BF0010014082B001900091019AAF
:10673400009BD31A23F07F43184602B07047000031
:1067440082B00190034A019BC2F8403500BF02B0F9
:10675400704700BF0010014086B00190284B1B68B1
:10676400002B03D1264A019B136045E0019B1A6864
:10677400234B1B681B689A4210D8214B1B6819686D
:10678400019B1A681E4B1B688A1A1A601C4B1A68F4
:10679400019BDA611A4A019B13602DE0019B1B687F
:1067A4000393174B1B680593154B1B68049309E06F
:1067B400049B1B68039AD31A0393049B0593049BBD
:1067C400DB690493049B002B04D0049B1B68039A8D
:1067D4009A42EDD8049B002B05D0049B1A68039BB6
:1067E400D21A049B1A60019B039A1A60019B049AB3
:1067F400DA61059B019ADA6100BF06B0704700BFF9
:106804006878002000B587B001902A4B1B68039379
:10681400284B1B680593059B049308E0049A019B8D
:106824009A4208D0049B0593049BDB690493049B60
:10683400002BF3D100E000BF049B002B01D1002307
:1068440033E0059A049B9A4214D11A4B1B68DB6906
:10685400184A1360174B1B68002B0BD1164B0122EF
:106864009A60164B00221A60154B01221A702F20D1
:10687400FFF7E0FE049B1B680293049BDA69059B07
:10688400DA61059BDB690493049B002B05D0049B10
:106894001A68029B1A44049B1A60064B1B68039AED
:1068A4009A4214BF01230023DBB2184607B05DF8F7
:1068B40004FB00BF68780020001001406C780020C1
:1068C4007B78002008B51120FFF75CFE00BF08BDEF
:1068D40008B51420FFF756FE00BF08BD00B583B00D
:1068E4000190019B5B69019A92691046984700BF29
:1068F40003B05DF804FB000000B585B02B4B1B68AA
:10690400002B4ED000230193FFF706FF0246284BCD
:106914001B6819461046FFF707FF0290234B1B68BC
:1069240003931DE0039B1B68029A9A421CD3039BAA
:106934001B68029AD31A0293039B1B68019A13449F
:106944000193039B0093039BDB690393009B1B7CD4
:10695400002B05D0009B00221A740098FFF7BEFF9D
:10696400039B002BDED100E000BF124B1A78124BC0
:106974001B789A420CD1104B1B780133DAB20E4BC0
:106984001A700D4B1B78022B02D10B4B00221A708C
:10699400094B1B781946094A019B42F82130FFF73D
:1069A40097FF00BF05B05DF804FB00BF68780020C6
:1069B4006C780020787800207978002070780020A6
:1069C40082B00190184B1A78184B1B789A4223D046
:1069D400154B1B780133DAB2134B1A70124B1B7828
:1069E400022B02D1104B00221A700F4B1B781A464F
:1069F4000F4B53F82220019B1A60019B1A680D4B20
:106A04001B6813440B4A13600A4B1B6823F07F4333
:106A1400084A1360012303E0019B00221A6000234B
:106A2400184602B0704700BF7878002079780020BB
:106A3400707800206C78002088B003900291019255
:106A44000023079338E0204B1B680693069B1B68C2
:106A5400039A9A4206D2069B1A68039BD21A069B93
:106A64001A602EE0069B1B68039AD31A0393069BB5
:106A74001B68079A13440793069B00221A60124B63
:106A84001B680593069BDB690F4A1360069BDB6852
:106A9400002B11D0029A079B134423F07F42069BDC
:106AA4005A60069BDA68069B9A60019B1A68069BEB
:106AB400DA61019B059A1A60034B1B68002BC2D153
:106AC40000BF00BF08B070476878002000B589B0E7
:106AD400019000238DF81F30664B1B680593AAE0D4
:106AE400019B002B05D0019B0693069BDB69019358
:106AF40061E0614B1B781A4613465B001344DB00CC
:106B04005D4A1344043304935B4B1B780133DAB2BC
:106B1400594B1A70584B1A78574B9B789A4202D1AA
:106B2400554B00221A70049B5B680693049B1B78E8
:106B3400032B1ED0032B7EDC012B1FD0022B7AD11A
:106B4400049B5B681846FFF75DFE0346002B02D0EA
:106B540001238DF81F30069B00221A746BE0454B0D
:106B64001B680393039B00221A74039BDB69414A4D
:106B74001360404B1B68002BF1D15CE000BF069B07
:106B84001B7C002B00D056E0049B9A68069B5A603D
:106B9400049BDA68069B9A60049B1A69069BDA6078
:106BA400049B5A69069B9A61344B1B78002B02D0D4
:106BB400069B00225A60069B5A68314B1B68D31A05
:106BC40023F07F432F4A93420ED8069B5B682C4ADE
:106BD400126811461846FFF7A7FD0246069B9B68FC
:106BE4001A44069B1A6017E0254B1A68069B5B68DB
:106BF40019461046FFF798FD0290069B9B68029A7F
:106C04009A4206D2069B9A68029BD21A069B1A6085
:106C140002E0069B00221A60069B00225A60069B33
:106C240000229A60069B01221A74069B0022DA61F4
:106C34000698FFF791FD019B002B7FF451AF0E4B9B
:106C44001A780D4B5B789A427FF44AAF9DF81F3057
:106C5400002B04D1074B1B68059A9A4201D00123EB
:106C640000E0002303F00103DBB2184609B05DF82D
:106C740004FB00BF687800205C7700207B7800204C
:106C84006C780020FEFF7F0010B588B00190274B80
:106C94001B68002B44D0254B1B681B680793FFF728
:106CA4003BFD0690224B1B68059305990698FFF758
:106CB4003BFD0346033304931E4B1B7883F001030F
:106CC400DBB2002B01D0FFF7DFFC049A079B934251
:106CD40038BF1346059A13440593059B23F07F435D
:106CE40005930598FFF72CFDFFF716FD0390069911
:106CF4000398FFF719FD0346DC1C06990598FFF776
:106D040013FD03469C420DD9FFF706FD03461846C2
:106D1400FFF716FD2F20FFF78DFCFFF7D3FD01E0F1
:106D2400FFF7D2FC00BF08B010BD00BF6878002098
:106D34006C7800207A78002000B587B00023019396
:106D440000238DF81730194B1B680493184B1B68EC
:106D540003936B461846FFF733FE03468DF80B305A
:106D64009DF80B30002B08D0009B01AA049918460B
:106D7400FFF762FE01238DF81730019B1846FFF7D9
:106D8400A5FE0346002B02D001238DF817309DF891
:106D94001730002B02D00398FFF776FF054B002233
:106DA4001A7000BF07B05DF804FB00BF6C780020C8
:106DB400687800207B78002082B003468DF8073085
:106DC400034A9DF80730537000BF02B0704700BFFC
:106DD4005C77002084B00190144B5B7801338DF80C
:106DE4000F30124B9B789DF80F209A4202D100235A
:106DF4008DF80F300D4B1B789DF80F209A4201D16E
:106E040000230FE0019B9DF80F201A70074B5B785D
:106E14001A4613465B001344DB00044A134404334C
:106E24000293029B184604B0704700BF5C770020B1
:106E340000B589B003900291019200930023079357
:106E440000238DF816300DF11603184600F08EF964
:106E54000DF117031846FFF7BDFF0690069B002BA4
:106E640002D10423079318E0069B01221A70069BA3
:106E7400039A5A60FFF750FC0246069B9A60069BF1
:106E8400029ADA60069B019A1A61069B009A5A617B
:106E94009DF817301846FFF78FFF9DF816301846F7
:106EA40000F07AF9079B002B01D1FFF711FD079B36
:106EB400184609B05DF804FB00B587B001900B4695
:106EC4008DF803300023059300238DF80E300DF167
:106ED4000E03184600F04AF90DF10F031846FFF7A8
:106EE40079FF0490049B002B02D1042305930BE04B
:106EF400049B9DF803201A70049B019A5A609DF824
:106F04000F301846FFF758FF9DF80E30184600F072
:106F140043F9059B002B01D1FFF7DAFC059B1846CA
:106F240007B05DF804FB000008B50E4B0022C3F85F
:106F340040210C4B0022C3F844210A4B0022C3F821
:106F44004821084B0022C3F84C21064B0022C3F809
:106F54000021044B0022C3F80421FFF7CDFC00BF3D
:106F640008BD00BF0010014008B5FFF7E5FE00BFF3
:106F740008BD000008B5FFF7A7FB134B00221A70E9
:106F8400114B00225A70104B0B229A700F4B0022A7
:106F94001A600F4B00221A700E4B00221A70142034
:106FA400FFF708FB06211420FFF71CFB1420FFF752
:106FB400BBFA0020FFF756FBFFF7AEFB0346064A79
:106FC40013600023184608BD5C7700206878002011
:106FD40078780020797800206C78002000B587B09C
:106FE400039002910192039B0593144B9B78002B11
:106FF40001D108231EE0039B002B01D1082319E0D3
:10700400029B042B01D8072314E0059B5B69002B2A
:1070140001D108230EE0059B5B7C012B01D1029B6F
:1070240000E000230493019B049A02990598FFF75A
:10703400FFFE0346184607B05DF804FB5C770020AA
:1070440000B585B00190019B03930D4B9B78002BF9
:1070540001D1082310E0019B002B03D0039B5B6943
:10706400002B01D1082307E0039B00221A7402219C
:107074000398FFF721FF0346184605B05DF804FBAB
:107084005C77002082B0EFF310830093009B0193A0
:1070940072B600BF019B184602B0704762B600BFCB
:1070A40000BF704700B585B00190FFF7EBFF039078
:1070B400164B9B68002B1BD1144B01229A60144B76
:1070C400D3F88020134B1340104A1360104B114A1D
:1070D400C3F880200E4BD3F884300C4A53600C4B19
:1070E4004FF0FF32C3F88420019B00221A7002E0A3
:1070F400019B01221A70039B002B01D1FFF7CEFFE5
:107104000023184605B05DF804FB00BF7C7800201E
:1071140000E100E0FC06FFBD00B585B003468DF834
:107124000730104B9B68002B16D09DF80730002BBE
:1071340012D1FFF7A7FF03900B4A0A4B1B68136099
:10714400094A084B5B685360064B00229A60039B14
:10715400002B01D1FFF7A2FF0023184605B05DF80C
:1071640004FB00BF7C78002000E100E000B583B0A0
:10717400019000F02BF80346012B03D0054943206E
:1071840008F072FE0198FFF78DFF00BF03B05DF8B1
:1071940004FB00BF886E030000B583B003468DF87E
:1071A400073000F013F80346012B03D006495120A1
:1071B40008F05AFE9DF807301846FFF7ADFF00BFF0
:1071C40003B05DF804FB00BF886E030084B0EFF3E6
:1071D40005830193019BC3F308030393039B002BD3
:1071E4000DD1EFF314830093009B0293029B03F0F1
:1071F4000103002B0CBF01230023DBB200E00123B9
:10720400184604B0704700B585B001900091009B0A
:107214005B099B00019A1A44009B03F01F030121A0
:1072240001FA03F31946104606F04CFD039000BF23
:1072340005B05DF804FB00B585B001900091009B9A
:107244005B099B00019A1A44009B03F01F03012170
:1072540001FA03F3DB431946104606F04BFD039095
:1072640000BF05B05DF804FB82B001900091009B63
:107274005B099B00019A13441A68009B03F01F03E7
:1072840022FA03F303F00103002B14BF01230023AC
:10729400DBB2184602B0704700B583B001900B46CC
:1072A4008DF80330019B002B03D10849E82008F036
:1072B400DBFD019BDA689DF803300199098A01FB23
:1072C40003F31344184603B05DF804FB006F030096
:1072D40000B583B001900091019B002B03D10849B4
:1072E400F52008F0C1FD009B019AD2689B1A019A0F
:1072F400128AB3FBF2F3DBB2184603B05DF804FB69
:10730400006F030000B585B00190019B002B01D1F3
:107314000E234CE0019B1B68002B03D12649FF2060
:1073240008F0A2FD019B5B68002B04D122494FF4B5
:10733400807008F099FD019B9B68002B04D11E49C5
:1073440040F2011008F090FD019BDB68002B04D192
:1073540019494FF4817008F087FD019B1B8A002BAB
:1073640004D1154940F2031008F07EFD019B9A6890
:10737400019B5B68D31A8DF80F30019B1B68019A3F
:1073840052681A6007E0019B1A681368591C11605F
:107394009DF80F201A709DF80F305A1E8DF80F209B
:1073A400002BF0D1019B1B6800221A7100231846A0
:1073B40005B05DF804FB00BF006F030000B585B0A5
:1073C4000190019B002B04D11F494FF4927008F0E7
:1073D4004BFD0023039300238DF80A300DF10A03BB
:1073E4001846FFF7C3FE019B1B681A68019B5B6884
:1073F4009A421FD9019B1B681A68013A1A601B68DC
:107404001B7819460198FFF747FF0390019B9A6880
:10741400019B1B681B68D31A8DF80B30019B1B68FA
:107424001B799DF80B209A4204D9019B1B689DF897
:107434000B201A719DF80A301846FFF7ADFE039B26
:10744400184605B05DF804FB006F030010B584B066
:1074540001900091019B002B04D1154940F2471083
:1074640008F002FD009B002B04D111494FF4A470D5
:1074740008F0FAFC009B039300238DF80B300DF108
:107484000B031846FFF772FE019B1B681C68621C05
:107494001A6003990198FFF71BFF034623709DF8B8
:1074A4000B301846FFF778FE00BF04B010BD00BFD4
:1074B400006F030000B583B00190019B002B03D142
:1074C4000649722008F0D0FC019B00221A60BFF329
:1074D4005F8F00BF00BF03B05DF804FBC86F0300FB
:1074E40008B5064B00221A700548FFF7E3FF05496B
:1074F400054800F00BF80023184608BD8C780020DE
:1075040088780020787003009078002000B583B05C
:1075140001900091019B002B03D11049502008F0E9
:10752400A3FC009B002B03D10C49512008F09CFCC8
:10753400019B009A1A60019B1B681A68019B5A60A0
:10754400019B5A68019B1B685B689A4202D1019BAC
:1075540000225A6000BF03B05DF804FB847003008E
:1075640000B583B00190019B002B03D11449632023
:1075740008F07AFC019B1B68002B03D1104964209E
:1075840008F072FC019B5B68002B14D0019B5B68C4
:107594001A46019B1B689B6813441A46019B5A6058
:1075A400019B5A68019B1B685B689A4204D1019B4A
:1075B40000225A6000E000BF03B05DF804FB00BF86
:1075C4008470030084B00190019B9B680393019B2A
:1075D400DA68039BD31A184604B0704782B001904E
:1075E4000B468DF80330019B1A68019BDB680199F7
:1075F40089880B4013449DF803201A70019BDB68B3
:107604005A1C019BDA6000BF02B0704784B003903B
:107614000B460192ADF80A30039B1A68039B9968E4
:10762400BDF80A300B44039989880B4013441A7837
:10763400019B1A7000BF04B0704700B583B001907D
:107644000091009A00210198FFF7E0FF019B9B68DD
:107654005A1C019B9A6000BF03B05DF804FB84B020
:10766400039002911346ADF80630029B002B01D122
:107674000E231DE0BDF80630002B07D0BDF8063000
:107684005A1EBDF806301340002B01D009230FE029
:10769400039B029A1A60BDF80630013B9AB2039B21
:1076A4009A80039B00229A60039B0022DA600023E5
:1076B400184604B0704700B583B001900B468DF8AE
:1076C40003300198FFF77EFF0246019B9B889A4294
:1076D40007D89DF8033019460198FFF77FFF002370
:1076E40000E00423184603B05DF804FB00B583B042
:1076F400019000910198FFF765FF0346002B05D028
:1077040000990198FFF799FF002300E0052318462C
:1077140003B05DF804FB000000B583B00190009154
:10772400019B002B03D10849772008F09DFB019BA6
:107734009B68009A9A4202D2009B013300E0002326
:10774400184603B05DF804FB1071030084B0019087
:10775400019B1B681B680393019B1B685B68029376
:10776400029A039B9A4203D3029A039BD31A06E01C
:10777400019B9A68039BD21A029B13440133184657
:1077840004B0704700B585B00190019B002B03D174
:107794000D498A2008F068FB019B1B681B68039352
:1077A400019B1B685B68029302990198FFF7B4FF81
:1077B4000246039B93420CBF01230023DBB218460D
:1077C40005B05DF804FB00BF1071030010B588B06C
:1077D4000190009100230793019B002B03D156498C
:1077E400952008F041FB009B002B03D152499620C1
:1077F40008F03AFB00238DF80F300DF10F03184603
:10780400FFF7B4FC0198FFF7BDFF03468DF81B306A
:107814009DF81B3083F00103DBB2002B03D1019BE5
:107824001B7C002B7BD1019B1B685B680593019B30
:107834001B685A68019B1C6811460198FFF76CFF8E
:10784400034663609DF81B30002B0AD0019B1B6824
:107854001A68019B1C6811460198FFF75DFF0346F7
:107864002360019BDB68013B072B38D801A252F847
:1078740023F000BF99780200A9780200E37802009F
:10788400BB780200E3780200E3780200E3780200A8
:10789400CD780200019B5A68059B1344009A127824
:1078A4001A702DE0019B5A68059B5B001344009AF3
:1078B40012881A8024E0019B5A68059B9B0013449C
:1078C400009A12681A601BE0019B5A68059BDB0052
:1078D400D118009BD3E90023C1E9002310E0019BE8
:1078E4005B681946019BDB68059A02FB03F30B44B2
:1078F4001846019BDB681A4600990EF0BDFA00BFDA
:107904000198FFF723FF0490019B1B689B68049A6E
:107914009A4207D9019B1B68049A9A6002E00423E7
:10792400079300E000BF9DF80F301846FFF734FCC2
:10793400079B184608B010BD1071030010B588B03D
:107944000390029113468DF8073000230793039B9D
:10795400002B03D14549D92008F086FA029B002B5D
:1079640003D14249DA2008F07FFA00238DF817305A
:107974000DF117031846FFF7F9FB039800F078F8A8
:10798400034683F00103DBB2002B63D0039B1B6827
:107994001B6806939DF8073083F00103DBB2002BCC
:1079A4000AD0039B1B681A68039B1C681146039842
:1079B400FFF7B2FE03462360039BDB68013B072B02
:1079C40037D801A252F823F0ED790200FD790200C4
:1079D400377A02000F7A0200377A0200377A0200FF
:1079E400377A0200217A0200039B5A68069B1344EB
:1079F4001A78029B1A702FE0039B5A68069B5B005F
:107A040013441A88029B1A8026E0039B5A68069B3B
:107A14009B0013441A68029B1A601DE0039B5A687A
:107A2400069BDB001344D3E900230299C1E9002338
:107A340012E0039B5B681946039BDB68069A02FB12
:107A440003F30B441946039BDB681A4602980EF0B5
:107A540013FA01E0052307939DF817301846FFF742
:107A64009BFB079B184608B010BD00BF10710300B4
:107A740000B585B00190019B002B04D10B4940F265
:107A84000A2008F0F1F9019B1B681B680393019B12
:107A94001B685B680293039A029B9A420CBF012302
:107AA4000023DBB2184605B05DF804FB1071030037
:107AB40000B587B00390029113468DF80730002378
:107AC4000593039B1B781A46114B9B5C002B09D032
:107AD400039B04339DF807200299184603F07CFDAC
:107AE40005900FE0039B1B781A46094B9B5C002B07
:107AF40008D1039B0C339DF807200299184602F025
:107B040039FF0590059B184607B05DF804FB00BFDC
:107B14001C79002000B585B0019000238DF80F304A
:107B2400019B1B781A46114B9B5C002B08D0019BD0
:107B34000433184603F0FAFD03468DF80F300EE0C7
:107B4400019B1B781A46094B9B5C002B07D1019BB8
:107B54000C33184602F096FF03468DF80F309DF85B
:107B64000F30184605B05DF804FB00BF1C790020F7
:107B740000B587B00390029113468DF807300023B7
:107B84000593039B1B781A46114B9B5C002B09D071
:107B9400039B04339DF807200299184603F0DEFD89
:107BA40005900FE0039B1B781A46094B9B5C002B46
:107BB40008D1039B0C339DF807200299184602F064
:107BC400B9FF0590059B184607B05DF804FB00BF9C
:107BD4001C79002084B00190019B9B680393019B56
:107BE400DA68039BD31A184604B0704700B587B00F
:107BF40001900091019B1B78022B3BD0022B60DC8F
:107C0400002B48D0012B5CD1019B5B681B78194683
:107C14002E48FFF750FD0590059B002B0AD0012349
:107C24008DF80C30059B0493294B1B6803AA10465E
:107C340098470DE02548FFF7CDFF0346002B07D0FA
:107C440000238DF80C30224B1B6803AA104698477A
:107C54001E48FFF7BFFF03461C4A9288934205D88B
:107C640001221C491C48FFF783FF2BE01B4B012218
:107C74001A7027E002238DF80C30019BDB68049313
:107C8400012214491448FFF773FF114B1B6803AA20
:107C94001046984716E012491248FFF727FD03469D
:107CA400002B05D101220E490B48FFF701FF09E023
:107CB40003238DF80C30064B1B6803AA1046984723
:107CC40000E000BF00BF07B05DF804FBA47800200B
:107CD40098780020A078002060730020A17800200C
:107CE4009C780020B478002030B591B003900291C4
:107CF40001928DF803303C4A019B1360029B002BD8
:107D040001D107236DE0029B1968029B5B689BB25B
:107D14001A463648FFF7A3FC0F900F9B0E930E9B59
:107D2400002B01D00E9B5CE0029B9968029BDB68F0
:107D34009BB21A462E48FFF792FC0F900F9B0D93AF
:107D44000D9B002B01D00D9B4BE02A4B04AC1D4630
:107D54000FCD0FC495E80F0084E80F00039B5B6907
:107D64000A93039B1B7C002B14BF01230023DBB26B
:107D74008DF824309DF803308DF82C30039B5B7C08
:107D8400002B01D00E2300E000238DF82530039B47
:107D9400DB680693039B9B680793039B1B6805930F
:107DA400039B5B68049304AB134A1946134801F020
:107DB40043FD0F900F9B0C930C9B002B01D00C9B4D
:107DC4000FE00F4B00221A70039B1B68B3F1FF3FB7
:107DD40006D001220B490948FFF7CAFE034600E01A
:107DE4000023184611B030BD98780020A4780020F4
:107DF400B478002080710300F17B020060730020DE
:107E0400A1780020A078002000B587B00190019BE4
:107E1400002B03D11449C22008F026F8134B1B7819
:107E24008DF8173001991248FFF760FC04909DF813
:107E34001730002B12D00D4B00221A7001220D496D
:107E44000D48FFF795FE0390039B0293029B002BC2
:107E540004D0054ACE210298FEF716FB049B18466F
:107E640007B05DF804FB00BFA0710300A1780020F7
:107E7400A4780020A07800206073002000B585B0AD
:107E840003468DF807309DF8073019461048FFF770
:107E940012FC0390039B002B15D10E48FFF73AFE0A
:107EA400034683F00103DBB2002B0CD00A490848D7
:107EB400FFF71CFC0346002B05D1012206490548A7
:107EC400FFF7F6FD0390039B184605B05DF804FB2D
:107ED400B4780020607300209C78002000B583B043
:107EE4000190019B1B7B002B05D0019B043318469A
:107EF40005F0F8FA0BE0019B1B7B83F00103DBB276
:107F0400002B04D0019B0433184606F067FB00BF26
:107F140003B05DF804FB00B583B00190019B1B7BAB
:107F2400002B05D0019B0433184605F027FB0BE01A
:107F3400019B1B7B83F00103DBB2002B04D0019B6C
:107F44000433184606F09CFB00BF03B05DF804FB45
:107F540000B591B003900291019200230F93039B0B
:107F64001B7B002B1CD0029B1B788DF82830029BB6
:107F74005B788DF82930029B9B780B93029BDB780E
:107F84000C93029B5B680D93029B9B680E93039B6F
:107F940004330AA9019A184605F032FD0F9022E035
:107FA400039B1B7B83F00103DBB2002B1BD0029BE2
:107FB4001B788DF81430029B5B788DF81530029B8A
:107FC4009B780693029BDB780793029B5B6808937C
:107FD400029B9B680993039B043305A9019A1846E5
:107FE40006F046FE0F900F9B184611B05DF804FB97
:107FF40082B00190019B1B681B68002B0CBF0123FE
:108004000023DBB2184602B07047000000B58DB003
:108014000190019B002B03D14749372007F024FF2F
:10802400019B1B680A930A9B1B7E8DF827300A9BD1
:108034001B689A689DF82730DB0013440893089B5B
:108044005B795B088DF81F309DF81F308DF80D307B
:10805400089B1B680493089B1B798DF80E30089BC2
:108064009B7903F00103002B47D0089B5B7903F055
:108074000103002B41D19DF8273001330A9A12687D
:10808400127B934239DA089B5B795B08DAB20A9B6C
:108094001B6899689DF827300133DB000B445B793A
:1080A4005B08DBB29A4228D10A9B1B689A689DF848
:1080B40027300133DB0013440693069B1B680593AA
:1080C400069B1B798DF80F30069B5B7903F0010347
:1080D400002B01D0022300E003238DF80C30069B13
:1080E4009B795B0103F020030B930A9B1B7EDBB29D
:1080F4000133DAB20A9B1A7611E0089B5B7903F02C
:108104000103DBB28DF80C300023059300238DF8B6
:108114000F30089B9B795B0103F020030B93019BB9
:10812400083303A90B9A1846FFF712FF03461846B3
:108134000DB05DF804FB00BF1472030000B585B0F8
:1081440001900091019B002B03D10D49712007F090
:108154008BFE019B1B681B681B68002B0BD0019BCB
:108164001B681B685B680393019B1B681B681B6887
:1081740003990098984700BF05B05DF804FB00BF61
:108184001472030000B589B001900B468DF80330DA
:10819400019B002B03D14249872007F065FE019B18
:1081A4001B68069300238DF81F3000238DF80B30D5
:1081B4000DF10B031846FEF7D9FF9DF80330002B91
:1081C40005D10198FFF714FF0346002B10D0019B43
:1081D4005B68069900221846FFF7B0FB0346002BA4
:1081E40003D101238DF81F3002E0069B00221A60A0
:1081F4009DF80B301846FEF7CFFF9DF81F3083F033
:108204000103DBB2002B44D1069B1B681B69002BC6
:1082140002D1069B043302E0069B1B681B6905938D
:10822400069B5B691022059918460DF083FC0346F2
:10823400002B1CD0019B08331846FFF74FFE019B0F
:1082440003F10800019B174A059905F0D9FE049033
:10825400049B002B03D01249B42007F005FE019BB8
:1082640008331846FFF757FE069B059A5A61069B8A
:1082740000221A760198FFF7C9FE0390039B002B96
:1082840009D003990198FFF759FF01238DF80330B2
:1082940088E700BF00E000BF09B05DF804FB00BF41
:1082A40014720300AD82020000B587B00190009102
:1082B400019B002B03D12049D22007F0D5FD009B60
:1082C4000493049B1B681B68002B03D11A49D82014
:1082D40007F0CAFD019B1B78002B20D100230593D6
:1082E400049B1B681B7E8DF80F309DF80F30013303
:1082F4008DF80F30049B1B681B681B7B9DF80F20B7
:108304009A420ED2049B1B689DF80F201A7604989B
:10831400FFF77CFE0590059B002B02D109E00323A7
:10832400059305990498FFF709FF01210498FFF7C5
:1083340029FF07B05DF804FB1472030010B584B084
:1083440001900091019B002B04D125494FF48470C6
:1083540007F08AFD019B5B68002B04D1204940F2A1
:10836400091007F081FD019B5B689B68002B04D119
:108374001B494FF4857007F077FD009B002B04D157
:10838400174940F20B1007F06FFD019B03F1080041
:10839400019B144A009905F033FE0390039B02935A
:1083A400029B002B01D0029B17E0019B0833184667
:1083B400FFF7B1FD019B1B6800221A60019B1B683B
:1083C400009A1C1D13460FCB84E80F00019B1A680A
:1083D400019B1B6804325A610023184604B010BD87
:1083E40014720300AD82020000B583B00190019BBA
:1083F400002B04D108494FF4917007F035FD019B1F
:1084040008331846FFF76AFD019B1B6800221A60B7
:1084140000BF03B05DF804FB1472030000B585B01F
:1084240001900091019B002B04D11A4940F22D10B8
:1084340007F01AFD009B002B04D116494FF49770E6
:1084440007F012FD009B9B68002B04D1114940F2F8
:108454002F1007F009FD009B1B7B002B04D10D4955
:108464004FF4987007F000FD00230393019B5B68B1
:108474006A4611461846FFF7A9F90390039B002B9F
:1084840003D100210198FFF77DFE039B184605B038
:108494005DF804FB1472030000B583B00190019BE6
:1084A4005B681846FEF72EFF0346184603B05DF8D6
:1084B40004FB00B585B001900091009B0393039BDE
:1084C4009B6A002B06D0039B9B6A039AD2681146D1
:1084D40001989847039BDB6A5B6800991846FEF78E
:1084E400B5FF00BF05B05DF804FB000000B591B016
:1084F400039001930B468DF80B3013468DF80A3028
:10850400039B002B03D13949512007F0ADFC129B8A
:10851400002B03D13549522007F0A6FC039B5B686E
:108524001846FEF74BFF0F900F9B002B01D104233D
:1085340057E00F9B039ADA620F9B019A9A620F9B92
:108544009DF80A201A700F9A9DF80B305B00D9B27F
:108554000F9B5A600F9B01221A720F9B0A465A7294
:108564000F9B01229A729DF80B305B005BB243F0C3
:1085740001035BB2D9B20F9B129ADA600F9B9DF88C
:108584004C201A740F9B0A465A740F9B01229A744A
:108594000F9B191D0F9B143300221A605A609A60B6
:1085A400DA601A610F9B124A5A610F9B0F9A9A6103
:1085B4000F9BD9610F9B022283F82020039B1A682A
:1085C4000F9B143319461046FFF728FF0E900E9B9D
:1085D400002B05D0039B5B680F991846FEF736FF06
:1085E4000E9B184611B05DF804FB00BF8C720300AB
:1085F400B784020000B585B001900091009B0393FD
:10860400039BDB6A5B6800991846FEF71FFF00BFF7
:1086140005B05DF804FB000000B58FB00390019233
:108624001A460B468DF80B3013468DF80A30039B1F
:10863400002B03D138498E2007F016FC019B002B38
:1086440003D135498F2007F00FFC039B5B68184664
:10865400FEF7B4FE0D900D9B002B01D1042357E0CF
:108664000D9B039ADA629DF80B305B00D9B20D9B27
:10867400019A1A610D9B9DF80A201A750D9B0A46F2
:108684005A750D9B00229A759DF84030002B15D029
:108694009DF80A30102B07D9039B5B680D99184687
:1086A400FEF7D4FE092333E00D9B9DF80A200199BF
:1086B40018460DF0E1FB0D9A0D9B1A610D9B03F119
:1086C40010010D9B183300221A605A609A60DA6018
:1086D4001A610D9B114A9A610D9B0D9ADA610D9BEB
:1086E40019620D9B012283F82420039B1A680D9BB9
:1086F400183319461046FFF791FE0C900C9B002B83
:1087040005D0039B5B680D991846FEF79FFE0C9BF2
:1087140018460FB05DF804FB8C720300F985020063
:1087240000B58BB0059003930B468DF813301346B8
:108734008DF81230059B002B03D11749CB2007F08D
:1087440093FB039B002B03D11349CC2007F08CFB34
:108754009DF830300F2B01D9092318E09DF8123011
:108764008DF818309DF8302006AB01330399184674
:108774000DF082FB9DF830300133DBB206AA9DF880
:108784001310012000900598FFF746FF0346184692
:108794000BB05DF804FB00BF8C720300BFF34F8F76
:1087A40000BF074BDB6803F4E0620549054B134344
:1087B400CB60BFF34F8F00BF00BF00BFFCE700BF1B
:1087C40000ED00E00400FA05024B034A1A6000BF02
:1087D400704700BF747300200090D00308B500F008
:1087E40027F90346002B0ED04FF080430022C3F834
:1087F4000C214FF080430022C3F810214FF0804336
:108804000022C3F8382500F037F90346002B76D050
:108814004FF080537D4AD3F80434C2F820354FF02A
:1088240080537A4AD3F80834C2F824354FF0805381
:10883400764AD3F80C34C2F828354FF08053734A83
:10884400D3F81034C2F82C354FF080536F4AD3F864
:108854001434C2F830354FF080536C4AD3F81834CE
:10886400C2F834354FF08053684AD3F81C34C2F848
:1088740040354FF08053654AD3F82034C2F844356C
:108884004FF08053614AD3F82434C2F848354FF08E
:1088940080535E4AD3F82834C2F84C354FF08053E5
:1088A4005A4AD3F82C34C2F850354FF08053574A03
:1088B400D3F83034C2F854354FF08053534AD3F8C8
:1088C4003434C2F860354FF08053504AD3F838340A
:1088D400C2F864354FF080534C4AD3F83C34C2F8A4
:1088E40068354FF08053494AD3F84034C2F86C35A8
:1088F4004FF08053454AD3F84434C2F8703500F041
:10890400DFF80346002B02D0414B424A1A6000F0C4
:10891400E9F80346002B03D03F4BFB22C3F818258C
:1089240000F0F2F80346002B0AD03C4B1B6823F0FE
:108934000F023B4B1B6803F00F03384913430B60D2
:1089440000F0F4F80346002B03D0364B4FF40072CA
:108954001A6000F0FDF80346002B0DD04FF0804361
:10896400D3F8003403F00103002B05D04FF080430B
:108974006FF00102C3F800242B4BD3F888302A4A45
:1089840043F47003C2F88830BFF34F8F00BFBFF3C6
:108994006F8F00BF4FF01023D3F80032002B05DB9C
:1089A4004FF01023D3F80432002B2BDA1F4B012293
:1089B400C3F8042500BF1D4BD3F80034002BFAD0B4
:1089C4004FF010231222C3F8002200BF174BD3F834
:1089D4000034002BFAD04FF010231222C3F80422E3
:1089E40000BF124BD3F80034002BFAD00F4B0022F7
:1089F400C3F8042500BF0D4BD3F80034002BFAD084
:108A0400FFF7CCFEFFF7E0FE00BF08BD00C000404A
:108A14008C5600404881030000F00040E40E004002
:108A2400580200104096024000ED00E000E00140D2
:108A34000F4B1B68082B17D10E4B1B68002B01D161
:108A4400012312E00B4B1B68012B01D101230CE025
:108A5400084B1B68022B01D1012306E0054B1B6860
:108A6400032B01D1012300E001231846704700BF06
:108A740030010010340100100F4B1B68082B17D174
:108A84000E4B1B68002B01D1012312E00B4B1B681A
:108A9400012B01D101230CE0084B1B68022B01D1EF
:108AA400012306E0054B1B68032B01D1012300E0E1
:108AB40001231846704700BF300100103401001034
:108AC400064B1B68082B05D1054B1B68002B01D1F5
:108AD400012300E000231846704700BF3001001056
:108AE40034010010064B1B68082B05D1054B1B688D
:108AF400002B01D1012300E000231846704700BF7A
:108B04003001001034010010064B1B68082B05D1FE
:108B1400054B1B68002B01D1012300E000231846FC
:108B2400704700BF3001001034010010064B1B6871
:108B3400082B05D1054B1B68002B01D1012300E054
:108B440000231846704700BF3001001034010010A4
:108B54000F4B1B68082B17D10E4B1B68002B01D140
:108B6400012312E00B4B1B68012B01D101230CE004
:108B7400084B1B68022B01D1012306E0054B1B683F
:108B8400032B01D1012300E001231846704700BFE5
:108B9400300100103401001030B583B00C4BD3F811
:108BA4000435DB080B4A12681344019301AB1846E1
:108BB4000DF04AF90346084A14461D460FCD0FC46A
:108BC4000FCD0FC42B682360034B184603B030BD90
:108BD40000400240E8780020C478002030B583B01B
:108BE4001F4BD3ED007AF5EE407AF1EE10FA30D057
:108BF4001C4BD3F80435DB081B4A12681344019359
:108C04001A4B1B68019AD31A07EE903AB8EEE77A2A
:108C1400134BD3ED007A67EE277AB6EE007A77EE3F
:108C2400877AFDEEE77A17EE902A104B1B681344FF
:108C340000936B4618460DF007F903460C4A144698
:108C44001D460FCD0FC40FCD0FC42B682360084BF6
:108C540002E0FFF7A1FF0346184603B030BD00BF92
:108C6400F078002000400240E8780020EC780020F2
:108C7400C478002008B50F4BD3F84031002B16D030
:108C84000C4B0022C3F840210A4B01229A600A4B84
:108C94001B681A46094B1B6813441A46064B1A6094
:108CA400074B1B68002B02D0054B1B68984700BF7D
:108CB40008BD00BF00400240E8780020787300201F
:108CC400F478002010B586B0039001921A460B4642
:108CD4008DF80B301346ADF80830039B5C68039B9A
:108CE4009868BDF808309DF80B10019AA0470590CC
:108CF400059B184606B010BD10B586B003900192CE
:108D04001A460B468DF80B301346ADF80830039B1A
:108D14001C68039B9868BDF808309DF80B10019AF5
:108D2400A0470590059B184606B010BD82B00346C7
:108D3400ADF80630BDF9063007EE903AF8EEE77A62
:108D44009FED037A67EE877AB0EE670A02B0704748
:108D540023DB793D00B587B001900B468DF80330D5
:108D640004AA012320210198FFF7ACFF0590059B7D
:108D7400002B1DD19DF803309B0803F00303DAB2E6
:108D84009DF8103062F383038DF810309DF80330A2
:108D940003F00303DAB29DF8103062F301038DF897
:108DA400103004AA012320210198FFF7A5FF0590A4
:108DB400059B002B06D103AA012325210198FFF767
:108DC40081FF0590059B002B12D19DF803301B09F0
:108DD40003F00103DAB29DF80C3062F382038DF8DC
:108DE4000C3003AA012325210198FFF785FF059084
:108DF400059B184607B05DF804FB00B587B00190E9
:108E04000B468DF8033004AA012320210198FFF7B3
:108E140059FF0590059B002B11D19DF8033003F0F9
:108E24000F03DAB29DF8103062F307138DF8103097
:108E340004AA012320210198FFF75EFF0590059BFA
:108E4400002B06D103AA012322210198FFF73AFF40
:108E54000590059B002B12D19DF803301B0903F0EC
:108E64000303DAB29DF80C3062F301038DF80C3081
:108E740003AA012322210198FFF73EFF0590059BD9
:108E8400184607B05DF804FB00B585B001900B46A9
:108E94008DF8033002AA012321210198FFF712FF64
:108EA4000390039B002B11D19DF8033003F00103C1
:108EB400DAB29DF8083062F3C3038DF8083002AAD1
:108EC400012321210198FFF717FF0390039B184604
:108ED40005B05DF804FB00B585B001900B468DF834
:108EE400033002AA012325210198FFF7EBFE03902A
:108EF400039B002B11D19DF8033003F00303DAB276
:108F04009DF8083062F305138DF8083002AA012396
:108F140025210198FFF7F0FE0390039B184605B046
:108F24005DF804FB00B585B00190009102AA01230D
:108F340027210198FFF7C6FE03909DF80830C3F37C
:108F44000003DBB21A46009B1A70039B184605B057
:108F54005DF804FB00B585B0019000910623009AEA
:108F640028210198FFF7AEFE0390039B184605B035
:108F74005DF804FB00B585B0019000910123009ACF
:108F84000F210198FFF79EFE0390039B184605B03E
:108F94005DF804FB00B585B001900B468DF80330F5
:108FA40002AA012321210198FFF78CFE0390039B61
:108FB400002B11D19DF8033003F00103DAB29DF8C0
:108FC400083062F386138DF8083002AA01232121A8
:108FD4000198FFF791FE0390039B184605B05DF8D6
:108FE40004FB00B585B00190009102AA0123212160
:108FF4000198FFF767FE03909DF80830C3F38013D0
:10900400DBB21A46009B1A70039B184605B05DF844
:1090140004FB00B587B001900B468DF8033004AA19
:10902400012325210198FFF74DFE0590059B002B98
:1090340012D19DF803301B0903F00103DAB29DF845
:10904400103062F3C3038DF8103004AA01232521E4
:109054000198FFF751FE0590059B002B06D103AA4A
:1090640001233F210198FFF72DFE0590059B002B5E
:1090740011D19DF8033003F00103DAB29DF80C30EE
:1090840062F304138DF80C3003AA01233F210198E5
:10909400FFF732FE0590059B184607B05DF804FB08
:1090A40000B585B001900B468DF8033002AA012368
:1090B40025210198FFF706FE0390039B002B11D195
:1090C4009DF8033003F00303DAB29DF8083062F32D
:1090D40087138DF8083002AA012325210198FFF790
:1090E4000BFE0390039B184605B05DF804FB0000DB
:1090F40000B583B00190019B1B682F2B04D90B4949
:109104004FF4F37006F0B0FE019B1B681F2B02D8CE
:109114004FF0A04306E0019B1B6803F01F02019B74
:109124001A60034B184603B05DF804FB0873030090
:109134000003005000B585B00190084611461A4658
:1091440003468DF803300B468DF8023013468DF834
:10915400013001AB1846FFF7CBFF03909DF80320C5
:109164009DF802305B001A439DF801309B001A43BE
:109174009DF818301B0242EA03019DF81C301B04C1
:10918400019A1943039B02F5E07243F8221000BFD1
:1091940005B05DF804FB00B585B00390002301938E
:1091A400002300930023012201210398FFF7C2FF4B
:1091B40000BF05B05DF804FB00B585B003900B4615
:1091C4008DF80B309DF80B300022019200220092A2
:1091D400002200210398FFF7ADFF00BF05B05DF842
:1091E40004FB00B585B0019001AB1846FFF780FF82
:1091F4000390019B012202FA03F31946039800F03D
:1092040069F800BF05B05DF804FB00B585B00190B6
:1092140001AB1846FFF76CFF0390019B012202FA91
:1092240003F31946039800F05FF800BF05B05DF83A
:1092340004FB00B585B0019001AB1846FFF758FF59
:109244000390039BD3F804350293029BDA43019BFA
:10925400012101FA03F31A40039BC3F80825019B7B
:1092640001229A40029B1A40039BC3F80C2500BFBD
:1092740005B05DF804FB00B583B001900091009B3C
:10928400002B03D10198FFF7C0FF02E00198FFF71C
:10929400A8FF00BF03B05DF804FB00B585B00190E2
:1092A40001AB1846FFF724FF0390039800F00AF877
:1092B4000246019B22FA03F303F00103184605B0AA
:1092C4005DF804FB82B00190019BD3F80435184685
:1092D40002B0704782B001900091019B009AC3F8DC
:1092E400082500BF02B0704782B001900091019B35
:1092F400009AC3F80C2500BF02B0704700B585B0D2
:109304000190019B032B03D911493A2006F0ACFDCF
:10931400104A019B13441B781846FFF7BEFF03460F
:10932400002B14BF012300238DF80F309DF80F305C
:10933400002B14BF01230023DBB283F00103DBB253
:1093440003F00103DBB2184605B05DF804FB00BF6F
:10935400387303009C73030000B583B00190019B34
:10936400032B03D90749412006F07EFD064A019BE1
:1093740013441B7800211846FFF77DFF00BF03B09C
:109384005DF804FB387303009C73030000B583B0DD
:109394000190019B032B03D90749472006F064FD84
:1093A400064A019B13441B7801211846FFF763FF0B
:1093B40000BF03B05DF804FB387303009C73030023
:1093C40000B583B00023019305E00198FFF7DEFFA9
:1093D400019B01330193019B032BF6D900BF00BF0E
:1093E40003B05DF804FB00B583B00023019305E0EE
:1093F4000198FFF7B1FF019B01330193019B032BFC
:10940400F6D900BF00BF03B05DF804FB00B583B01C
:109414000190019B032B03D907495F2006F024FD2B
:10942400064A019B13441B781846FFF702FF00BF4E
:1094340003B05DF804FB00BF387303009C730300A2
:1094440000B583B00023019309E0094A019B13444A
:109454001B781846FFF79FFE019B01330193019B84
:10946400032BF2D9FFF7ACFF00BF03B05DF804FB98
:109474009C73030000B583B0002301930AE0094AFA
:10948400019B13441B7803211846FFF795FE019BAB
:1094940001330193019B032BF1D900BF00BF03B03B
:1094A4005DF804FBA073030000B583B00190019B39
:1094B400032B03D90549CB2006F0D6FC044A019BB3
:1094C40013441B78184603B05DF804FB387303009B
:1094D400A073030000B583B00190019B03F0010366
:1094E400002B01D0FFF7ACFF019B03F00203002B1C
:1094F40001D0FFF7BFFF00BF03B05DF804FB00001D
:1095040082B003468DF807309DF8073003F01F0240
:1095140006499DF907305B09012000FA02F2203365
:1095240041F8232000BF02B0704700BF00E100E013
:1095340008B50AF007FC034683F00103DBB2002BF5
:1095440003D10549792006F08FFC00F043FB034B5F
:1095540000229A7000BF08BDA4730300F8780020AD
:1095640000B583B000230193144B1B78002B02D069
:10957400852301931CE0114B00229A600F4B0022BB
:109584005A600E4B00221A610C4B0022DA600C4820
:1095940000F0E6FA01900AF0D5FB034683F00103DC
:1095A400DBB2002B01D000F001FB044B01221A7046
:1095B400019B184603B05DF804FB00BFF878002057
:1095C4009D96020084B00190019B1B680393039B4A
:1095D400002B03D0039B1A68019B1A60039B184657
:1095E40004B0704700B583B0164B1B78002B04D130
:1095F40015494FF4857006F037FC124BDB68002BDD
:1096040004D1114940F20B1006F02EFC00238DF812
:1096140007300DF107031846FDF7A8FD094BDB6879
:10962400013B084AD360074BDB68002B01D1FFF7ED
:109634007FFF9DF807301846FDF7AEFD00BF03B06D
:109644005DF804FBF8780020A473030000B585B02E
:1096540003468DF807309DF80730002B02D10C4BE0
:10966400039301E00B4B03930398FFF7ABFF0290C6
:10967400029B002B06D0029B5B689DF807201046D6
:109684009847F1E700BF00BF05B05DF804FB00BFD9
:10969400007900200879002000B583B003468DF8D6
:1096A40007309DF80730002B05D10A4B01225A7070
:1096B4000020FFF7CBFF9DF80730012B05D1054BA8
:1096C40001229A700120FFF7C1FF00BF03B05DF8CB
:1096D40004FB00BFF878002000B583B0019000912E
:1096E400019B002B05D1054B01225A700020FFF786
:1096F400ADFF00BF03B05DF804FB00BFF8780020A5
:1097040000B585B0034600918DF807309DF8073009
:10971400032B29D0032B35DC002B02D0012B04D0E2
:1097240030E00020FFF7ECFE2DE000238DF80F3031
:109734000DF10F031846FDF719FD154B1B7883F047
:109744000103DBB2002B01D0FFF70AFF104BDB68EB
:1097540001330F4AD3600E4B01229A709DF80F30EB
:109764001846FDF719FD0EE0094B1B78002B04D1B8
:10977400084940F2452006F077FB00F017FAFFF79E
:1097840031FF00E000BF00BF05B05DF804FB00BF7F
:10979400F8780020A473030000B589B0019000910B
:1097A400009B0793019B1B788DF80C30019B5B6831
:1097B4000493019B9B68DBB28DF81430019BDB683A
:1097C4000693074A079B52F823300649079A51F833
:1097D400221003AA1046984700BF09B05DF804FBA5
:1097E4000C7900201479002000B589B00190009113
:1097F400009B0793019B1B788DF80C30019B5B68E1
:109804000493019B9B68DBB28DF81430019BDB68E9
:109814000693074A079B52F823300649079A51F8E2
:10982400221003AA1046984700BF09B05DF804FB54
:109834000C7900201479002030B58FB00390029188
:109844000192039B1B780C932C490C9B019A41F8C1
:109854002320029B1A692A490C9B41F823200C9B64
:10986400012B07D1029B5B7F002B03D12549762076
:1098740006F0FAFA029B5B7F1946234A0C9B1344B9
:109884000A461A70029B04AC1D460FCD0FC495E81E
:109894000F0084E80F000C9B089300230D93039B97
:1098A4001B781A46184B9B5C002B0DD0039B181D8C
:1098B400019B002B01D0154A00E0002204AB19469D
:1098C40001F024FE0D9014E0039B1B781A460E4B06
:1098D4009B5C002B0DD1039B03F10C00019B002B1F
:1098E40001D00B4A00E0002204AB194600F090FFBF
:1098F4000D900D9B18460FB030BD00BF0C790020B1
:1099040014790020147403001C7900209D97020030
:10991400ED97020082B003468DF807309DF80730BA
:1099240003F01F0205499DF907305B09012000FA85
:1099340002F241F8232000BF02B0704700E100E0CA
:1099440082B0034600918DF807309DF90730002B53
:109954000CDA009BDAB20C499DF8073003F00F03D0
:10996400043B5201D2B20B441A7609E0009BDAB2EE
:1099740006499DF907305201D2B20B4483F8002303
:1099840000BF02B0704700BF00ED00E000E100E05E
:1099940082B00190019B1B0B5BB2184602B070476A
:1099A40000B583B003460A468DF8073013468DF898
:1099B40006309DF80630012B03D99DF80630032BA1
:1099C4000BD99DF80630042B03D99DF80630072BDC
:1099D40003D908496B2006F047FA9DF806209DF943
:1099E400073011461846FFF7ABFF00BF03B05DF820
:1099F40004FB00BF8474030000B583B003468DF8F4
:109A040007309DF907301846FFF784FF00BF03B005
:109A14005DF804FB82B003468DF807300F4A9DF9C8
:109A24000730002B00DA1F335B115BB252F823209E
:109A34009DF90730594203F01F0301F01F0158BF7D
:109A44004B425BB222FA03F303F00103002B14BF71
:109A540001230023DBB2184602B0704700E100E0A6
:109A640082B001904FF08042019BC2F8083300BFDE
:109A740002B0704782B003468DF807309DF8073076
:109A840003F1804301221A6000BF02B0704784B022
:109A94000346ADF80630BDF8063003F180430022DA
:109AA4001A60BDF8063003F180431B680393039BDF
:109AB40000BF04B0704782B00346ADF80630BDF86D
:109AC400063003F180431B68002B14BF01230023DD
:109AD400DBB2184602B0704782B001904FF080426A
:109AE400019BC2F8183500BF02B070474FF08043A5
:109AF400D3F818341B0C03F00103002B14BF01230B
:109B04000023DBB21846704700B583B006238DF8F6
:109B140007304FF08040FFF73BFF03461846FFF73E
:109B240079FF034683F00103DBB2002B13D04FF01F
:109B34008040FFF72DFF03461A469DF8073019466B
:109B44001046FFF72DFF4FF08040FFF721FF03463B
:109B54001846FFF751FF00BF03B05DF804FB000097
:109B640000B585B00190019B002B03D10D49A020C5
:109B740006F07AF9002303930B4B1B79002B02D0D8
:109B84008523039308E0084A019B1360064B0122D6
:109B94001A71054B00225A71039B184605B05DF8F3
:109BA40004FB00BFB47403002079002008B5074B00
:109BB4001B79002B03D10649B92006F055F9FFF7AC
:109BC400A3FF0120FFF788FF00BF08BD2079002014
:109BD400B474030008B50A4B1B79002B03D109495F
:109BE400F32006F041F90C20FFF744FF00BFFFF714
:109BF4007DFF0346002BFAD100BF00BF08BD00BFA4
:109C040020790020B474030008B54FF48070FFF786
:109C140052FF0346002B14D04FF48070FFF737FF38
:109C24000120FFF71DFF114B5B7983F00103DBB2C9
:109C3400002B06D00D4B01225A710C4B1B680020DF
:109C440098474FF48270FFF736FF0346002B0AD083
:109C54004FF48270FFF71BFF0220FFF701FF034B55
:109C64001B680120984700BF08BD00BF2079002071
:109C740000B583B00346ADF80630BDF8063018468B
:109C840000F026F803461B68012B0CBF01230023B8
:109C9400DBB2184603B05DF804FB00B585B003469B
:109CA400ADF80630BDF80630184600F011F803464A
:109CB4001A4600231360BDF80630184600F008F871
:109CC40003461B680393039B00BF05B05DF804FBC8
:109CD40082B00346ADF80630BDF8063003F1804388
:109CE40003F5C043184602B07047000082B00190EB
:109CF400034BD3F80423019B1340184602B070476A
:109D04000060004082B00190054A019B03F5A273F4
:109D140052F823301B0A03F03F03184602B0704781
:109D24000060004082B00190064A019B03F5A273D3
:109D340052F823301B0C03F00303DBB2184602B0C5
:109D4400704700BF0060004000B583B00190019BE4
:109D54001B682F2B04D90B494FF4F37006F084F8D9
:109D6400019B1B681F2B02D84FF0A04306E0019B08
:109D74001B6803F01F02019B1A60034B184603B0D3
:109D84005DF804FB547503000003005000B585B072
:109D940001900B468DF8033001AB1846FFF7D4FF52
:109DA4000390019A039B02F5E07253F82230019A62
:109DB40023F44031039B02F5E07243F82210019A28
:109DC400039B02F5E07253F822309DF8032012043D
:109DD4001146019A1943039B02F5E07243F82210DD
:109DE40000BF05B05DF804FB00B585B0019001AB80
:109DF4001846FFF7A9FF0390019A039B02F5E0724E
:109E040053F822301B0C03F00303DBB2184605B0F1
:109E14005DF804FB82B00190019BD3F8103518461D
:109E240002B0704700B589B0039002910192184ABC
:109E340005AB92E8030083E80300039A029B1344F2
:109E4400022B04D9134940F2163006F00DF8039B97
:109E5400079311E0079B9B0008AA134453F80C3C9A
:109E64001846FFF7D7FF0246019B1A60019B043393
:109E74000193079B01330793039A029B1344079AA8
:109E84009A42E7D300BF00BF09B05DF804FB00BFEE
:109E9400847503005475030084B001900091009B05
:109EA4000393019BDB080293019B03F007030193D7
:109EB4000122019B02FA03F30399029A0A441278DD
:109EC4001340184604B0704784B001900091009B81
:109ED4000393019BDB080293019B03F007030193A7
:109EE400039A029B13441B785AB20121019B01FA85
:109EF40003F35BB2134359B2039A029B1344CAB2ED
:109F04001A7000BF04B0704782B00190044A019BEC
:109F14001344303393F90030184602B0704700BF41
:109F24002879002082B00190034A019B52F8233023
:109F3400184602B0704700BF2879002000B599B0D8
:109F44000023179306AB00221A605A604FF4807303
:109F5400ADF85630012314930023169321E0BDF885
:109F640056301846FFF784FE0346002B0ED0149893
:109F7400FFF7BCFE0346002B08D0BDF85630184648
:109F8400FFF78BFE179A149B13431793149B5B00E4
:109F94001493BDF856300433ADF85630169B013394
:109FA4001693169B072BDAD94FF4BE70FFF760FEA9
:109FB4000346002B0DD04FF4BE70FFF76EFE179BC7
:109FC40043F00043179306AB1A4602210020FFF723
:109FD40029FF179BDBB2002B29D001231493002304
:109FE400169321E0149A179B1340002B16D0169851
:109FF400FFF788FE11901698FFF794FE03468DF83C
:10A0040043301698FFF78EFF0F900F9B002B05D05F
:10A014009DF843200F9B114611989847149B5B00B1
:10A024001493169B01331693169B072BDAD9179BAF
:10A03400002B80F2F08000238DF84B3004AB00221B
:10A044001A605A60002313930AE0139B9B0018AA1A
:10A0540013444FF0FF3243F8582C139B01331393EE
:10A06400139B012BF1D900238DF84B300023169359
:10A0740078E06B4A169B1344603393F900308DF8F3
:10A084003B309DF83B3023F0C0030D93644A169B8C
:10A094001344603393F90030B3F1FF3F5FD002AB58
:10A0A40019460D98FFF7F8FE0346002B57D09DF88C
:10A0B4003B309B098DF833300D98FFF725FF03469D
:10A0C4001846FFF72FFF0B900B9B002B03D19DF835
:10A0D4003330032B43D19DF83330032B04D104AB2D
:10A0E40019460D98FFF7F0FE0D98FFF77DFE034625
:10A0F4008DF82B3006AB19460D98FFF7CDFE09906D
:10A10400099B002B03D09DF82B30022B06D0099B12
:10A11400002B24D19DF82B30032B20D19DF8333014
:10A12400032B13D19DF82B30022B01D1032300E024
:10A1340002238DF823309DF8233019460D98FFF73C
:10A1440025FE9DF84B3001338DF84B300B9B002BD3
:10A1540005D09DF833200B9B11460D989847169B0C
:10A1640001331693169B032B83D99DF84B30002B98
:10A174004CD001238DF84A306B461A460221002048
:10A18400FFF750FE0023139314E0139B9B0018AABF
:10A19400134453F8602C139B9B0018A90B4453F8E9
:10A1A400483C9A4203D000238DF84A3005E0139BC3
:10A1B40001331393139B012BE7D99DF84A30002BED
:10A1C40003D000238DF84B3020E0002313931AE0D2
:10A1D400139B9B0018AA134453F8602C139B9B00F9
:10A1E40018A90B4443F8482C139B9B0018AA13444A
:10A1F40053F8502C139B9B0018A90B4443F8582C7C
:10A20400139B01331393139B012BE1D99DF84B301E
:10A21400002B7FF428AF00BF19B05DF804FB00BF2A
:10A224002879002008B5064B1B68002B03D105498B
:10A23400512005F019FE024B1B68984700BF08BD6A
:10A2440094790020FC75030082B00190019B044ABC
:10A25400934201D1034B00E00023184602B070473B
:10A26400002000409479002000B587B0019000914F
:10A27400019B002B03D11C49772005F0F5FD0198C3
:10A28400FFF7E2FF0490049B002B25D000238DF8F8
:10A29400173000238DF80B300DF10B031846FCF733
:10A2A40065FF049B1B79002B03D001238DF8173025
:10A2B40005E0049B009A1A60049B01221A719DF820
:10A2C4000B301846FCF768FF9DF81730002B03D0BD
:10A2D40011230393039B02E000230393039B18467B
:10A2E40007B05DF804FB00BFFC75030000B585B042
:10A2F4000190019B002B03D10A499B2005F0B4FD7A
:10A304000198FFF7A1FF0390039B002B05D0039B4B
:10A3140000221A60039B00221A7100BF05B05DF889
:10A3240004FB00BFFC75030082B003468DF80730C0
:10A334009DF8073003F01F0205499DF907305B09BA
:10A34400012000FA02F241F8232000BF02B0704756
:10A3540000E100E082B0034600918DF807309DF9DA
:10A364000730002B0CDA009BDAB20C499DF8073059
:10A3740003F00F03043B5201D2B20B441A7609E0F6
:10A38400009BDAB206499DF907305201D2B20B4460
:10A3940083F8002300BF02B0704700BF00ED00E067
:10A3A40000E100E082B00190019B1B0B5BB21846F8
:10A3B40002B0704700B583B003460A468DF80730F3
:10A3C40013468DF806309DF80630012B03D99DF80D
:10A3D4000630032B0BD99DF80630042B03D99DF8C6
:10A3E4000630072B03D908496B2005F03DFD9DF885
:10A3F40006209DF9073011461846FFF7ABFF00BF52
:10A4040003B05DF804FB00BF6C76030000B583B0B5
:10A4140003468DF807309DF907301846FFF784FF8F
:10A4240000BF03B05DF804FB84B001900B46ADF8A7
:10A434000230BDF80230019A134400221A60BDF8BC
:10A444000230019A13441B680393039B00BF04B0BA
:10A45400704782B001900B46ADF80230BDF802306F
:10A46400019A13441B68002B14BF01230023DBB2A1
:10A47400184602B0704782B001900091019B009A87
:10A48400C3F8042300BF02B0704782B0019000916A
:10A49400019BD3F80423009B1340002B14BF01231A
:10A4A4000023DBB2184602B0704782B001900091DD
:10A4B400019B009AC3F8082300BF02B0704784B020
:10A4C4000190019BD3F880340393019B039AC3F852
:10A4D4008024039B184604B0704782B00190019B0E
:10A4E4000422C3F8002500BF02B0704784B0039073
:10A4F40002910192039B019AC3F81425039B029ACB
:10A50400C3F80C2500BF04B0704784B003900291D7
:10A514000192039B029AC3F80825039B019AC3F88E
:10A52400102500BF04B0704782B00190019BD3F89E
:10A534001835DBB2184602B0704782B001900B4662
:10A544008DF803309DF80320019BC3F81C2500BF40
:10A5540002B0704782B001900B468DF803309DF82D
:10A564000330019A134401221A6000BF02B07047FD
:10A5740082B001900B468DF8033013468DF80230FB
:10A584009DF803209DF802301343DBB21A46019B69
:10A59400C3F86C2500BF02B0704782B001900091EF
:10A5A400019B009AC3F8242500BF02B07047000045
:10A5B40000B583B00190019B1B682F2B04D90B4974
:10A5C4004FF4F37005F050FC019B1B681F2B02D85D
:10A5D4004FF0A04306E0019B1B6803F01F02019BA0
:10A5E4001A60034B184603B05DF804FB9C76030025
:10A5F4000003005000B585B00190084611461A4684
:10A6040003468DF803300B468DF8023013468DF85F
:10A61400013001AB1846FFF7CBFF03909DF80320F0
:10A624009DF802305B001A439DF801309B001A43E9
:10A634009DF818301B0242EA03019DF81C301B04EC
:10A64400019A1943039B02F5E07243F8221000BFFC
:10A6540005B05DF804FB00B585B0039000230193B9
:10A66400002300930023012201210398FFF7C2FF76
:10A6740000BF05B05DF804FB00B585B003900B4640
:10A684008DF80B309DF80B300022019200220092CD
:10A69400002200210398FFF7ADFF00BF05B05DF86D
:10A6A40004FB00B585B0019001AB1846FFF780FFAD
:10A6B4000390019B012202FA03F31946039800F068
:10A6C40004F800BF05B05DF804FB82B0019000916E
:10A6D400019B009AC3F8082500BF02B0704700B57B
:10A6E40083B001900091009B1B68B3F1FF3F09D038
:10A6F400009B1B681846FFF7D4FF009B1B68184695
:10A70400FFF7A9FF009B5B68B3F1FF3F05D0009BF7
:10A714005B6800211846FFF7AFFF019B1A68009B96
:10A724009B6919461046FFF738FF019B1868009B88
:10A73400597D009B1B7D1A46FFF71AFF019B186881
:10A74400009B1968009B5B681A46FFF7CFFE009BCD
:10A754001B7D012B22D1009B9B68B3F1FF3F05D0E9
:10A76400009B9B6800211846FFF786FF009BDB686F
:10A77400B3F1FF3F09D0009BDB681846FFF791FF58
:10A78400009BDB681846FFF766FF019B1868009B77
:10A79400D968009B9B681A46FFF7B7FE00BF03B059
:10A7A4005DF804FB00B583B001900B468DF80330CF
:10A7B400019B1B684FF48E711846FFF735FE019B11
:10A7C4001B684FF4A2711846FFF72EFE019B1B680D
:10A7D4000E491846FFF74FFE019B1B681846FFF70A
:10A7E400E1FD03461A469DF8033019461046FFF76B
:10A7F400E1FD019B1B681846FFF7D4FD034618468C
:10A80400FFF704FE00BF03B05DF804FB8000020004
:10A8140000B587B0039002910192029B002B03D1F3
:10A824002D49AA2005F020FB039B1B791A462C23F3
:10A8340002FB03F3294A1344059300230493059B65
:10A8440093F82A30002B03D008230493049B3EE0A2
:10A85400039B1A68039B1B791946214B53F821303B
:10A8640019461046FFF700FD0346002B03D01123C1
:10A874000493049B2BE002990398FFF730FF059B98
:10A88400019A5A60029B1A69059B1A60059B5B68D2
:10A89400002B05D0029B1B7F19460398FFF782FF0C
:10A8A400039B1B681846FFF718FE059B00229A615C
:10A8B400059B0022DA61059B002283F82920059B71
:10A8C40000225A61059B012283F82A20049B184622
:10A8D40007B05DF804FB00BFCC7603009C79002030
:10A8E4003C77030000B585B0019000914FF48E7160
:10A8F4000198FFF799FD009B9A68009B1B6A13441B
:10A904001B788DF80F30009B1B6A5A1C009B1A623F
:10A914009DF80F3019460198FFF70FFE00BF05B0F0
:10A924005DF804FB00B583B00190009116E0009B34
:10A9340093F82830DBB2002B01D0002315E04FF44C
:10A944008E710198FFF785FD034683F00103DBB2A6
:10A95400002BECD100990198FFF7C4FF009B1A6A01
:10A96400009B5B699A42EAD30123184603B05DF861
:10A9740004FB000000B587B0039002910192039B91
:10A984001B791A462C2302FB03F33C4A1344049319
:10A99400049B93F82A30012B04D0394940F2151056
:10A9A40005F062FA029B002B04D135494FF48B70F9
:10A9B40005F05AFA019B002B04D1314940F21710DB
:10A9C40005F052FA039800F05DF80346002B03D01B
:10A9D40011230593059B4CE0049B019A5A61049B47
:10A9E400029A9A60049B00221A62049B002283F854
:10A9F400282000230593039B1B684FF48E7118468F
:10AA0400FFF712FD039B1B6808211846FFF7A2FD00
:10AA1400039B1B6804991846FFF764FF049B5B685B
:10AA2400002B25D1039B1B6804991846FFF77AFF76
:10AA3400034683F00103DBB2002B02D00F230593FE
:10AA440013E000BF039B1B684FF48E711846FFF799
:10AA540000FD034683F00103DBB2002BF2D1039B1C
:10AA64001B680C211846FFF775FD049B00225A61F0
:10AA7400059B184607B05DF804FB00BF9C790020D5
:10AA8400CC76030082B00190019B1B791946074ADA
:10AA94002C2301FB03F3134414331B68002B14BF52
:10AAA40001230023DBB2184602B070479C790020D2
:10AAB40000B583B00190019B1B684FF49271184656
:10AAC400FFF7B2FC019B1B684FF484711846FFF733
:10AAD400ABFC019B1B6800211846FFF73BFD00BF40
:10AAE40003B05DF804FB10B582B001900091009BA7
:10AAF4009B69002B08D14FF484710198FFF794FCF3
:10AB04000198FFF711FD13E04FF484710198FFF7EA
:10AB14008BFC009BDA68009B5B6AD4180198FFF7F2
:10AB240003FD03462370009B5B6A5A1C009B5A6218
:10AB340002B010BD00B589B0039002910192039B4D
:10AB44001B791A462C2302FB03F37F4A1344069312
:10AB5400039B1B7919467C4A2C2301FB03F3134402
:10AB64002A331B78012B04D0784940F2691005F090
:10AB74007BF9029B002B04D174494FF4B57005F0A6
:10AB840073F9019B002B04D1704940F26B1005F05E
:10AB94006BF900238DF81F30069B5B68002B06D0F1
:10ABA400039B1B684FF401711846FFF77EFC069B5C
:10ABB4009B69002B15D0069BDB69002B0ED0069BEE
:10ABC4005B68002B06D0039B1B684FF40171184689
:10ABD400FFF751FC11230593059BB0E001238DF889
:10ABE4001F309DF81F3083F00103DBB2002B0CD023
:10ABF400069B019A9A61069B029ADA60069B0022E0
:10AC04005A62069B0022DA6105E0069B029A1A61E9
:10AC1400069B019ADA61069B93F8293083F00103BD
:10AC2400DBB2002B09D09DF81F3083F00103DBB2A7
:10AC3400002B02D00398FFF73BFF069B5B68002BB9
:10AC440073D1039B1B684FF4A2711846FFF7ECFB0A
:10AC5400039B1B684FF492711846FFF7FAFB0346F7
:10AC64008DF81330039B1B684FF484711846FFF76B
:10AC7400F0FB03468DF81230039B1B684FF4A2715E
:10AC84001846FFF7E6FB03468DF811309DF81230A5
:10AC940083F00103DBB2002B0DD09DF8113083F05B
:10ACA4000103DBB2002B06D09DF8133083F00103BF
:10ACB400DBB2002BCCD19DF81330002B0FD19DF8C3
:10ACC4001130002B0BD1039B1B6806991846FFF724
:10ACD4000AFF069B9A69069B5B6A9A42B8D8069B50
:10ACE40000229A619DF81330002B03D003230593AF
:10ACF400059B24E09DF81130002B03D00F2305930E
:10AD0400059B1CE0069B93F82930002B06D0039B7F
:10AD14001B6800211846FFF71DFC0DE0039B1B6810
:10AD240004211846FFF716FC06E0039B1B684FF44A
:10AD340001711846FFF79FFB00230593059B1846F6
:10AD440009B05DF804FB00BF9C790020CC760300B9
:10AD540000B589B003900291019201238DF810305F
:10AD6400029B0693019B0593039B5B68039A1168FE
:10AD740004AA1046984700BF09B05DF804FB00B56B
:10AD840087B00190009100238DF80830009B049354
:10AD9400019B9B680393019B00225A61019B5B68A2
:10ADA400019A116802AA1046984700BF07B05DF8DF
:10ADB40004FB00B589B0019000914FF40071019833
:10ADC400FFF763FB0346002B39D04FF492710198CF
:10ADD400FFF73FFB0346002B31D04FF492710198EB
:10ADE400FFF722FB4FF401710198FFF75EFB009B14
:10ADF40093F8293083F00103DBB2002B03D0042144
:10AE04000198FFF7A7FB02238DF808300198FFF79C
:10AE140056FB03460593009B9B690493009BDB68E8
:10AE24000393009B00229A61009B0022DA61009B3D
:10AE34005B68009A116802AA1046984752E0042100
:10AE44000198FFF722FB0346002B4BD04FF484718B
:10AE54000198FFF7FEFA0346002B43D000990198AE
:10AE6400FFF741FE009B9A69009B5B6A9A4239D1C5
:10AE7400009BDB69002B19D0009BDB680793009BC8
:10AE84005B6A0693009BDA69009B9A61009B1A69CE
:10AE9400009BDA60009B0022DA61009B00225A6268
:10AEA400079A06990098FFF753FF1BE0009B93F85D
:10AEB400293083F00103DBB2002B03D00421019875
:10AEC400FFF748FB4FF401710198FFF7EEFA009B7E
:10AED40000229A61009B596A009BDB681A4600981D
:10AEE400FFF736FF4FF48E710198FFF7B2FA03466D
:10AEF400002B22D0009B1A6A009B5B699A420DD2F8
:10AF0400009B93F82830DBB283F00103DBB2002B03
:10AF140004D000990198FFF7E5FC0EE04FF48E7120
:10AF24000198FFF781FA009B5B69002B05D0009B19
:10AF34005B6919460098FFF722FF4FF4A27101984C
:10AF4400FFF787FA0346002B1CD04FF4A271019837
:10AF5400FFF76AFA009B93F82930002B03D00021F5
:10AF64000198FFF7F7FA009B9B69002B0AD0009B1E
:10AF740000229A61009B596A009BDB681A4600987C
:10AF8400FFF7E6FE00BF09B05DF804FB08B503490E
:10AF94000348FFF70EFF00BF08BD00BF9C790020E7
:10AFA4000020004082B003468DF807309DF807303A
:10AFB40003F01F0205499DF907305B09012000FADF
:10AFC40002F241F8232000BF02B0704700E100E024
:10AFD40082B0034600918DF807309DF90730002BAD
:10AFE4000CDA009BDAB20C499DF8073003F00F032A
:10AFF400043B5201D2B20B441A7609E0009BDAB248
:10B0040006499DF907305201D2B20B4483F800235C
:10B0140000BF02B0704700BF00ED00E000E100E0B7
:10B0240082B00190019B03F06043B3F1005F0CBF59
:10B0340001230023DBB2184602B0704782B00190AE
:10B04400019B1B0B5BB2184602B0704700B583B07E
:10B0540003460A468DF8073013468DF806309DF8EE
:10B064000630012B03D99DF80630032B0BD99DF82C
:10B074000630042B03D99DF80630072B03D9084961
:10B084006B2004F0F1FE9DF806209DF9073011466F
:10B094001846FFF79DFF00BF03B05DF804FB00BF37
:10B0A4004077030000B583B003468DF807309DF95F
:10B0B40007301846FFF776FF00BF03B05DF804FBC6
:10B0C40084B001900B46ADF80230BDF80230019A0D
:10B0D400134400221A60BDF80230019A13441B681D
:10B0E4000393039B00BF04B0704782B001900B46EA
:10B0F400ADF80230BDF80230019A13441B68002BEE
:10B1040014BF01230023DBB2184602B0704782B09B
:10B1140001900091019BD3F80022009B1A43019BEC
:10B12400C3F8002200BF02B0704782B001900091C2
:10B13400019BD3F80022009BDB431A40019BC3F818
:10B14400002200BF02B0704782B001900091019BC1
:10B15400009AC3F8042300BF02B0704782B0019084
:10B164000091019B009AC3F8082300BF02B0704706
:10B1740084B00190019BD3F880340393019B039A1C
:10B18400C3F88024039B184604B0704782B0019032
:10B19400019B0822C3F8002500BF02B0704784B0A9
:10B1A400039002910192039B029AC3F80C25039B1E
:10B1B400019AC3F8142500BF04B0704784B003900B
:10B1C40002910192039B029AC3F80825039B019AFA
:10B1D400C3F8102500BF04B0704782B001900B463D
:10B1E4008DF803309DF80330019A134401221A604C
:10B1F40000BF02B0704782B001900B468DF8033057
:10B2040013468DF802309DF803209DF80230134355
:10B21400DBB21A46019BC3F86C2500BF02B070472D
:10B2240082B001900091019B009AC3F8242500BFCD
:10B2340002B0704784B0039002910192029A039B7A
:10B24400C3F84425039B019AC3F8482500BF04B002
:10B25400704782B00190019BD3F84C35184602B078
:10B26400704784B0039002910192029A039BC3F841
:10B274003425039B019AC3F8382500BF04B07047F6
:10B2840082B00190019BD3F83C35184602B0704758
:10B2940000B583B00190019B1B682F2B04D90B4987
:10B2A4004FF4F37004F0E0FD019B1B681F2B02D8E0
:10B2B4004FF0A04306E0019B1B6803F01F02019BB3
:10B2C4001A60034B184603B05DF804FB7077030063
:10B2D4000003005000B585B00190084611461A4697
:10B2E40003468DF803300B468DF8023013468DF873
:10B2F400013001AB1846FFF7CBFF03909DF8032004
:10B304009DF802305B001A439DF801309B001A43FC
:10B314009DF818301B0242EA03019DF81C301B04FF
:10B32400019A1943039B02F5E07243F8221000BF0F
:10B3340005B05DF804FB00B585B0039000230193CC
:10B34400002300930023012201210398FFF7C2FF89
:10B3540000BF05B05DF804FB00B585B003900B4653
:10B364008DF80B309DF80B300022019200220092E0
:10B37400002200210398FFF7ADFF00BF05B05DF880
:10B3840004FB00B585B0019001AB1846FFF780FFC0
:10B394000390019B012202FA03F31946039800F07B
:10B3A40004F800BF05B05DF804FB82B00190009181
:10B3B400019B009AC3F8082500BF02B0704700B58E
:10B3C40083B001900091009B1B68B3F1FF3F09D04B
:10B3D400009B1B681846FFF7D4FF009B1B681846A8
:10B3E400FFF7A9FF009B5B68B3F1FF3F05D0009B0B
:10B3F4005B6800211846FFF7AFFF019B1A68009BAA
:10B404009B6919461046FFF70BFF019B1868009BC8
:10B41400597D009B1B7D1A46FFF7EDFE019B1868C2
:10B42400009B1968009B5B681A46FFF7B8FE009BF7
:10B434001B7D012B22D1009B9B68B3F1FF3F05D0FC
:10B44400009B9B6800211846FFF786FF009BDB6882
:10B45400B3F1FF3F09D0009BDB681846FFF791FF6B
:10B46400009BDB681846FFF766FF019B1868009B8A
:10B47400D968009B9B681A46FFF7A0FE00BF03B083
:10B484005DF804FB00B583B001900B468DF80330E2
:10B49400019B1B684FF488711846FFF711FE019B4E
:10B4A4001B684FF490711846FFF70AFE019B1B6856
:10B4B4004FF492711846FFF703FE019B1B684FF48B
:10B4C400A2711846FFF7FCFD019B1B680E49184644
:10B4D400FFF73AFE019B1B681846FFF7AFFD0346D2
:10B4E4001A469DF8033019461046FFF7AFFD019B3D
:10B4F4001B681846FFF7A2FD03461846FFF7D2FD66
:10B5040000BF03B05DF804FB1003020000B587B070
:10B51400039002910192029B002B03D12B49CD2071
:10B5240004F0A2FC039B1B791A461346DB00134468
:10B534009B00274A1344059300230493059B93F827
:10B544002030002B03D008230493049B3AE0039B90
:10B554001A68039B1B7919461E4B53F82130194670
:10B564001046FEF781FE0346002B03D011230493FB
:10B57400049B27E002990398FFF721FF059B019A9A
:10B584005A60029B1A69059B1A60059B5B68002B35
:10B5940005D0029B1B7F19460398FFF773FF039B9B
:10B5A4001B681846FFF7F2FD059B00229A61059B74
:10B5B4000022DA61059B00225A61059B012283F86F
:10B5C4002020049B184607B05DF804FBA077030015
:10B5D400C87900201078030000B589B00390029167
:10B5E4000192039B1B791A461346DB0013449B000C
:10B5F4004C4A13440693069B93F82030012B04D045
:10B6040049494FF4927004F02FFC029B002B04D1A3
:10B61400454940F2251004F027FC019B002B04D17E
:10B6240041494FF4937004F01FFC039B1B79002BDA
:10B6340003D1019BB3F5803F04D33B4940F227106B
:10B6440004F012FC0298FFF7EBFC034683F00103BD
:10B65400DBB2002B03D010230793079B5EE0039813
:10B6640000F064F80346002B03D011230793079BD3
:10B6740054E0069B019A5A61069B029A9A60002341
:10B684000793039B1B684FF490711846FFF718FD4E
:10B69400039B1B684FF4AC711846FFF711FD039B25
:10B6A4001868069B9968069B5B691A46FFF7C2FDFA
:10B6B400039B1B6808211846FFF78FFD069B5B68F8
:10B6C400002B2AD1039B1B684FF490711846FFF797
:10B6D4000CFD03468DF81730039B1B684FF4AC71C7
:10B6E4001846FFF702FD03468DF816309DF8173013
:10B6F40083F00103DBB2002B06D09DF8163083F0F3
:10B704000103DBB2002BDDD19DF81630002B01D0F4
:10B714000F230793069B00225A61079B184609B022
:10B724005DF804FBC8790020A077030082B0019083
:10B73400019B1B791946084A0B46DB000B449B000E
:10B74400134414331B68002B14BF01230023DBB202
:10B75400184602B0704700BFC879002000B589B010
:10B76400039002910192039B1B791A461346DB0056
:10B7740013449B00864A13440593039B1B79194683
:10B78400834A0B46DB000B449B00134420331B7895
:10B79400012B04D07F494FF4B77004F065FB029B82
:10B7A400002B04D17B4940F26F1004F05DFB019B38
:10B7B400002B04D177494FF4B87004F055FB039B78
:10B7C4001B79002B03D1019BB3F5803F04D371494E
:10B7D40040F2711004F048FB0298FFF721FC034685
:10B7E40083F00103DBB2002B03D010230793079BE4
:10B7F400CAE000238DF81B30059B5B68002B06D044
:10B80400039B1B684FF404711846FFF7A7FC059BC4
:10B814009B69002B15D0059BDB69002B0ED0059B83
:10B824005B68002B06D0039B1B684FF40471184619
:10B83400FFF78AFC11230793079BA5E001238DF8EA
:10B844001B309DF81B3083F00103DBB2002B09D0C1
:10B85400059B019A9A61059B029ADA60059B002276
:10B86400DA6105E0059B029A1A61059B019ADA6187
:10B8740000230793039B1B684FF488711846FFF756
:10B884001FFC039B1B684FF4A2711846FFF718FCBA
:10B89400039B1B68019A02991846FFF7E2FC9DF886
:10B8A4001B3083F00103DBB2002B06D0039B1B6823
:10B8B40000211846FFF791FC05E0039B1B6820213B
:10B8C4001846FFF724FC039B1B791946304A0B46A4
:10B8D400DB000B449B00134404331B68002B4BD147
:10B8E400039B1B684FF488711846FFF7FEFB034661
:10B8F4008DF81330039B1B684FF4A2711846FFF7B1
:10B90400F4FB03468DF81230039B1B684FF49271CD
:10B914001846FFF7EAFB03468DF811309DF8133003
:10B9240083F00103DBB2002B0DD09DF8123083F0BD
:10B934000103DBB2002B06D09DF8113083F0010324
:10B94400DBB2002BCCD1039B1B791946104A0B4662
:10B95400DB000B449B001344183300221A609DF84B
:10B964001130002B01D0032307939DF81230002BD4
:10B9740009D00F23079306E0039B1B684FF404715F
:10B984001846FFF7E1FB079B184609B05DF804FB76
:10B99400C8790020A077030000B589B00390029114
:10B9A400019201238DF81030029B0693019B0593AD
:10B9B400039B5B68039A116804AA1046984700BF6A
:10B9C40009B05DF804FB00B587B001900091002335
:10B9D4008DF80830009B0493019B9B680393019BA3
:10B9E40000225A61019B5B68019A116802AA104601
:10B9F400984700BF07B05DF804FB00B589B001901B
:10BA040000914FF492710198FFF76FFB0346002BEE
:10BA140022D04FF492710198FFF752FB02238DF864
:10BA240008300198FFF7A4FB034605930198FFF73C
:10BA340027FC03460493009BDB680393009B0022CE
:10BA44009A61009B0022DA61009B5B68009A11688E
:10BA540002AA104698473BE04FF488710198FFF71B
:10BA640044FB0346002B33D04FF488710198FFF751
:10BA740027FB0198FFF704FC0790009B9B69079A3A
:10BA84009A4225D1009BDB69002B17D0009BDB6811
:10BA9400069320210198FFF748FB009BDA69009B7D
:10BAA4009A61009B1A69009BDA60009B0022DA61AC
:10BAB400069A07990098FFF76FFF09E0009B0022A0
:10BAC4009A61009BDB681A4607990098FFF764FFA8
